{
  "contractName": "Cbbc",
  "abi": [
    {
      "constant": true,
      "inputs": [],
      "name": "name",
      "outputs": [
        {
          "name": "",
          "type": "string"
        }
      ],
      "payable": false,
      "stateMutability": "view",
      "type": "function"
    },
    {
      "constant": true,
      "inputs": [
        {
          "name": "_tokenId",
          "type": "uint256"
        }
      ],
      "name": "getApproved",
      "outputs": [
        {
          "name": "",
          "type": "address"
        }
      ],
      "payable": false,
      "stateMutability": "view",
      "type": "function"
    },
    {
      "constant": false,
      "inputs": [
        {
          "name": "_to",
          "type": "address"
        },
        {
          "name": "_tokenId",
          "type": "uint256"
        }
      ],
      "name": "approve",
      "outputs": [],
      "payable": false,
      "stateMutability": "nonpayable",
      "type": "function"
    },
    {
      "constant": true,
      "inputs": [],
      "name": "totalSupply",
      "outputs": [
        {
          "name": "",
          "type": "uint256"
        }
      ],
      "payable": false,
      "stateMutability": "view",
      "type": "function"
    },
    {
      "constant": false,
      "inputs": [
        {
          "name": "_from",
          "type": "address"
        },
        {
          "name": "_to",
          "type": "address"
        },
        {
          "name": "_tokenId",
          "type": "uint256"
        }
      ],
      "name": "transferFrom",
      "outputs": [],
      "payable": false,
      "stateMutability": "nonpayable",
      "type": "function"
    },
    {
      "constant": true,
      "inputs": [
        {
          "name": "",
          "type": "uint256"
        }
      ],
      "name": "editions",
      "outputs": [
        {
          "name": "mintTime",
          "type": "uint64"
        },
        {
          "name": "name",
          "type": "string"
        },
        {
          "name": "numCards",
          "type": "uint16"
        }
      ],
      "payable": false,
      "stateMutability": "view",
      "type": "function"
    },
    {
      "constant": true,
      "inputs": [
        {
          "name": "_owner",
          "type": "address"
        },
        {
          "name": "_index",
          "type": "uint256"
        }
      ],
      "name": "tokenOfOwnerByIndex",
      "outputs": [
        {
          "name": "",
          "type": "uint256"
        }
      ],
      "payable": false,
      "stateMutability": "view",
      "type": "function"
    },
    {
      "constant": true,
      "inputs": [],
      "name": "packPrice",
      "outputs": [
        {
          "name": "",
          "type": "uint256"
        }
      ],
      "payable": false,
      "stateMutability": "view",
      "type": "function"
    },
    {
      "constant": false,
      "inputs": [],
      "name": "unpause",
      "outputs": [],
      "payable": false,
      "stateMutability": "nonpayable",
      "type": "function"
    },
    {
      "constant": false,
      "inputs": [
        {
          "name": "_to",
          "type": "address"
        },
        {
          "name": "_tokenId",
          "type": "uint256"
        }
      ],
      "name": "mint",
      "outputs": [],
      "payable": false,
      "stateMutability": "nonpayable",
      "type": "function"
    },
    {
      "constant": false,
      "inputs": [
        {
          "name": "_from",
          "type": "address"
        },
        {
          "name": "_to",
          "type": "address"
        },
        {
          "name": "_tokenId",
          "type": "uint256"
        }
      ],
      "name": "safeTransferFrom",
      "outputs": [],
      "payable": false,
      "stateMutability": "nonpayable",
      "type": "function"
    },
    {
      "constant": true,
      "inputs": [],
      "name": "apiBaseUri",
      "outputs": [
        {
          "name": "",
          "type": "string"
        }
      ],
      "payable": false,
      "stateMutability": "view",
      "type": "function"
    },
    {
      "constant": true,
      "inputs": [
        {
          "name": "_tokenId",
          "type": "uint256"
        }
      ],
      "name": "exists",
      "outputs": [
        {
          "name": "",
          "type": "bool"
        }
      ],
      "payable": false,
      "stateMutability": "view",
      "type": "function"
    },
    {
      "constant": true,
      "inputs": [
        {
          "name": "_index",
          "type": "uint256"
        }
      ],
      "name": "tokenByIndex",
      "outputs": [
        {
          "name": "",
          "type": "uint256"
        }
      ],
      "payable": false,
      "stateMutability": "view",
      "type": "function"
    },
    {
      "constant": true,
      "inputs": [],
      "name": "paused",
      "outputs": [
        {
          "name": "",
          "type": "bool"
        }
      ],
      "payable": false,
      "stateMutability": "view",
      "type": "function"
    },
    {
      "constant": true,
      "inputs": [
        {
          "name": "_tokenId",
          "type": "uint256"
        }
      ],
      "name": "ownerOf",
      "outputs": [
        {
          "name": "",
          "type": "address"
        }
      ],
      "payable": false,
      "stateMutability": "view",
      "type": "function"
    },
    {
      "constant": true,
      "inputs": [
        {
          "name": "_owner",
          "type": "address"
        }
      ],
      "name": "balanceOf",
      "outputs": [
        {
          "name": "",
          "type": "uint256"
        }
      ],
      "payable": false,
      "stateMutability": "view",
      "type": "function"
    },
    {
      "constant": true,
      "inputs": [],
      "name": "API_BASE_URI",
      "outputs": [
        {
          "name": "",
          "type": "string"
        }
      ],
      "payable": false,
      "stateMutability": "view",
      "type": "function"
    },
    {
      "constant": false,
      "inputs": [],
      "name": "pause",
      "outputs": [],
      "payable": false,
      "stateMutability": "nonpayable",
      "type": "function"
    },
    {
      "constant": true,
      "inputs": [],
      "name": "owner",
      "outputs": [
        {
          "name": "",
          "type": "address"
        }
      ],
      "payable": false,
      "stateMutability": "view",
      "type": "function"
    },
    {
      "constant": true,
      "inputs": [
        {
          "name": "",
          "type": "uint256"
        }
      ],
      "name": "cards",
      "outputs": [
        {
          "name": "mintTime",
          "type": "uint64"
        },
        {
          "name": "playerBbrefId",
          "type": "bytes32"
        },
        {
          "name": "cardType",
          "type": "bytes32"
        },
        {
          "name": "editionId",
          "type": "uint16"
        },
        {
          "name": "seriesNumber",
          "type": "uint16"
        }
      ],
      "payable": false,
      "stateMutability": "view",
      "type": "function"
    },
    {
      "constant": true,
      "inputs": [],
      "name": "symbol",
      "outputs": [
        {
          "name": "",
          "type": "string"
        }
      ],
      "payable": false,
      "stateMutability": "view",
      "type": "function"
    },
    {
      "constant": false,
      "inputs": [
        {
          "name": "_to",
          "type": "address"
        },
        {
          "name": "_approved",
          "type": "bool"
        }
      ],
      "name": "setApprovalForAll",
      "outputs": [],
      "payable": false,
      "stateMutability": "nonpayable",
      "type": "function"
    },
    {
      "constant": false,
      "inputs": [
        {
          "name": "_from",
          "type": "address"
        },
        {
          "name": "_to",
          "type": "address"
        },
        {
          "name": "_tokenId",
          "type": "uint256"
        },
        {
          "name": "_data",
          "type": "bytes"
        }
      ],
      "name": "safeTransferFrom",
      "outputs": [],
      "payable": false,
      "stateMutability": "nonpayable",
      "type": "function"
    },
    {
      "constant": true,
      "inputs": [
        {
          "name": "contractName",
          "type": "string"
        },
        {
          "name": "migrationId",
          "type": "string"
        }
      ],
      "name": "isMigrated",
      "outputs": [
        {
          "name": "",
          "type": "bool"
        }
      ],
      "payable": false,
      "stateMutability": "view",
      "type": "function"
    },
    {
      "constant": true,
      "inputs": [
        {
          "name": "_owner",
          "type": "address"
        },
        {
          "name": "_operator",
          "type": "address"
        }
      ],
      "name": "isApprovedForAll",
      "outputs": [
        {
          "name": "",
          "type": "bool"
        }
      ],
      "payable": false,
      "stateMutability": "view",
      "type": "function"
    },
    {
      "constant": true,
      "inputs": [],
      "name": "DEFAULT_PACK_PRICE",
      "outputs": [
        {
          "name": "",
          "type": "uint256"
        }
      ],
      "payable": false,
      "stateMutability": "view",
      "type": "function"
    },
    {
      "constant": false,
      "inputs": [
        {
          "name": "newOwner",
          "type": "address"
        }
      ],
      "name": "transferOwnership",
      "outputs": [],
      "payable": false,
      "stateMutability": "nonpayable",
      "type": "function"
    },
    {
      "payable": true,
      "stateMutability": "payable",
      "type": "fallback"
    },
    {
      "anonymous": false,
      "inputs": [
        {
          "indexed": false,
          "name": "_api_base_url",
          "type": "string"
        }
      ],
      "name": "ApiBaseUriSet",
      "type": "event"
    },
    {
      "anonymous": false,
      "inputs": [
        {
          "indexed": false,
          "name": "_newEditionId",
          "type": "uint16"
        },
        {
          "indexed": false,
          "name": "_name",
          "type": "string"
        },
        {
          "indexed": false,
          "name": "_numCards",
          "type": "uint16"
        }
      ],
      "name": "EditionMinted",
      "type": "event"
    },
    {
      "anonymous": false,
      "inputs": [
        {
          "indexed": false,
          "name": "_editionId",
          "type": "uint16"
        },
        {
          "indexed": true,
          "name": "_owner",
          "type": "address"
        },
        {
          "indexed": false,
          "name": "_packPricePaid",
          "type": "uint256"
        }
      ],
      "name": "FivePackBoughtUsingEth",
      "type": "event"
    },
    {
      "anonymous": false,
      "inputs": [
        {
          "indexed": false,
          "name": "_editionId",
          "type": "uint16"
        },
        {
          "indexed": true,
          "name": "_owner",
          "type": "address"
        }
      ],
      "name": "FivePackBoughtUsingFiatFor",
      "type": "event"
    },
    {
      "anonymous": false,
      "inputs": [
        {
          "indexed": false,
          "name": "_editionId",
          "type": "uint16"
        },
        {
          "indexed": true,
          "name": "_owner",
          "type": "address"
        }
      ],
      "name": "FivePackBoughtFor",
      "type": "event"
    },
    {
      "anonymous": false,
      "inputs": [
        {
          "indexed": false,
          "name": "_editionId",
          "type": "uint16"
        },
        {
          "indexed": true,
          "name": "_owner",
          "type": "address"
        }
      ],
      "name": "FivePackMinted",
      "type": "event"
    },
    {
      "anonymous": false,
      "inputs": [
        {
          "indexed": false,
          "name": "_playerBbrefId",
          "type": "bytes32"
        },
        {
          "indexed": false,
          "name": "_cardType",
          "type": "bytes32"
        },
        {
          "indexed": false,
          "name": "_editionId",
          "type": "uint16"
        },
        {
          "indexed": false,
          "name": "_seriesNumber",
          "type": "uint16"
        },
        {
          "indexed": false,
          "name": "_cardId",
          "type": "uint256"
        },
        {
          "indexed": true,
          "name": "_owner",
          "type": "address"
        }
      ],
      "name": "CardMinted",
      "type": "event"
    },
    {
      "anonymous": false,
      "inputs": [
        {
          "indexed": true,
          "name": "_sender",
          "type": "address"
        },
        {
          "indexed": false,
          "name": "_value",
          "type": "uint256"
        }
      ],
      "name": "FallBackPaid",
      "type": "event"
    },
    {
      "anonymous": false,
      "inputs": [],
      "name": "Pause",
      "type": "event"
    },
    {
      "anonymous": false,
      "inputs": [],
      "name": "Unpause",
      "type": "event"
    },
    {
      "anonymous": false,
      "inputs": [
        {
          "indexed": true,
          "name": "_from",
          "type": "address"
        },
        {
          "indexed": true,
          "name": "_to",
          "type": "address"
        },
        {
          "indexed": false,
          "name": "_tokenId",
          "type": "uint256"
        }
      ],
      "name": "Transfer",
      "type": "event"
    },
    {
      "anonymous": false,
      "inputs": [
        {
          "indexed": true,
          "name": "_owner",
          "type": "address"
        },
        {
          "indexed": true,
          "name": "_approved",
          "type": "address"
        },
        {
          "indexed": false,
          "name": "_tokenId",
          "type": "uint256"
        }
      ],
      "name": "Approval",
      "type": "event"
    },
    {
      "anonymous": false,
      "inputs": [
        {
          "indexed": true,
          "name": "_owner",
          "type": "address"
        },
        {
          "indexed": true,
          "name": "_operator",
          "type": "address"
        },
        {
          "indexed": false,
          "name": "_approved",
          "type": "bool"
        }
      ],
      "name": "ApprovalForAll",
      "type": "event"
    },
    {
      "anonymous": false,
      "inputs": [
        {
          "indexed": true,
          "name": "previousOwner",
          "type": "address"
        },
        {
          "indexed": true,
          "name": "newOwner",
          "type": "address"
        }
      ],
      "name": "OwnershipTransferred",
      "type": "event"
    },
    {
      "anonymous": false,
      "inputs": [
        {
          "indexed": false,
          "name": "contractName",
          "type": "string"
        },
        {
          "indexed": false,
          "name": "migrationId",
          "type": "string"
        }
      ],
      "name": "Migrated",
      "type": "event"
    },
    {
      "constant": false,
      "inputs": [],
      "name": "initialize",
      "outputs": [],
      "payable": false,
      "stateMutability": "nonpayable",
      "type": "function"
    },
    {
      "constant": false,
      "inputs": [
        {
          "name": "_sender",
          "type": "address"
        }
      ],
      "name": "initialize",
      "outputs": [],
      "payable": false,
      "stateMutability": "nonpayable",
      "type": "function"
    },
    {
      "constant": false,
      "inputs": [
        {
          "name": "_sender",
          "type": "address"
        },
        {
          "name": "_name",
          "type": "string"
        },
        {
          "name": "_symbol",
          "type": "string"
        }
      ],
      "name": "initialize",
      "outputs": [],
      "payable": false,
      "stateMutability": "nonpayable",
      "type": "function"
    },
    {
      "constant": false,
      "inputs": [
        {
          "name": "_name",
          "type": "string"
        },
        {
          "name": "_symbol",
          "type": "string"
        }
      ],
      "name": "initialize",
      "outputs": [],
      "payable": false,
      "stateMutability": "nonpayable",
      "type": "function"
    },
    {
      "constant": false,
      "inputs": [
        {
          "name": "_apiBaseUri",
          "type": "string"
        }
      ],
      "name": "setApiBaseUri",
      "outputs": [
        {
          "name": "",
          "type": "string"
        }
      ],
      "payable": false,
      "stateMutability": "nonpayable",
      "type": "function"
    },
    {
      "constant": false,
      "inputs": [
        {
          "name": "_packPrice",
          "type": "uint256"
        }
      ],
      "name": "setPackPrice",
      "outputs": [
        {
          "name": "",
          "type": "uint256"
        }
      ],
      "payable": false,
      "stateMutability": "nonpayable",
      "type": "function"
    },
    {
      "constant": false,
      "inputs": [
        {
          "name": "_name",
          "type": "string"
        },
        {
          "name": "_numFivePacks",
          "type": "uint16"
        }
      ],
      "name": "mintEdition",
      "outputs": [
        {
          "name": "",
          "type": "uint16"
        }
      ],
      "payable": false,
      "stateMutability": "nonpayable",
      "type": "function"
    },
    {
      "constant": false,
      "inputs": [
        {
          "name": "_editionId",
          "type": "uint16"
        },
        {
          "name": "_owner",
          "type": "address"
        }
      ],
      "name": "buyFivePackUsingFiatFor",
      "outputs": [
        {
          "name": "",
          "type": "uint16"
        }
      ],
      "payable": false,
      "stateMutability": "nonpayable",
      "type": "function"
    },
    {
      "constant": false,
      "inputs": [
        {
          "name": "_editionId",
          "type": "uint16"
        }
      ],
      "name": "buyFivePackUsingEth",
      "outputs": [
        {
          "name": "",
          "type": "uint16"
        }
      ],
      "payable": true,
      "stateMutability": "payable",
      "type": "function"
    },
    {
      "constant": false,
      "inputs": [
        {
          "name": "_playerBbrefIds",
          "type": "bytes32[5]"
        },
        {
          "name": "_cardTypes",
          "type": "bytes32[5]"
        },
        {
          "name": "_editionId",
          "type": "uint16"
        },
        {
          "name": "_owner",
          "type": "address"
        }
      ],
      "name": "mintFivePack",
      "outputs": [
        {
          "name": "",
          "type": "uint256[5]"
        }
      ],
      "payable": false,
      "stateMutability": "nonpayable",
      "type": "function"
    },
    {
      "constant": true,
      "inputs": [
        {
          "name": "_tokenId",
          "type": "uint256"
        }
      ],
      "name": "tokenURI",
      "outputs": [
        {
          "name": "",
          "type": "string"
        }
      ],
      "payable": false,
      "stateMutability": "view",
      "type": "function"
    },
    {
      "constant": true,
      "inputs": [
        {
          "name": "_editionId",
          "type": "uint16"
        }
      ],
      "name": "checkEditionExists",
      "outputs": [
        {
          "name": "",
          "type": "bool"
        }
      ],
      "payable": false,
      "stateMutability": "view",
      "type": "function"
    },
    {
      "constant": true,
      "inputs": [],
      "name": "numberOfEditions",
      "outputs": [
        {
          "name": "",
          "type": "uint256"
        }
      ],
      "payable": false,
      "stateMutability": "view",
      "type": "function"
    },
    {
      "constant": true,
      "inputs": [
        {
          "name": "_editionId",
          "type": "uint16"
        }
      ],
      "name": "editionInfo",
      "outputs": [
        {
          "name": "",
          "type": "string"
        },
        {
          "name": "",
          "type": "uint16"
        },
        {
          "name": "",
          "type": "uint16"
        },
        {
          "name": "",
          "type": "bool"
        },
        {
          "name": "",
          "type": "uint16"
        }
      ],
      "payable": false,
      "stateMutability": "view",
      "type": "function"
    },
    {
      "constant": true,
      "inputs": [
        {
          "name": "_cardId",
          "type": "uint256"
        }
      ],
      "name": "checkCardExists",
      "outputs": [
        {
          "name": "",
          "type": "bool"
        }
      ],
      "payable": false,
      "stateMutability": "view",
      "type": "function"
    },
    {
      "constant": true,
      "inputs": [],
      "name": "numberOfCards",
      "outputs": [
        {
          "name": "",
          "type": "uint256"
        }
      ],
      "payable": false,
      "stateMutability": "view",
      "type": "function"
    },
    {
      "constant": true,
      "inputs": [
        {
          "name": "_cardId",
          "type": "uint256"
        }
      ],
      "name": "cardInfo",
      "outputs": [
        {
          "name": "",
          "type": "bytes32"
        },
        {
          "name": "",
          "type": "bytes32"
        },
        {
          "name": "",
          "type": "uint16"
        },
        {
          "name": "",
          "type": "uint16"
        },
        {
          "name": "",
          "type": "uint16"
        }
      ],
      "payable": false,
      "stateMutability": "view",
      "type": "function"
    },
    {
      "constant": false,
      "inputs": [],
      "name": "withdraw",
      "outputs": [],
      "payable": false,
      "stateMutability": "nonpayable",
      "type": "function"
    },
    {
      "constant": true,
      "inputs": [
        {
          "name": "_editionId",
          "type": "uint16"
        }
      ],
      "name": "enoughUnmintedCardsToSellFivePack",
      "outputs": [
        {
          "name": "",
          "type": "bool"
        }
      ],
      "payable": false,
      "stateMutability": "view",
      "type": "function"
    }
  ],
  "bytecode": "0x60806040526000600d60006101000a81548160ff02191690831515021790555034801561002b57600080fd5b50615f3a806200003c6000396000f30060806040526004361061023b576000357c0100000000000000000000000000000000000000000000000000000000900463ffffffff16806306fdde031461029d578063081812fc1461032d578063095ea7b31461039a5780630b6af499146103e757806318160ddd1461042857806323b872dd14610453578063279c806e146104c05780632f745c5914610590578063335c8b63146105f15780633aee0d7d1461061c5780633ccfd60b146106615780633f4ba83a1461067857806340c10f191461068f57806342842e0e146106dc57806344048326146107495780634a2a7834146107d95780634afe5a7f146108225780634cd88b761461084d5780634f558e79146108fc5780634f6ccce7146109415780634fba024014610982578063556a4e2d14610a645780635c975abb14610ac95780636352211e14610af857806370a0823114610b6557806376c3598014610bbc5780637ad02db614610c055780638129fc1c14610c9557806381efd70814610cac5780638456cb5914610cd75780638da5cb5b14610cee5780638dc1076814610d455780639065714714610dd657806395d89b4114610ea5578063a22cb46514610f35578063a79b091314610f84578063b88d4fde14611038578063c0bac1a8146110eb578063c4d66de8146111b2578063c6130a0a146111f5578063c87b56dd14611262578063da11eb4914611308578063e985e9c5146113a9578063eb232a1514611424578063ef20051f14611464578063f2fde38b1461148f578063f77843dd146114d2575b60008036905014151561024d57600080fd5b3373ffffffffffffffffffffffffffffffffffffffff167f32e1bd3d69af89240f5d43cc1e3bcb727af08b1f45dadea82446b2d3f74dbf88346040518082815260200191505060405180910390a2005b3480156102a957600080fd5b506102b2611557565b6040518080602001828103825283818151815260200191508051906020019080838360005b838110156102f25780820151818401526020810190506102d7565b50505050905090810190601f16801561031f5780820380516001836020036101000a031916815260200191505b509250505060405180910390f35b34801561033957600080fd5b50610358600480360381019080803590602001909291905050506115f9565b604051808273ffffffffffffffffffffffffffffffffffffffff1673ffffffffffffffffffffffffffffffffffffffff16815260200191505060405180910390f35b3480156103a657600080fd5b506103e5600480360381019080803573ffffffffffffffffffffffffffffffffffffffff16906020019092919080359060200190929190505050611636565b005b3480156103f357600080fd5b50610412600480360381019080803590602001909291905050506117fc565b6040518082815260200191505060405180910390f35b34801561043457600080fd5b5061043d61186b565b6040518082815260200191505060405180910390f35b34801561045f57600080fd5b506104be600480360381019080803573ffffffffffffffffffffffffffffffffffffffff169060200190929190803573ffffffffffffffffffffffffffffffffffffffff16906020019092919080359060200190929190505050611878565b005b3480156104cc57600080fd5b506104eb6004803603810190808035906020019092919050505061198f565b604051808467ffffffffffffffff1667ffffffffffffffff168152602001806020018361ffff1661ffff168152602001828103825284818151815260200191508051906020019080838360005b83811015610553578082015181840152602081019050610538565b50505050905090810190601f1680156105805780820380516001836020036101000a031916815260200191505b5094505050505060405180910390f35b34801561059c57600080fd5b506105db600480360381019080803573ffffffffffffffffffffffffffffffffffffffff16906020019092919080359060200190929190505050611a82565b6040518082815260200191505060405180910390f35b3480156105fd57600080fd5b50610606611af9565b6040518082815260200191505060405180910390f35b34801561062857600080fd5b5061064760048036038101908080359060200190929190505050611aff565b604051808215151515815260200191505060405180910390f35b34801561066d57600080fd5b50610676611b2d565b005b34801561068457600080fd5b5061068d611be9565b005b34801561069b57600080fd5b506106da600480360381019080803573ffffffffffffffffffffffffffffffffffffffff16906020019092919080359060200190929190505050611ca9565b005b3480156106e857600080fd5b50610747600480360381019080803573ffffffffffffffffffffffffffffffffffffffff169060200190929190803573ffffffffffffffffffffffffffffffffffffffff16906020019092919080359060200190929190505050611d13565b005b34801561075557600080fd5b5061075e611d4b565b6040518080602001828103825283818151815260200191508051906020019080838360005b8381101561079e578082015181840152602081019050610783565b50505050905090810190601f1680156107cb5780820380516001836020036101000a031916815260200191505b509250505060405180910390f35b3480156107e557600080fd5b50610808600480360381019080803561ffff169060200190929190505050611de9565b604051808215151515815260200191505060405180910390f35b34801561082e57600080fd5b50610837611e1f565b6040518082815260200191505060405180910390f35b34801561085957600080fd5b506108fa600480360381019080803590602001908201803590602001908080601f0160208091040260200160405190810160405280939291908181526020018383808284378201915050505050509192919290803590602001908201803590602001908080601f0160208091040260200160405190810160405280939291908181526020018383808284378201915050505050509192919290505050611e2c565b005b34801561090857600080fd5b506109276004803603810190808035906020019092919050505061222d565b604051808215151515815260200191505060405180910390f35b34801561094d57600080fd5b5061096c6004803603810190808035906020019092919050505061229f565b6040518082815260200191505060405180910390f35b34801561098e57600080fd5b506109b1600480360381019080803561ffff1690602001909291905050506122d7565b60405180806020018661ffff1661ffff1681526020018561ffff1661ffff168152602001841515151581526020018361ffff1661ffff168152602001828103825287818151815260200191508051906020019080838360005b83811015610a25578082015181840152602081019050610a0a565b50505050905090810190601f168015610a525780820380516001836020036101000a031916815260200191505b50965050505050505060405180910390f35b348015610a7057600080fd5b50610aab600480360381019080803590602001908201803590602001919091929391929390803561ffff16906020019092919050505061249c565b604051808261ffff1661ffff16815260200191505060405180910390f35b348015610ad557600080fd5b50610ade61253f565b604051808215151515815260200191505060405180910390f35b348015610b0457600080fd5b50610b2360048036038101908080359060200190929190505050612552565b604051808273ffffffffffffffffffffffffffffffffffffffff1673ffffffffffffffffffffffffffffffffffffffff16815260200191505060405180910390f35b348015610b7157600080fd5b50610ba6600480360381019080803573ffffffffffffffffffffffffffffffffffffffff1690602001909291905050506125d0565b6040518082815260200191505060405180910390f35b348015610bc857600080fd5b50610beb600480360381019080803561ffff169060200190929190505050612654565b604051808215151515815260200191505060405180910390f35b348015610c1157600080fd5b50610c1a61281e565b6040518080602001828103825283818151815260200191508051906020019080838360005b83811015610c5a578082015181840152602081019050610c3f565b50505050905090810190601f168015610c875780820380516001836020036101000a031916815260200191505b509250505060405180910390f35b348015610ca157600080fd5b50610caa61287e565b005b348015610cb857600080fd5b50610cc1612c4f565b6040518082815260200191505060405180910390f35b348015610ce357600080fd5b50610cec612c5c565b005b348015610cfa57600080fd5b50610d03612d1d565b604051808273ffffffffffffffffffffffffffffffffffffffff1673ffffffffffffffffffffffffffffffffffffffff16815260200191505060405180910390f35b348015610d5157600080fd5b50610d7060048036038101908080359060200190929190505050612d43565b604051808667ffffffffffffffff1667ffffffffffffffff168152602001856000191660001916815260200184600019166000191681526020018361ffff1661ffff1681526020018261ffff1661ffff1681526020019550505050505060405180910390f35b348015610de257600080fd5b50610ea3600480360381019080803573ffffffffffffffffffffffffffffffffffffffff169060200190929190803590602001908201803590602001908080601f0160208091040260200160405190810160405280939291908181526020018383808284378201915050505050509192919290803590602001908201803590602001908080601f0160208091040260200160405190810160405280939291908181526020018383808284378201915050505050509192919290505050612db8565b005b348015610eb157600080fd5b50610eba613220565b6040518080602001828103825283818151815260200191508051906020019080838360005b83811015610efa578082015181840152602081019050610edf565b50505050905090810190601f168015610f275780820380516001836020036101000a031916815260200191505b509250505060405180910390f35b348015610f4157600080fd5b50610f82600480360381019080803573ffffffffffffffffffffffffffffffffffffffff1690602001909291908035151590602001909291905050506132c2565b005b348015610f9057600080fd5b50610fbd6004803603810190808035906020019082018035906020019190919293919293905050506133fe565b6040518080602001828103825283818151815260200191508051906020019080838360005b83811015610ffd578082015181840152602081019050610fe2565b50505050905090810190601f16801561102a5780820380516001836020036101000a031916815260200191505b509250505060405180910390f35b34801561104457600080fd5b506110e9600480360381019080803573ffffffffffffffffffffffffffffffffffffffff169060200190929190803573ffffffffffffffffffffffffffffffffffffffff16906020019092919080359060200190929190803590602001908201803590602001908080601f0160208091040260200160405190810160405280939291908181526020018383808284378201915050505050509192919290505050613511565b005b3480156110f757600080fd5b50611198600480360381019080803590602001908201803590602001908080601f0160208091040260200160405190810160405280939291908181526020018383808284378201915050505050509192919290803590602001908201803590602001908080601f0160208091040260200160405190810160405280939291908181526020018383808284378201915050505050509192919290505050613550565b604051808215151515815260200191505060405180910390f35b3480156111be57600080fd5b506111f3600480360381019080803573ffffffffffffffffffffffffffffffffffffffff16906020019092919050505061363b565b005b34801561120157600080fd5b50611244600480360381019080803561ffff169060200190929190803573ffffffffffffffffffffffffffffffffffffffff169060200190929190505050613a16565b604051808261ffff1661ffff16815260200191505060405180910390f35b34801561126e57600080fd5b5061128d60048036038101908080359060200190929190505050613ae1565b6040518080602001828103825283818151815260200191508051906020019080838360005b838110156112cd5780820151818401526020810190506112b2565b50505050905090810190601f1680156112fa5780820380516001836020036101000a031916815260200191505b509250505060405180910390f35b34801561131457600080fd5b5061136b6004803603810190808060a0019091929192908060a001909192919290803561ffff169060200190929190803573ffffffffffffffffffffffffffffffffffffffff169060200190929190505050613baf565b6040518082600560200280838360005b8381101561139657808201518184015260208101905061137b565b5050505090500191505060405180910390f35b3480156113b557600080fd5b5061140a600480360381019080803573ffffffffffffffffffffffffffffffffffffffff169060200190929190803573ffffffffffffffffffffffffffffffffffffffff169060200190929190505050614038565b604051808215151515815260200191505060405180910390f35b611446600480360381019080803561ffff1690602001909291905050506140cc565b604051808261ffff1661ffff16815260200191505060405180910390f35b34801561147057600080fd5b50611479614152565b6040518082815260200191505060405180910390f35b34801561149b57600080fd5b506114d0600480360381019080803573ffffffffffffffffffffffffffffffffffffffff16906020019092919050505061415d565b005b3480156114de57600080fd5b506114fd600480360381019080803590602001909291905050506142b5565b60405180866000191660001916815260200185600019166000191681526020018461ffff1661ffff1681526020018361ffff1661ffff1681526020018261ffff1661ffff1681526020019550505050505060405180910390f35b606060068054600181600116156101000203166002900480601f0160208091040260200160405190810160405280929190818152602001828054600181600116156101000203166002900480156115ef5780601f106115c4576101008083540402835291602001916115ef565b820191906000526020600020905b8154815290600101906020018083116115d257829003601f168201915b5050505050905090565b60006003600083815260200190815260200160002060009054906101000a900473ffffffffffffffffffffffffffffffffffffffff169050919050565b600061164182612552565b90508073ffffffffffffffffffffffffffffffffffffffff168373ffffffffffffffffffffffffffffffffffffffff161415151561167e57600080fd5b8073ffffffffffffffffffffffffffffffffffffffff163373ffffffffffffffffffffffffffffffffffffffff1614806116be57506116bd8133614038565b5b15156116c957600080fd5b600073ffffffffffffffffffffffffffffffffffffffff166116ea836115f9565b73ffffffffffffffffffffffffffffffffffffffff1614158061173a5750600073ffffffffffffffffffffffffffffffffffffffff168373ffffffffffffffffffffffffffffffffffffffff1614155b156117f757826003600084815260200190815260200160002060006101000a81548173ffffffffffffffffffffffffffffffffffffffff021916908373ffffffffffffffffffffffffffffffffffffffff1602179055508273ffffffffffffffffffffffffffffffffffffffff168173ffffffffffffffffffffffffffffffffffffffff167f8c5be1e5ebec7d5bd14f71427d1e84f3dd0314c0f7b2291e5b200ac8c7c3b925846040518082815260200191505060405180910390a35b505050565b6000600160009054906101000a900473ffffffffffffffffffffffffffffffffffffffff1673ffffffffffffffffffffffffffffffffffffffff163373ffffffffffffffffffffffffffffffffffffffff1614151561185a57600080fd5b81600f81905550600f549050919050565b6000600a80549050905090565b80611883338261442a565b151561188e57600080fd5b600073ffffffffffffffffffffffffffffffffffffffff168473ffffffffffffffffffffffffffffffffffffffff16141515156118ca57600080fd5b600073ffffffffffffffffffffffffffffffffffffffff168373ffffffffffffffffffffffffffffffffffffffff161415151561190657600080fd5b61191084836144bf565b61191a8483614628565b6119248383614840565b8273ffffffffffffffffffffffffffffffffffffffff168473ffffffffffffffffffffffffffffffffffffffff167fddf252ad1be2c89b69c2b068fc378daa952ba7f163c4a11628f55a4df523b3ef846040518082815260200191505060405180910390a350505050565b60108181548110151561199e57fe5b90600052602060002090600302016000915090508060000160009054906101000a900467ffffffffffffffff1690806001018054600181600116156101000203166002900480601f016020809104026020016040519081016040528092919081815260200182805460018160011615610100020316600290048015611a645780601f10611a3957610100808354040283529160200191611a64565b820191906000526020600020905b815481529060010190602001808311611a4757829003601f168201915b5050505050908060020160009054906101000a900461ffff16905083565b6000611a8d836125d0565b82101515611a9a57600080fd5b600860008473ffffffffffffffffffffffffffffffffffffffff1673ffffffffffffffffffffffffffffffffffffffff16815260200190815260200160002082815481101515611ae657fe5b9060005260206000200154905092915050565b600f5481565b6000808210158015611b15575060118054905082105b15611b235760019050611b28565b600090505b919050565b600160009054906101000a900473ffffffffffffffffffffffffffffffffffffffff1673ffffffffffffffffffffffffffffffffffffffff163373ffffffffffffffffffffffffffffffffffffffff16141515611b8957600080fd5b3373ffffffffffffffffffffffffffffffffffffffff166108fc3073ffffffffffffffffffffffffffffffffffffffff16319081150290604051600060405180830381858888f19350505050158015611be6573d6000803e3d6000fd5b50565b600160009054906101000a900473ffffffffffffffffffffffffffffffffffffffff1673ffffffffffffffffffffffffffffffffffffffff163373ffffffffffffffffffffffffffffffffffffffff16141515611c4557600080fd5b600d60009054906101000a900460ff161515611c6057600080fd5b6000600d60006101000a81548160ff0219169083151502179055507f7805862f689e2f13df9f062ff482ad3ad112aca9e0847911ed832e158c525b3360405160405180910390a1565b600160009054906101000a900473ffffffffffffffffffffffffffffffffffffffff1673ffffffffffffffffffffffffffffffffffffffff163373ffffffffffffffffffffffffffffffffffffffff16141515611d0557600080fd5b611d0f8282614917565b5050565b80611d1e338261442a565b1515611d2957600080fd5b611d458484846020604051908101604052806000815250613511565b50505050565b600e8054600181600116156101000203166002900480601f016020809104026020016040519081016040528092919081815260200182805460018160011615610100020316600290048015611de15780601f10611db657610100808354040283529160200191611de1565b820191906000526020600020905b815481529060010190602001808311611dc457829003601f168201915b505050505081565b6000808261ffff1610158015611e0757506010805490508261ffff16105b15611e155760019050611e1a565b600090505b919050565b6000601080549050905090565b6040805190810160405280600b81526020017f455243373231546f6b656e0000000000000000000000000000000000000000008152506040805190810160405280600581526020017f312e392e30000000000000000000000000000000000000000000000000000000815250611ed7826040805190810160405280600b81526020017f696e697469616c697a656400000000000000000000000000000000000000000081525061496e565b611ee1828261496e565b8360069080519060200190611ef7929190615ca2565b508260079080519060200190611f0e929190615ca2565b507fdd117a11c22118c9dee4b5a67ce578bc44529dce21ee0ccc439588fbb9fb4ea38282604051808060200180602001838103835285818151815260200191508051906020019080838360005b83811015611f76578082015181840152602081019050611f5b565b50505050905090810190601f168015611fa35780820380516001836020036101000a031916815260200191505b50838103825284818151815260200191508051906020019080838360005b83811015611fdc578082015181840152602081019050611fc1565b50505050905090810190601f1680156120095780820380516001836020036101000a031916815260200191505b5094505050505060405180910390a160016000836040518082805190602001908083835b602083101515612052578051825260208201915060208101905060208303925061202d565b6001836020036101000a0380198251168184511680821785525050505050509050019150509081526020016040518091039020826040518082805190602001908083835b6020831015156120bb5780518252602082019150602081019050602083039250612096565b6001836020036101000a038019825116818451168082178552505050505050905001915050908152602001604051809103902060006101000a81548160ff02191690831515021790555060016000836040518082805190602001908083835b60208310151561213f578051825260208201915060208101905060208303925061211a565b6001836020036101000a03801982511681845116808217855250505050505090500191505090815260200160405180910390206040805190810160405280600b81526020017f696e697469616c697a65640000000000000000000000000000000000000000008152506040518082805190602001908083835b6020831015156121dd57805182526020820191506020810190506020830392506121b8565b6001836020036101000a038019825116818451168082178552505050505050905001915050908152602001604051809103902060006101000a81548160ff02191690831515021790555050505050565b6000806002600084815260200190815260200160002060009054906101000a900473ffffffffffffffffffffffffffffffffffffffff169050600073ffffffffffffffffffffffffffffffffffffffff168173ffffffffffffffffffffffffffffffffffffffff161415915050919050565b60006122a961186b565b821015156122b657600080fd5b600a828154811015156122c557fe5b90600052602060002001549050919050565b60606000806000806122e7615d22565b6122f087611de9565b15156122fb57600080fd5b60108761ffff1681548110151561230e57fe5b9060005260206000209060030201606060405190810160405290816000820160009054906101000a900467ffffffffffffffff1667ffffffffffffffff1667ffffffffffffffff168152602001600182018054600181600116156101000203166002900480601f0160208091040260200160405190810160405280929190818152602001828054600181600116156101000203166002900480156123f35780601f106123c8576101008083540402835291602001916123f3565b820191906000526020600020905b8154815290600101906020018083116123d657829003601f168201915b505050505081526020016002820160009054906101000a900461ffff1661ffff1661ffff1681525050905080602001518160400151601260008a61ffff1661ffff16815260200190815260200160002060009054906101000a900461ffff1661245b8a612654565b601460008c61ffff1661ffff16815260200190815260200160002060009054906101000a900461ffff16849450955095509550955095505091939590929450565b6000600160009054906101000a900473ffffffffffffffffffffffffffffffffffffffff1673ffffffffffffffffffffffffffffffffffffffff163373ffffffffffffffffffffffffffffffffffffffff161415156124fa57600080fd5b61253684848080601f01602080910402602001604051908101604052809392919081815260200183838082843782019150505050505083614a17565b90509392505050565b600d60009054906101000a900460ff1681565b6000806002600084815260200190815260200160002060009054906101000a900473ffffffffffffffffffffffffffffffffffffffff169050600073ffffffffffffffffffffffffffffffffffffffff168173ffffffffffffffffffffffffffffffffffffffff16141515156125c757600080fd5b80915050919050565b60008073ffffffffffffffffffffffffffffffffffffffff168273ffffffffffffffffffffffffffffffffffffffff161415151561260d57600080fd5b600460008373ffffffffffffffffffffffffffffffffffffffff1673ffffffffffffffffffffffffffffffffffffffff168152602001908152602001600020549050919050565b600061265e615d22565b600061266984611de9565b151561267457600080fd5b60108461ffff1681548110151561268757fe5b9060005260206000209060030201606060405190810160405290816000820160009054906101000a900467ffffffffffffffff1667ffffffffffffffff1667ffffffffffffffff168152602001600182018054600181600116156101000203166002900480601f01602080910402602001604051908101604052809291908181526020018280546001816001161561010002031660029004801561276c5780601f106127415761010080835404028352916020019161276c565b820191906000526020600020905b81548152906001019060200180831161274f57829003601f168201915b505050505081526020016002820160009054906101000a900461ffff1661ffff1661ffff16815250509150601260008561ffff1661ffff16815260200190815260200160002060009054906101000a900461ffff16826040015103905060056001601460008761ffff1661ffff16815260200190815260200160002060009054906101000a900461ffff16010261ffff168161ffff161015156128125760019250612817565b600092505b5050919050565b606060405190810160405280602a81526020017f687474702f2f6170692e63727970746f2d6261736562616c6c2d63617264732e81526020017f636f6d2f63617264732f0000000000000000000000000000000000000000000081525081565b6040805190810160405280600a81526020017f4d696772617461626c65000000000000000000000000000000000000000000008152506040805190810160405280600581526020017f312e322e31000000000000000000000000000000000000000000000000000000815250612929826040805190810160405280600b81526020017f696e697469616c697a656400000000000000000000000000000000000000000081525061496e565b612933828261496e565b7fdd117a11c22118c9dee4b5a67ce578bc44529dce21ee0ccc439588fbb9fb4ea38282604051808060200180602001838103835285818151815260200191508051906020019080838360005b8381101561299a57808201518184015260208101905061297f565b50505050905090810190601f1680156129c75780820380516001836020036101000a031916815260200191505b50838103825284818151815260200191508051906020019080838360005b83811015612a005780820151818401526020810190506129e5565b50505050905090810190601f168015612a2d5780820380516001836020036101000a031916815260200191505b5094505050505060405180910390a160016000836040518082805190602001908083835b602083101515612a765780518252602082019150602081019050602083039250612a51565b6001836020036101000a0380198251168184511680821785525050505050509050019150509081526020016040518091039020826040518082805190602001908083835b602083101515612adf5780518252602082019150602081019050602083039250612aba565b6001836020036101000a038019825116818451168082178552505050505050905001915050908152602001604051809103902060006101000a81548160ff02191690831515021790555060016000836040518082805190602001908083835b602083101515612b635780518252602082019150602081019050602083039250612b3e565b6001836020036101000a03801982511681845116808217855250505050505090500191505090815260200160405180910390206040805190810160405280600b81526020017f696e697469616c697a65640000000000000000000000000000000000000000008152506040518082805190602001908083835b602083101515612c015780518252602082019150602081019050602083039250612bdc565b6001836020036101000a038019825116818451168082178552505050505050905001915050908152602001604051809103902060006101000a81548160ff0219169083151502179055505050565b6000601180549050905090565b600160009054906101000a900473ffffffffffffffffffffffffffffffffffffffff1673ffffffffffffffffffffffffffffffffffffffff163373ffffffffffffffffffffffffffffffffffffffff16141515612cb857600080fd5b600d60009054906101000a900460ff16151515612cd457600080fd5b6001600d60006101000a81548160ff0219169083151502179055507f6985a02210a168e66602d3235cb6db0e70f92b3ba4d376a33c0f3d9434bff62560405160405180910390a1565b600160009054906101000a900473ffffffffffffffffffffffffffffffffffffffff1681565b601181815481101515612d5257fe5b90600052602060002090600402016000915090508060000160009054906101000a900467ffffffffffffffff16908060010154908060020154908060030160009054906101000a900461ffff16908060030160029054906101000a900461ffff16905085565b6040805190810160405280600481526020017f43626263000000000000000000000000000000000000000000000000000000008152506040805190810160405280600581526020017f302e312e30000000000000000000000000000000000000000000000000000000815250612e63826040805190810160405280600b81526020017f696e697469616c697a656400000000000000000000000000000000000000000081525061496e565b612e6d828261496e565b606060405190810160405280602a81526020017f687474702f2f6170692e63727970746f2d6261736562616c6c2d63617264732e81526020017f636f6d2f63617264732f00000000000000000000000000000000000000000000815250600e9080519060200190612edf929190615ca2565b5066b1a2bc2ec50000600f81905550612ef785614bc0565b612f018484611e2c565b7fdd117a11c22118c9dee4b5a67ce578bc44529dce21ee0ccc439588fbb9fb4ea38282604051808060200180602001838103835285818151815260200191508051906020019080838360005b83811015612f68578082015181840152602081019050612f4d565b50505050905090810190601f168015612f955780820380516001836020036101000a031916815260200191505b50838103825284818151815260200191508051906020019080838360005b83811015612fce578082015181840152602081019050612fb3565b50505050905090810190601f168015612ffb5780820380516001836020036101000a031916815260200191505b5094505050505060405180910390a160016000836040518082805190602001908083835b602083101515613044578051825260208201915060208101905060208303925061301f565b6001836020036101000a0380198251168184511680821785525050505050509050019150509081526020016040518091039020826040518082805190602001908083835b6020831015156130ad5780518252602082019150602081019050602083039250613088565b6001836020036101000a038019825116818451168082178552505050505050905001915050908152602001604051809103902060006101000a81548160ff02191690831515021790555060016000836040518082805190602001908083835b602083101515613131578051825260208201915060208101905060208303925061310c565b6001836020036101000a03801982511681845116808217855250505050505090500191505090815260200160405180910390206040805190810160405280600b81526020017f696e697469616c697a65640000000000000000000000000000000000000000008152506040518082805190602001908083835b6020831015156131cf57805182526020820191506020810190506020830392506131aa565b6001836020036101000a038019825116818451168082178552505050505050905001915050908152602001604051809103902060006101000a81548160ff0219169083151502179055505050505050565b606060078054600181600116156101000203166002900480601f0160208091040260200160405190810160405280929190818152602001828054600181600116156101000203166002900480156132b85780601f1061328d576101008083540402835291602001916132b8565b820191906000526020600020905b81548152906001019060200180831161329b57829003601f168201915b5050505050905090565b3373ffffffffffffffffffffffffffffffffffffffff168273ffffffffffffffffffffffffffffffffffffffff16141515156132fd57600080fd5b80600560003373ffffffffffffffffffffffffffffffffffffffff1673ffffffffffffffffffffffffffffffffffffffff16815260200190815260200160002060008473ffffffffffffffffffffffffffffffffffffffff1673ffffffffffffffffffffffffffffffffffffffff16815260200190815260200160002060006101000a81548160ff0219169083151502179055508173ffffffffffffffffffffffffffffffffffffffff163373ffffffffffffffffffffffffffffffffffffffff167f17307eab39ab6107e8899845ad3d59bd9653f200f220920489ca2b5937696c3183604051808215151515815260200191505060405180910390a35050565b6060600160009054906101000a900473ffffffffffffffffffffffffffffffffffffffff1673ffffffffffffffffffffffffffffffffffffffff163373ffffffffffffffffffffffffffffffffffffffff1614151561345c57600080fd5b8282600e919061346d929190615d52565b50600e8054600181600116156101000203166002900480601f0160208091040260200160405190810160405280929190818152602001828054600181600116156101000203166002900480156135045780601f106134d957610100808354040283529160200191613504565b820191906000526020600020905b8154815290600101906020018083116134e757829003601f168201915b5050505050905092915050565b8161351c338261442a565b151561352757600080fd5b613532858585611878565b61353e85858585614fd3565b151561354957600080fd5b5050505050565b600080836040518082805190602001908083835b6020831015156135895780518252602082019150602081019050602083039250613564565b6001836020036101000a0380198251168184511680821785525050505050509050019150509081526020016040518091039020826040518082805190602001908083835b6020831015156135f257805182526020820191506020810190506020830392506135cd565b6001836020036101000a038019825116818451168082178552505050505050905001915050908152602001604051809103902060009054906101000a900460ff16905092915050565b6040805190810160405280600881526020017f5061757361626c650000000000000000000000000000000000000000000000008152506040805190810160405280600581526020017f312e392e300000000000000000000000000000000000000000000000000000008152506136e6826040805190810160405280600b81526020017f696e697469616c697a656400000000000000000000000000000000000000000081525061496e565b6136f0828261496e565b6136f983614bc0565b7fdd117a11c22118c9dee4b5a67ce578bc44529dce21ee0ccc439588fbb9fb4ea38282604051808060200180602001838103835285818151815260200191508051906020019080838360005b83811015613760578082015181840152602081019050613745565b50505050905090810190601f16801561378d5780820380516001836020036101000a031916815260200191505b50838103825284818151815260200191508051906020019080838360005b838110156137c65780820151818401526020810190506137ab565b50505050905090810190601f1680156137f35780820380516001836020036101000a031916815260200191505b5094505050505060405180910390a160016000836040518082805190602001908083835b60208310151561383c5780518252602082019150602081019050602083039250613817565b6001836020036101000a0380198251168184511680821785525050505050509050019150509081526020016040518091039020826040518082805190602001908083835b6020831015156138a55780518252602082019150602081019050602083039250613880565b6001836020036101000a038019825116818451168082178552505050505050905001915050908152602001604051809103902060006101000a81548160ff02191690831515021790555060016000836040518082805190602001908083835b6020831015156139295780518252602082019150602081019050602083039250613904565b6001836020036101000a03801982511681845116808217855250505050505090500191505090815260200160405180910390206040805190810160405280600b81526020017f696e697469616c697a65640000000000000000000000000000000000000000008152506040518082805190602001908083835b6020831015156139c757805182526020820191506020810190506020830392506139a2565b6001836020036101000a038019825116818451168082178552505050505050905001915050908152602001604051809103902060006101000a81548160ff021916908315150217905550505050565b600080600160009054906101000a900473ffffffffffffffffffffffffffffffffffffffff1673ffffffffffffffffffffffffffffffffffffffff163373ffffffffffffffffffffffffffffffffffffffff16141515613a7557600080fd5b613a7f84846151c1565b90508273ffffffffffffffffffffffffffffffffffffffff167fbcce8f9c4a058f3baa7ec42af4f589ef030d243c2549675f3ffa9f4f1b80052b85604051808261ffff1661ffff16815260200191505060405180910390a28091505092915050565b606080613aed83611aff565b1515613af857600080fd5b613b01836153bc565b9050613ba7600e8054600181600116156101000203166002900480601f016020809104026020016040519081016040528092919081815260200182805460018160011615610100020316600290048015613b9c5780601f10613b7157610100808354040283529160200191613b9c565b820191906000526020600020905b815481529060010190602001808311613b7f57829003601f168201915b505050505082615513565b915050919050565b613bb7615dd2565b613bbf615d22565b613bc7615dd2565b6000600160009054906101000a900473ffffffffffffffffffffffffffffffffffffffff1673ffffffffffffffffffffffffffffffffffffffff163373ffffffffffffffffffffffffffffffffffffffff16141515613c2557600080fd5b613c2e86611de9565b1515613c3957600080fd5b60108661ffff16815481101515613c4c57fe5b9060005260206000209060030201606060405190810160405290816000820160009054906101000a900467ffffffffffffffff1667ffffffffffffffff1667ffffffffffffffff168152602001600182018054600181600116156101000203166002900480601f016020809104026020016040519081016040528092919081815260200182805460018160011615610100020316600290048015613d315780601f10613d0657610100808354040283529160200191613d31565b820191906000526020600020905b815481529060010190602001808311613d1457829003601f168201915b505050505081526020016002820160009054906101000a900461ffff1661ffff1661ffff168152505092506005601260008861ffff1661ffff16815260200190815260200160002060009054906101000a900461ffff160161ffff16836040015161ffff1610151515613da057fe5b6001601460008861ffff1661ffff16815260200190815260200160002060009054906101000a900461ffff1661ffff1610151515613dda57fe5b6001601560008773ffffffffffffffffffffffffffffffffffffffff1673ffffffffffffffffffffffffffffffffffffffff16815260200190815260200160002060008861ffff1661ffff16815260200190815260200160002060009054906101000a900461ffff1661ffff1610151515613e5157fe5b6005601260008861ffff1661ffff16815260200190815260200160002060008282829054906101000a900461ffff160192506101000a81548161ffff021916908361ffff1602179055506001601460008861ffff1661ffff16815260200190815260200160002060008282829054906101000a900461ffff160392506101000a81548161ffff021916908361ffff1602179055506001601560008773ffffffffffffffffffffffffffffffffffffffff1673ffffffffffffffffffffffffffffffffffffffff16815260200190815260200160002060008861ffff1661ffff16815260200190815260200160002060008282829054906101000a900461ffff160392506101000a81548161ffff021916908361ffff160217905550600090505b6005811015613fd457613fb28882600581101515613f8b57fe5b6020020135600019168883600581101515613fa257fe5b60200201356000191688886156e4565b8282600581101515613fc057fe5b602002018181525050806001019050613f71565b8473ffffffffffffffffffffffffffffffffffffffff167fed6fac1d8fd17dc518d26d84a2df2db1b63719c50ab63f06416fbfffb0443be287604051808261ffff1661ffff16815260200191505060405180910390a2819350505050949350505050565b6000600560008473ffffffffffffffffffffffffffffffffffffffff1673ffffffffffffffffffffffffffffffffffffffff16815260200190815260200160002060008373ffffffffffffffffffffffffffffffffffffffff1673ffffffffffffffffffffffffffffffffffffffff16815260200190815260200160002060009054906101000a900460ff16905092915050565b600080600f54341115156140df57600080fd5b6140e983336151c1565b90503373ffffffffffffffffffffffffffffffffffffffff167fd6887919f2213e0957dd21d8da4ab9c6fc2c342827c421d89bd1f95c7b37601e8434604051808361ffff1661ffff1681526020018281526020019250505060405180910390a280915050919050565b66b1a2bc2ec5000081565b600160009054906101000a900473ffffffffffffffffffffffffffffffffffffffff1673ffffffffffffffffffffffffffffffffffffffff163373ffffffffffffffffffffffffffffffffffffffff161415156141b957600080fd5b600073ffffffffffffffffffffffffffffffffffffffff168173ffffffffffffffffffffffffffffffffffffffff16141515156141f557600080fd5b8073ffffffffffffffffffffffffffffffffffffffff16600160009054906101000a900473ffffffffffffffffffffffffffffffffffffffff1673ffffffffffffffffffffffffffffffffffffffff167f8be0079c531659141344cd1fd0a4f28419497f9722a3daafe3b4186f6b6457e060405160405180910390a380600160006101000a81548173ffffffffffffffffffffffffffffffffffffffff021916908373ffffffffffffffffffffffffffffffffffffffff16021790555050565b60008060008060006142c5615df5565b6142ce87611aff565b15156142d957600080fd5b6011878154811015156142e857fe5b906000526020600020906004020160a060405190810160405290816000820160009054906101000a900467ffffffffffffffff1667ffffffffffffffff1667ffffffffffffffff1681526020016001820154600019166000191681526020016002820154600019166000191681526020016003820160009054906101000a900461ffff1661ffff1661ffff1681526020016003820160029054906101000a900461ffff1661ffff1661ffff1681525050905080602001518160400151826060015183608001516013600086602001516000191660001916815260200190815260200160002060008660400151600019166000191681526020019081526020016000206000866060015161ffff1661ffff16815260200190815260200160002060009054906101000a900461ffff16955095509550955095505091939590929450565b60008061443683612552565b90508073ffffffffffffffffffffffffffffffffffffffff168473ffffffffffffffffffffffffffffffffffffffff1614806144a557508373ffffffffffffffffffffffffffffffffffffffff1661448d846115f9565b73ffffffffffffffffffffffffffffffffffffffff16145b806144b657506144b58185614038565b5b91505092915050565b8173ffffffffffffffffffffffffffffffffffffffff166144df82612552565b73ffffffffffffffffffffffffffffffffffffffff1614151561450157600080fd5b600073ffffffffffffffffffffffffffffffffffffffff166003600083815260200190815260200160002060009054906101000a900473ffffffffffffffffffffffffffffffffffffffff1673ffffffffffffffffffffffffffffffffffffffff161415156146245760006003600083815260200190815260200160002060006101000a81548173ffffffffffffffffffffffffffffffffffffffff021916908373ffffffffffffffffffffffffffffffffffffffff160217905550600073ffffffffffffffffffffffffffffffffffffffff168273ffffffffffffffffffffffffffffffffffffffff167f8c5be1e5ebec7d5bd14f71427d1e84f3dd0314c0f7b2291e5b200ac8c7c3b925836040518082815260200191505060405180910390a35b5050565b60008060006146378585615921565b600960008581526020019081526020016000205492506146a36001600860008873ffffffffffffffffffffffffffffffffffffffff1673ffffffffffffffffffffffffffffffffffffffff16815260200190815260200160002080549050615a5090919063ffffffff16565b9150600860008673ffffffffffffffffffffffffffffffffffffffff1673ffffffffffffffffffffffffffffffffffffffff168152602001908152602001600020828154811015156146f157fe5b9060005260206000200154905080600860008773ffffffffffffffffffffffffffffffffffffffff1673ffffffffffffffffffffffffffffffffffffffff1681526020019081526020016000208481548110151561474b57fe5b90600052602060002001819055506000600860008773ffffffffffffffffffffffffffffffffffffffff1673ffffffffffffffffffffffffffffffffffffffff168152602001908152602001600020838154811015156147a757fe5b9060005260206000200181905550600860008673ffffffffffffffffffffffffffffffffffffffff1673ffffffffffffffffffffffffffffffffffffffff1681526020019081526020016000208054809190600190036148079190615e3d565b50600060096000868152602001908152602001600020819055508260096000838152602001908152602001600020819055505050505050565b600061484c8383615a69565b600860008473ffffffffffffffffffffffffffffffffffffffff1673ffffffffffffffffffffffffffffffffffffffff168152602001908152602001600020805490509050600860008473ffffffffffffffffffffffffffffffffffffffff1673ffffffffffffffffffffffffffffffffffffffff168152602001908152602001600020829080600181540180825580915050906001820390600052602060002001600090919290919091505550806009600084815260200190815260200160002081905550505050565b6149218282615bc3565b600a80549050600b600083815260200190815260200160002081905550600a8190806001815401808255809150509060018203906000526020600020016000909192909190915055505050565b6149788282613550565b151515614a13576040517f08c379a00000000000000000000000000000000000000000000000000000000081526004018080602001828103825260328152602001807f52657175657374656420746172676574206d6967726174696f6e20494420686181526020017f7320616c7265616479206265656e2072756e000000000000000000000000000081525060400191505060405180910390fd5b5050565b6000614a21615d22565b60006060604051908101604052804267ffffffffffffffff1681526020018681526020016005860261ffff16815250915060016010839080600181540180825580915050906001820390600052602060002090600302016000909192909190915060008201518160000160006101000a81548167ffffffffffffffff021916908367ffffffffffffffff1602179055506020820151816001019080519060200190614acd929190615e69565b5060408201518160020160006101000a81548161ffff021916908361ffff16021790555050500390507f30e01586591a4d29cd93e7fb9dda476dbf87caa6bb806215df6b7f06c83b0110818660058702604051808461ffff1661ffff168152602001806020018361ffff1661ffff168152602001828103825284818151815260200191508051906020019080838360005b83811015614b79578082015181840152602081019050614b5e565b50505050905090810190601f168015614ba65780820380516001836020036101000a031916815260200191505b5094505050505060405180910390a1809250505092915050565b6040805190810160405280600781526020017f4f776e61626c65000000000000000000000000000000000000000000000000008152506040805190810160405280600581526020017f312e392e30000000000000000000000000000000000000000000000000000000815250614c6b826040805190810160405280600b81526020017f696e697469616c697a656400000000000000000000000000000000000000000081525061496e565b614c75828261496e565b82600160006101000a81548173ffffffffffffffffffffffffffffffffffffffff021916908373ffffffffffffffffffffffffffffffffffffffff1602179055507fdd117a11c22118c9dee4b5a67ce578bc44529dce21ee0ccc439588fbb9fb4ea38282604051808060200180602001838103835285818151815260200191508051906020019080838360005b83811015614d1d578082015181840152602081019050614d02565b50505050905090810190601f168015614d4a5780820380516001836020036101000a031916815260200191505b50838103825284818151815260200191508051906020019080838360005b83811015614d83578082015181840152602081019050614d68565b50505050905090810190601f168015614db05780820380516001836020036101000a031916815260200191505b5094505050505060405180910390a160016000836040518082805190602001908083835b602083101515614df95780518252602082019150602081019050602083039250614dd4565b6001836020036101000a0380198251168184511680821785525050505050509050019150509081526020016040518091039020826040518082805190602001908083835b602083101515614e625780518252602082019150602081019050602083039250614e3d565b6001836020036101000a038019825116818451168082178552505050505050905001915050908152602001604051809103902060006101000a81548160ff02191690831515021790555060016000836040518082805190602001908083835b602083101515614ee65780518252602082019150602081019050602083039250614ec1565b6001836020036101000a03801982511681845116808217855250505050505090500191505090815260200160405180910390206040805190810160405280600b81526020017f696e697469616c697a65640000000000000000000000000000000000000000008152506040518082805190602001908083835b602083101515614f845780518252602082019150602081019050602083039250614f5f565b6001836020036101000a038019825116818451168082178552505050505050905001915050908152602001604051809103902060006101000a81548160ff021916908315150217905550505050565b600080614ff58573ffffffffffffffffffffffffffffffffffffffff16615c73565b151561500457600191506151b8565b8473ffffffffffffffffffffffffffffffffffffffff1663f0b9e5ba8786866040518463ffffffff167c0100000000000000000000000000000000000000000000000000000000028152600401808473ffffffffffffffffffffffffffffffffffffffff1673ffffffffffffffffffffffffffffffffffffffff16815260200183815260200180602001828103825283818151815260200191508051906020019080838360005b838110156150c65780820151818401526020810190506150ab565b50505050905090810190601f1680156150f35780820380516001836020036101000a031916815260200191505b50945050505050602060405180830381600087803b15801561511457600080fd5b505af1158015615128573d6000803e3d6000fd5b505050506040513d602081101561513e57600080fd5b8101908080519060200190929190505050905063f0b9e5ba7c0100000000000000000000000000000000000000000000000000000000027bffffffffffffffffffffffffffffffffffffffffffffffffffffffff1916817bffffffffffffffffffffffffffffffffffffffffffffffffffffffff19161491505b50949350505050565b60003073ffffffffffffffffffffffffffffffffffffffff168273ffffffffffffffffffffffffffffffffffffffff16141515156151fe57600080fd5b61520783611de9565b151561521257600080fd5b61521b83612654565b151561522657600080fd5b6001601460008561ffff1661ffff16815260200190815260200160002060008282829054906101000a900461ffff160192506101000a81548161ffff021916908361ffff1602179055506001601560008473ffffffffffffffffffffffffffffffffffffffff1673ffffffffffffffffffffffffffffffffffffffff16815260200190815260200160002060008561ffff1661ffff16815260200190815260200160002060008282829054906101000a900461ffff160192506101000a81548161ffff021916908361ffff1602179055508173ffffffffffffffffffffffffffffffffffffffff167fa638ba064ec7186b82dfb944f4ddbeb799c242dc6dccd0c1428a9a06a00e9fc584604051808261ffff1661ffff16815260200191505060405180910390a2601560008373ffffffffffffffffffffffffffffffffffffffff1673ffffffffffffffffffffffffffffffffffffffff16815260200190815260200160002060008461ffff1661ffff16815260200190815260200160002060009054906101000a900461ffff16905092915050565b6060600080606060008086141561540a576040805190810160405280600181526020017f3000000000000000000000000000000000000000000000000000000000000000815250945061550a565b8593505b600084141515615434578280600101935050600a8481151561542c57fe5b04935061540e565b826040519080825280601f01601f1916602001820160405280156154675781602001602082028038833980820191505090505b5091506001830390505b60008614151561550657600a8681151561548757fe5b066030017f0100000000000000000000000000000000000000000000000000000000000000028282806001900393508151811015156154c257fe5b9060200101907effffffffffffffffffffffffffffffffffffffffffffffffffffffffffffff1916908160001a905350600a868115156154fe57fe5b049550615471565b8194505b50505050919050565b606080606080606060008088955087945084518651016040519080825280601f01601f19166020018201604052801561555b5781602001602082028038833980820191505090505b50935083925060009150600090505b855181101561561d57858181518110151561558157fe5b9060200101517f010000000000000000000000000000000000000000000000000000000000000090047f01000000000000000000000000000000000000000000000000000000000000000283838060010194508151811015156155e057fe5b9060200101907effffffffffffffffffffffffffffffffffffffffffffffffffffffffffffff1916908160001a905350808060010191505061556a565b600090505b84518110156156d557848181518110151561563957fe5b9060200101517f010000000000000000000000000000000000000000000000000000000000000090047f010000000000000000000000000000000000000000000000000000000000000002838380600101945081518110151561569857fe5b9060200101907effffffffffffffffffffffffffffffffffffffffffffffffffffffffffffff1916908160001a9053508080600101915050615622565b82965050505050505092915050565b6000806156ef615df5565b60006013600089600019166000191681526020019081526020016000206000886000191660001916815260200190815260200160002060008761ffff1661ffff168152602001908152602001600020600081819054906101000a900461ffff1660010191906101000a81548161ffff021916908361ffff1602179055925060a0604051908101604052804267ffffffffffffffff16815260200189600019168152602001886000191681526020018761ffff1681526020018461ffff16815250915060016011839080600181540180825580915050906001820390600052602060002090600402016000909192909190915060008201518160000160006101000a81548167ffffffffffffffff021916908367ffffffffffffffff160217905550602082015181600101906000191690556040820151816002019060001916905560608201518160030160006101000a81548161ffff021916908361ffff16021790555060808201518160030160026101000a81548161ffff021916908361ffff16021790555050500390508473ffffffffffffffffffffffffffffffffffffffff167f4877c0c33183683110f068c1240f2e2bcf9bf5a51db34abc6dd5521bcd25efc1898989878660405180866000191660001916815260200185600019166000191681526020018461ffff1661ffff1681526020018361ffff1661ffff1681526020018281526020019550505050505060405180910390a26159138582614917565b809350505050949350505050565b8173ffffffffffffffffffffffffffffffffffffffff1661594182612552565b73ffffffffffffffffffffffffffffffffffffffff1614151561596357600080fd5b6159b66001600460008573ffffffffffffffffffffffffffffffffffffffff1673ffffffffffffffffffffffffffffffffffffffff16815260200190815260200160002054615a5090919063ffffffff16565b600460008473ffffffffffffffffffffffffffffffffffffffff1673ffffffffffffffffffffffffffffffffffffffff1681526020019081526020016000208190555060006002600083815260200190815260200160002060006101000a81548173ffffffffffffffffffffffffffffffffffffffff021916908373ffffffffffffffffffffffffffffffffffffffff1602179055505050565b6000828211151515615a5e57fe5b818303905092915050565b600073ffffffffffffffffffffffffffffffffffffffff166002600083815260200190815260200160002060009054906101000a900473ffffffffffffffffffffffffffffffffffffffff1673ffffffffffffffffffffffffffffffffffffffff16141515615ad757600080fd5b816002600083815260200190815260200160002060006101000a81548173ffffffffffffffffffffffffffffffffffffffff021916908373ffffffffffffffffffffffffffffffffffffffff160217905550615b7c6001600460008573ffffffffffffffffffffffffffffffffffffffff1673ffffffffffffffffffffffffffffffffffffffff16815260200190815260200160002054615c8690919063ffffffff16565b600460008473ffffffffffffffffffffffffffffffffffffffff1673ffffffffffffffffffffffffffffffffffffffff168152602001908152602001600020819055505050565b600073ffffffffffffffffffffffffffffffffffffffff168273ffffffffffffffffffffffffffffffffffffffff1614151515615bff57600080fd5b615c098282614840565b8173ffffffffffffffffffffffffffffffffffffffff16600073ffffffffffffffffffffffffffffffffffffffff167fddf252ad1be2c89b69c2b068fc378daa952ba7f163c4a11628f55a4df523b3ef836040518082815260200191505060405180910390a35050565b600080823b905060008111915050919050565b60008183019050828110151515615c9957fe5b80905092915050565b828054600181600116156101000203166002900490600052602060002090601f016020900481019282601f10615ce357805160ff1916838001178555615d11565b82800160010185558215615d11579182015b82811115615d10578251825591602001919060010190615cf5565b5b509050615d1e9190615ee9565b5090565b606060405190810160405280600067ffffffffffffffff16815260200160608152602001600061ffff1681525090565b828054600181600116156101000203166002900490600052602060002090601f016020900481019282601f10615d9357803560ff1916838001178555615dc1565b82800160010185558215615dc1579182015b82811115615dc0578235825591602001919060010190615da5565b5b509050615dce9190615ee9565b5090565b60a060405190810160405280600590602082028038833980820191505090505090565b60a060405190810160405280600067ffffffffffffffff1681526020016000801916815260200160008019168152602001600061ffff168152602001600061ffff1681525090565b815481835581811115615e6457818360005260206000209182019101615e639190615ee9565b5b505050565b828054600181600116156101000203166002900490600052602060002090601f016020900481019282601f10615eaa57805160ff1916838001178555615ed8565b82800160010185558215615ed8579182015b82811115615ed7578251825591602001919060010190615ebc565b5b509050615ee59190615ee9565b5090565b615f0b91905b80821115615f07576000816000905550600101615eef565b5090565b905600a165627a7a723058203435000fed8ac0c85dbca7a5e22d3c8c1a3933e364055b6517f0bf51f048fd050029",
  "source": "pragma solidity ^0.4.21;\nimport \"openzeppelin-zos/contracts/token/ERC721/MintableERC721Token.sol\";\nimport \"openzeppelin-zos/contracts/lifecycle/Pausable.sol\";\n\n/**\n * @title CBBC (Crypto Baseball Cards)\n */\ncontract Cbbc is MintableERC721Token, Pausable {\n\n  /// @dev Emit this event whenever we set a new API Base URL (see setApiBaseUri below)\n  event ApiBaseUriSet(string _api_base_url);\n  /// @dev Emit this event whenever we mint a new edition (see mintEdition below)\n  event EditionMinted(uint16 _newEditionId, string _name, uint16 _numCards);\n  /// @dev Emit this event whenever we sell a new 5 pack of cards via ETH (see buyFivePackUsingEth below)\n  event FivePackBoughtUsingEth(uint16 _editionId, address indexed _owner, uint256 _packPricePaid);\n  /// @dev Emit this event whenever we sell a new 5 pack of cards via Fiat/Credit Card etc (see buyFivePackUsingFiatFor below)\n  event FivePackBoughtUsingFiatFor(uint16 _editionId, address indexed _owner);\n  /// @dev Emit this event whenever we sell a new 5 pack of cards (see buyFivePackFor below)\n  event FivePackBoughtFor(uint16 _editionId, address indexed _owner);\n  /// @dev Emit this event whenever we mint a new 5 pack of cards (see mintFivePack below)\n  event FivePackMinted(uint16 _editionId, address indexed _owner);\n  /// @dev Emit this event whenever we mint a new card (see _mintCard below)\n  event CardMinted(bytes32 _playerBbrefId, bytes32 _cardType, uint16 _editionId, uint16 _seriesNumber, uint256 _cardId, address indexed _owner);\n  /// @dev Emit this event whenever the contract fallback function is called\n  event FallBackPaid(address indexed _sender, uint256 _value);\n\n  /// @dev The struct representing the Crypto Baseball edition.\n  struct Edition {\n    // The timestamp at which this card was minted.\n    uint64 mintTime;\n    // The name of the Edition\n    string name;\n    // The number of cards in the Edition\n    uint16 numCards;\n  }\n\n  /// @dev The struct representing the Crypto Baseball card.\n  struct Card {\n    // The timestamp at which this card was minted.\n    uint64 mintTime;\n    // The BBREF ID of the player represented by the card\n    bytes32 playerBbrefId;\n    // The type of card, ie \"player\", \"pitcher\", \"manager\"\n    bytes32 cardType;\n    // The CBBC Edition ID that the card belongs to\n    uint16 editionId;\n    // Cards for a given player and edition have a series number, which gets\n    // incremented in sequence. If we mint 100 cards of a given player in an edition,\n    // the 21st one to be minted has serialNumber = 21 of 100.\n    uint16 seriesNumber;\n  }\n\n  /*** STORAGE ***/\n\n  // @dev The default API Base URI\n  string public constant API_BASE_URI = \"http//api.crypto-baseball-cards.com/cards/\";\n\n  // @dev The API Base URI\n  string public apiBaseUri;\n\n  // @dev The default Pack Price in Wei, we start with ~0.05ETH\n  uint256 public constant DEFAULT_PACK_PRICE = 50000000000000000;\n\n  // @dev The Pack Price in Wei\n  uint256 public packPrice;\n\n  /// @dev All the editions that have been minted, indexed by editionId.\n  Edition[] public editions;\n\n  /// @dev All the cards that have been minted, indexed by cardId.\n  Card[] public cards;\n\n  /// @dev Keeps track of how many cards we have minted for a given edition\n  mapping (uint16 => uint16) internal mintedCountForEditionId;\n\n  /// @dev Keeps track of how many cards we have minted for a given player, card type and edition\n  mapping (bytes32 => mapping (bytes32 => mapping (uint16 => uint16))) internal mintedCountForPlayerBbrefIdCardTypeAndEditionId;\n\n  /// @dev Keeps track of how many card five packs we have sold for a given edition that are yet to be minted\n  mapping (uint16 => uint16) internal soldUnmintedFivePackCountForEditionId;\n\n  // @dev Mapping from owner to number of card five packs sold, to be minted\n  mapping (address => mapping (uint16 => uint16)) internal soldUnmintedFivePackCountForOwnerAndEditionId;\n\n  /// @dev We initialize with the standard params.\n  /// @param _sender is the Contract owner.\n  /// @param _name is the CBBC ERC721 token name.\n  /// @param _symbol is the CBBC ERC721 token symbol.\n  function initialize(address _sender, string _name, string _symbol) isInitializer(\"Cbbc\", \"0.1.0\")  public {\n    apiBaseUri = API_BASE_URI;\n    packPrice = DEFAULT_PACK_PRICE;\n    Ownable.initialize(_sender);\n    ERC721Token.initialize(_name, _symbol);\n  }\n\n  /// @dev Allows the contract owner to set a new API Base URL.\n  /// @param _apiBaseUri the new API Base URL\n  function setApiBaseUri(\n    string _apiBaseUri\n  )\n  external onlyOwner\n  returns (string)\n  {\n    apiBaseUri = _apiBaseUri;\n    return apiBaseUri;\n  }\n\n  /// @dev Allows the contract owner to set a new pack price in wei.\n  /// @param _packPrice the new pack price\n  function setPackPrice(\n    uint256 _packPrice\n  )\n  external onlyOwner\n  returns (uint256)\n  {\n    packPrice = _packPrice;\n    return packPrice;\n  }\n\n  /// @dev Allows the contract owner to mint a new edition of cards.\n  /// @param _name the name of the edition\n  /// @param _numFivePacks the total number of card five packs in the edition\n  function mintEdition(\n    string _name,\n    uint16 _numFivePacks\n  )\n  external onlyOwner\n  returns (uint16)\n  {\n    return _mintEdition(_name, _numFivePacks);\n  }\n\n  /// @dev An internal method that creates a new card and stores it.\n  /// Emits an EditionMinted event.\n  /// @param _name the name of the edition\n  /// @param _numFivePacks the total number of card five packs in the edition\n  function _mintEdition(\n    string _name,\n    uint16 _numFivePacks\n  )\n  internal\n  returns (uint16)\n  {\n    Edition memory newEdition = Edition({\n      mintTime: uint64(now),\n      name: _name,\n      numCards: _numFivePacks*5\n    });\n    uint16 newEditionId = uint16(editions.push(newEdition) - 1);\n    emit EditionMinted(newEditionId, _name, _numFivePacks*5);\n    return newEditionId;\n  }\n\n  /// @dev Allows the contract owner to buy a five pack of cards on behalf of someone (for packs purchased not via ETH but using fiat, credit cards, etc).\n  /// @param _editionId is the CBBC edition ID for the 5 new cards.\n  /// @param _owner will be the pack's owner.\n  function buyFivePackUsingFiatFor(\n    uint16 _editionId,\n    address _owner\n  )\n  external onlyOwner\n  returns (uint16)\n  {\n    uint16 numFivePacksOwed = _buyFivePackFor(_editionId, _owner);\n    emit FivePackBoughtUsingFiatFor(_editionId, _owner);\n    return numFivePacksOwed;\n  }\n\n  /// @dev buyFivePack function, payable, requires amount paid to be more than packPrice.\n  /// @param _editionId is the CBBC edition ID for the 5 new cards.\n  function buyFivePackUsingEth(\n    uint16 _editionId\n  )\n  public payable\n  returns (uint16)\n  {\n    require(msg.value > packPrice);\n    uint16 numFivePacksOwed = _buyFivePackFor(_editionId, msg.sender);\n    emit FivePackBoughtUsingEth(_editionId, msg.sender, msg.value);\n    return numFivePacksOwed;\n  }\n\n  /// @dev Allows the contract owner to buy a five pack of cards on behalf of someone (for packs purchased not via ETH but using fiat, credit cards, etc).\n  /// @param _editionId is the CBBC edition ID for the 5 new cards.\n  /// @param _owner will be the pack's owner.\n  function _buyFivePackFor(\n    uint16 _editionId,\n    address _owner\n  )\n  internal\n  returns (uint16)\n  {\n    require(_owner != address(this));\n    require(checkEditionExists(_editionId));\n    require(enoughUnmintedCardsToSellFivePack(_editionId));\n    soldUnmintedFivePackCountForEditionId[_editionId] += 1;\n    soldUnmintedFivePackCountForOwnerAndEditionId[_owner][_editionId] += 1;\n    emit FivePackBoughtFor(_editionId, _owner);\n    return soldUnmintedFivePackCountForOwnerAndEditionId[_owner][_editionId];\n  }\n\n  /// @dev Allows the contract owner to mint a pack of 5 cards.\n  /// @param _playerBbrefIds are the player BBREF IDs for the 5 new card.\n  /// @param _cardTypes are the card types (\"player\", \"pitcher\", \"manager\") for the 5 new cards.\n  /// @param _editionId is the CBBC edition ID for the 5 new cards.\n  /// @param _owner is the pack's owner.\n  /// @return The 5 new card IDs.\n  function mintFivePack(\n    bytes32[5] _playerBbrefIds,\n    bytes32[5] _cardTypes,\n    uint16 _editionId,\n    address _owner\n  )\n  external onlyOwner\n  returns (uint256[5])\n  {\n    require(checkEditionExists(_editionId));\n    Edition memory edition = editions[_editionId];\n    assert(edition.numCards >= (mintedCountForEditionId[_editionId] + 5));\n    assert(soldUnmintedFivePackCountForEditionId[_editionId] >= 1);\n    assert(soldUnmintedFivePackCountForOwnerAndEditionId[_owner][_editionId] >= 1);\n    mintedCountForEditionId[_editionId] += 5;\n    soldUnmintedFivePackCountForEditionId[_editionId] -= 1;\n    soldUnmintedFivePackCountForOwnerAndEditionId[_owner][_editionId] -= 1;\n    uint256[5] memory cardIds;\n    for(uint i = 0; i < 5; ++i)\n    {\n      cardIds[i] = _mintCard(_playerBbrefIds[i], _cardTypes[i], _editionId, _owner);\n    }\n    emit FivePackMinted(_editionId, _owner);\n    return cardIds;\n  }\n\n  /// @dev An internal method that creates a new card and stores it.\n  ///  Emits both a CardMinted and a Transfer event.\n  /// @param _editionId The CBBC Edition ID that the card belongs to\n  /// @param _owner The card owner\n  function _mintCard(\n    bytes32 _playerBbrefId,\n    bytes32 _cardType,\n    uint16 _editionId,\n    address _owner\n  )\n    internal\n    returns (uint256)\n  {\n    uint16 seriesNumber = ++mintedCountForPlayerBbrefIdCardTypeAndEditionId[_playerBbrefId][_cardType][_editionId];\n    Card memory newCard = Card({\n      mintTime: uint64(now),\n      playerBbrefId: _playerBbrefId,\n      cardType: _cardType,\n      editionId: _editionId,\n      seriesNumber: seriesNumber\n    });\n    uint256 newCardId = cards.push(newCard) - 1;\n    emit CardMinted(_playerBbrefId, _cardType, _editionId, seriesNumber, newCardId, _owner);\n    _mint(_owner, newCardId);\n    return newCardId;\n  }\n\n  /// @dev Returns the API URL for a given token Id.\n  /// @param _tokenId The Token ID\n  function tokenURI(uint256 _tokenId) public view returns (string) {\n    require(checkCardExists(_tokenId));\n    string memory _id = uint2str(_tokenId);\n    return strConcat(apiBaseUri, _id);\n  }\n\n  /// @dev Returns true if the edition with ID _editionId exists.\n  /// @param _editionId The CBBC Edition ID to check\n  function checkEditionExists(uint16 _editionId) public view returns(bool){\n    if((_editionId >= 0) && (_editionId < editions.length)) {\n      return true;\n    } else {\n      return false;\n    }\n  }\n\n  /// @dev Returns the number of editions.\n  function numberOfEditions() public view returns(uint256){\n    return editions.length;\n  }\n\n  /// @dev Returns the edition name, number of cards, minted count of cards for the edition, and pack price for a given _editionId.\n  /// @param _editionId The CBBC Edition ID to check\n  function editionInfo(uint16 _editionId) public view returns (string, uint16, uint16, bool, uint16) {\n    require(checkEditionExists(_editionId));\n    Edition memory edition = editions[_editionId];\n    return (edition.name, edition.numCards, mintedCountForEditionId[_editionId], enoughUnmintedCardsToSellFivePack(_editionId), soldUnmintedFivePackCountForEditionId[_editionId]);\n  }\n\n  /// @dev Returns true if the card with ID _cardId exists.\n  /// @param _cardId The Card ID\n  function checkCardExists(uint256 _cardId) public view returns(bool){\n    if((_cardId >= 0) && (_cardId < cards.length)) {\n      return true;\n    } else {\n      return false;\n    }\n  }\n\n  /// @dev Returns the number of minted cards.\n  function numberOfCards() public view returns (uint256){\n    return cards.length;\n  }\n\n  /// @dev Returns the edition id, minted card count for the edition and tokenURI for a given card/token Id.\n  /// @param _cardId The Card ID\n  function cardInfo(uint256 _cardId) public view returns (bytes32, bytes32, uint16, uint16, uint16) {\n    require(checkCardExists(_cardId));\n    Card memory card = cards[_cardId];\n    return (card.playerBbrefId, card.cardType, card.editionId, card.seriesNumber, mintedCountForPlayerBbrefIdCardTypeAndEditionId[card.playerBbrefId][card.cardType][card.editionId]);\n  }\n\n  /// @dev Withdraw remaining contract balance to owner.\n  function withdraw() external onlyOwner {\n    msg.sender.transfer(address(this).balance);\n  }\n\n  /// @dev Returns true if the edition with ID _editionId exists.\n  /// @param _editionId The CBBC Edition ID to check\n  function enoughUnmintedCardsToSellFivePack(uint16 _editionId) public view returns(bool){\n    require(checkEditionExists(_editionId));\n    Edition memory edition = editions[_editionId];\n    uint16 _numUnmintedCardsInEdition = (edition.numCards - mintedCountForEditionId[_editionId]);\n    if (_numUnmintedCardsInEdition >= (soldUnmintedFivePackCountForEditionId[_editionId] + 1)*5 ) {\n      return true;\n    } else {\n      return false;\n    }\n  }\n\n  /// @dev Fallback function, require no data and just emit a FallBackPaid event.\n  function () public payable {\n    require(msg.data.length == 0);\n    emit FallBackPaid(msg.sender, msg.value);\n  }\n\n  // String helpers below were taken from Oraclize.\n  // https://github.com/oraclize/ethereum-api/blob/master/oraclizeAPI_0.4.sol\n  function strConcat(string _a, string _b) internal pure returns (string) {\n    bytes memory _ba = bytes(_a);\n    bytes memory _bb = bytes(_b);\n    string memory ab = new string(_ba.length + _bb.length);\n    bytes memory bab = bytes(ab);\n    uint k = 0;\n    for (uint i = 0; i < _ba.length; i++) bab[k++] = _ba[i];\n    for (i = 0; i < _bb.length; i++) bab[k++] = _bb[i];\n    return string(bab);\n  }\n\n  function uint2str(uint i) internal pure returns (string) {\n    if (i == 0) return \"0\";\n    uint j = i;\n    uint len;\n    while (j != 0) {\n      len++;\n      j /= 10;\n    }\n    bytes memory bstr = new bytes(len);\n    uint k = len - 1;\n    while (i != 0) {\n      bstr[k--] = byte(48 + i % 10);\n      i /= 10;\n    }\n    return string(bstr);\n  }\n\n}\n",
  "sourcePath": "/Users/ramie/cbbc_smart_contracts/cbbc-zos/contracts/Cbbc.sol",
  "compiler": {
    "name": "solc",
    "version": "0.4.24+commit.e67f0147.Emscripten.clang"
  },
  "schemaVersion": "2.0.1",
  "updatedAt": "2018-11-07T20:16:30.505Z"
}