{
  "contractName": "Cbbc",
  "abi": [
    {
      "constant": true,
      "inputs": [],
      "name": "name",
      "outputs": [
        {
          "name": "",
          "type": "string"
        }
      ],
      "payable": false,
      "stateMutability": "view",
      "type": "function"
    },
    {
      "constant": true,
      "inputs": [
        {
          "name": "_tokenId",
          "type": "uint256"
        }
      ],
      "name": "getApproved",
      "outputs": [
        {
          "name": "",
          "type": "address"
        }
      ],
      "payable": false,
      "stateMutability": "view",
      "type": "function"
    },
    {
      "constant": false,
      "inputs": [
        {
          "name": "_to",
          "type": "address"
        },
        {
          "name": "_tokenId",
          "type": "uint256"
        }
      ],
      "name": "approve",
      "outputs": [],
      "payable": false,
      "stateMutability": "nonpayable",
      "type": "function"
    },
    {
      "constant": true,
      "inputs": [],
      "name": "totalSupply",
      "outputs": [
        {
          "name": "",
          "type": "uint256"
        }
      ],
      "payable": false,
      "stateMutability": "view",
      "type": "function"
    },
    {
      "constant": false,
      "inputs": [
        {
          "name": "_from",
          "type": "address"
        },
        {
          "name": "_to",
          "type": "address"
        },
        {
          "name": "_tokenId",
          "type": "uint256"
        }
      ],
      "name": "transferFrom",
      "outputs": [],
      "payable": false,
      "stateMutability": "nonpayable",
      "type": "function"
    },
    {
      "constant": true,
      "inputs": [
        {
          "name": "",
          "type": "uint256"
        }
      ],
      "name": "editions",
      "outputs": [
        {
          "name": "mintTime",
          "type": "uint64"
        },
        {
          "name": "name",
          "type": "string"
        },
        {
          "name": "numCards",
          "type": "uint32"
        },
        {
          "name": "packPrice",
          "type": "uint256"
        }
      ],
      "payable": false,
      "stateMutability": "view",
      "type": "function"
    },
    {
      "constant": true,
      "inputs": [
        {
          "name": "_owner",
          "type": "address"
        },
        {
          "name": "_index",
          "type": "uint256"
        }
      ],
      "name": "tokenOfOwnerByIndex",
      "outputs": [
        {
          "name": "",
          "type": "uint256"
        }
      ],
      "payable": false,
      "stateMutability": "view",
      "type": "function"
    },
    {
      "constant": false,
      "inputs": [],
      "name": "unpause",
      "outputs": [],
      "payable": false,
      "stateMutability": "nonpayable",
      "type": "function"
    },
    {
      "constant": false,
      "inputs": [
        {
          "name": "_to",
          "type": "address"
        },
        {
          "name": "_tokenId",
          "type": "uint256"
        }
      ],
      "name": "mint",
      "outputs": [],
      "payable": false,
      "stateMutability": "nonpayable",
      "type": "function"
    },
    {
      "constant": false,
      "inputs": [
        {
          "name": "_from",
          "type": "address"
        },
        {
          "name": "_to",
          "type": "address"
        },
        {
          "name": "_tokenId",
          "type": "uint256"
        }
      ],
      "name": "safeTransferFrom",
      "outputs": [],
      "payable": false,
      "stateMutability": "nonpayable",
      "type": "function"
    },
    {
      "constant": true,
      "inputs": [],
      "name": "apiBaseUri",
      "outputs": [
        {
          "name": "",
          "type": "string"
        }
      ],
      "payable": false,
      "stateMutability": "view",
      "type": "function"
    },
    {
      "constant": true,
      "inputs": [
        {
          "name": "_tokenId",
          "type": "uint256"
        }
      ],
      "name": "exists",
      "outputs": [
        {
          "name": "",
          "type": "bool"
        }
      ],
      "payable": false,
      "stateMutability": "view",
      "type": "function"
    },
    {
      "constant": true,
      "inputs": [
        {
          "name": "_index",
          "type": "uint256"
        }
      ],
      "name": "tokenByIndex",
      "outputs": [
        {
          "name": "",
          "type": "uint256"
        }
      ],
      "payable": false,
      "stateMutability": "view",
      "type": "function"
    },
    {
      "constant": true,
      "inputs": [],
      "name": "paused",
      "outputs": [
        {
          "name": "",
          "type": "bool"
        }
      ],
      "payable": false,
      "stateMutability": "view",
      "type": "function"
    },
    {
      "constant": true,
      "inputs": [
        {
          "name": "_tokenId",
          "type": "uint256"
        }
      ],
      "name": "ownerOf",
      "outputs": [
        {
          "name": "",
          "type": "address"
        }
      ],
      "payable": false,
      "stateMutability": "view",
      "type": "function"
    },
    {
      "constant": true,
      "inputs": [
        {
          "name": "_owner",
          "type": "address"
        }
      ],
      "name": "balanceOf",
      "outputs": [
        {
          "name": "",
          "type": "uint256"
        }
      ],
      "payable": false,
      "stateMutability": "view",
      "type": "function"
    },
    {
      "constant": true,
      "inputs": [],
      "name": "API_BASE_URI",
      "outputs": [
        {
          "name": "",
          "type": "string"
        }
      ],
      "payable": false,
      "stateMutability": "view",
      "type": "function"
    },
    {
      "constant": false,
      "inputs": [],
      "name": "pause",
      "outputs": [],
      "payable": false,
      "stateMutability": "nonpayable",
      "type": "function"
    },
    {
      "constant": true,
      "inputs": [],
      "name": "owner",
      "outputs": [
        {
          "name": "",
          "type": "address"
        }
      ],
      "payable": false,
      "stateMutability": "view",
      "type": "function"
    },
    {
      "constant": true,
      "inputs": [
        {
          "name": "",
          "type": "uint256"
        }
      ],
      "name": "cards",
      "outputs": [
        {
          "name": "mintTime",
          "type": "uint64"
        },
        {
          "name": "editionId",
          "type": "uint16"
        }
      ],
      "payable": false,
      "stateMutability": "view",
      "type": "function"
    },
    {
      "constant": true,
      "inputs": [],
      "name": "symbol",
      "outputs": [
        {
          "name": "",
          "type": "string"
        }
      ],
      "payable": false,
      "stateMutability": "view",
      "type": "function"
    },
    {
      "constant": false,
      "inputs": [
        {
          "name": "_to",
          "type": "address"
        },
        {
          "name": "_approved",
          "type": "bool"
        }
      ],
      "name": "setApprovalForAll",
      "outputs": [],
      "payable": false,
      "stateMutability": "nonpayable",
      "type": "function"
    },
    {
      "constant": false,
      "inputs": [
        {
          "name": "_from",
          "type": "address"
        },
        {
          "name": "_to",
          "type": "address"
        },
        {
          "name": "_tokenId",
          "type": "uint256"
        },
        {
          "name": "_data",
          "type": "bytes"
        }
      ],
      "name": "safeTransferFrom",
      "outputs": [],
      "payable": false,
      "stateMutability": "nonpayable",
      "type": "function"
    },
    {
      "constant": true,
      "inputs": [
        {
          "name": "contractName",
          "type": "string"
        },
        {
          "name": "migrationId",
          "type": "string"
        }
      ],
      "name": "isMigrated",
      "outputs": [
        {
          "name": "",
          "type": "bool"
        }
      ],
      "payable": false,
      "stateMutability": "view",
      "type": "function"
    },
    {
      "constant": true,
      "inputs": [
        {
          "name": "_owner",
          "type": "address"
        },
        {
          "name": "_operator",
          "type": "address"
        }
      ],
      "name": "isApprovedForAll",
      "outputs": [
        {
          "name": "",
          "type": "bool"
        }
      ],
      "payable": false,
      "stateMutability": "view",
      "type": "function"
    },
    {
      "constant": false,
      "inputs": [
        {
          "name": "newOwner",
          "type": "address"
        }
      ],
      "name": "transferOwnership",
      "outputs": [],
      "payable": false,
      "stateMutability": "nonpayable",
      "type": "function"
    },
    {
      "payable": true,
      "stateMutability": "payable",
      "type": "fallback"
    },
    {
      "anonymous": false,
      "inputs": [
        {
          "indexed": false,
          "name": "_api_base_url",
          "type": "string"
        }
      ],
      "name": "ApiBaseUriSet",
      "type": "event"
    },
    {
      "anonymous": false,
      "inputs": [
        {
          "indexed": false,
          "name": "_newEditionId",
          "type": "uint16"
        },
        {
          "indexed": false,
          "name": "_name",
          "type": "string"
        },
        {
          "indexed": false,
          "name": "_numCards",
          "type": "uint32"
        },
        {
          "indexed": false,
          "name": "_packPrice",
          "type": "uint256"
        }
      ],
      "name": "EditionMinted",
      "type": "event"
    },
    {
      "anonymous": false,
      "inputs": [
        {
          "indexed": false,
          "name": "_editionId",
          "type": "uint16"
        },
        {
          "indexed": true,
          "name": "_owner",
          "type": "address"
        }
      ],
      "name": "FivePackBought",
      "type": "event"
    },
    {
      "anonymous": false,
      "inputs": [
        {
          "indexed": false,
          "name": "_editionId",
          "type": "uint16"
        },
        {
          "indexed": true,
          "name": "_owner",
          "type": "address"
        }
      ],
      "name": "FivePackMinted",
      "type": "event"
    },
    {
      "anonymous": false,
      "inputs": [
        {
          "indexed": false,
          "name": "_editionId",
          "type": "uint16"
        },
        {
          "indexed": false,
          "name": "_cardId",
          "type": "uint256"
        },
        {
          "indexed": true,
          "name": "_owner",
          "type": "address"
        }
      ],
      "name": "CardMinted",
      "type": "event"
    },
    {
      "anonymous": false,
      "inputs": [
        {
          "indexed": true,
          "name": "_sender",
          "type": "address"
        },
        {
          "indexed": false,
          "name": "_value",
          "type": "uint256"
        }
      ],
      "name": "FallBackPaid",
      "type": "event"
    },
    {
      "anonymous": false,
      "inputs": [],
      "name": "Pause",
      "type": "event"
    },
    {
      "anonymous": false,
      "inputs": [],
      "name": "Unpause",
      "type": "event"
    },
    {
      "anonymous": false,
      "inputs": [
        {
          "indexed": true,
          "name": "_from",
          "type": "address"
        },
        {
          "indexed": true,
          "name": "_to",
          "type": "address"
        },
        {
          "indexed": false,
          "name": "_tokenId",
          "type": "uint256"
        }
      ],
      "name": "Transfer",
      "type": "event"
    },
    {
      "anonymous": false,
      "inputs": [
        {
          "indexed": true,
          "name": "_owner",
          "type": "address"
        },
        {
          "indexed": true,
          "name": "_approved",
          "type": "address"
        },
        {
          "indexed": false,
          "name": "_tokenId",
          "type": "uint256"
        }
      ],
      "name": "Approval",
      "type": "event"
    },
    {
      "anonymous": false,
      "inputs": [
        {
          "indexed": true,
          "name": "_owner",
          "type": "address"
        },
        {
          "indexed": true,
          "name": "_operator",
          "type": "address"
        },
        {
          "indexed": false,
          "name": "_approved",
          "type": "bool"
        }
      ],
      "name": "ApprovalForAll",
      "type": "event"
    },
    {
      "anonymous": false,
      "inputs": [
        {
          "indexed": true,
          "name": "previousOwner",
          "type": "address"
        },
        {
          "indexed": true,
          "name": "newOwner",
          "type": "address"
        }
      ],
      "name": "OwnershipTransferred",
      "type": "event"
    },
    {
      "anonymous": false,
      "inputs": [
        {
          "indexed": false,
          "name": "contractName",
          "type": "string"
        },
        {
          "indexed": false,
          "name": "migrationId",
          "type": "string"
        }
      ],
      "name": "Migrated",
      "type": "event"
    },
    {
      "constant": false,
      "inputs": [],
      "name": "initialize",
      "outputs": [],
      "payable": false,
      "stateMutability": "nonpayable",
      "type": "function"
    },
    {
      "constant": false,
      "inputs": [
        {
          "name": "_sender",
          "type": "address"
        }
      ],
      "name": "initialize",
      "outputs": [],
      "payable": false,
      "stateMutability": "nonpayable",
      "type": "function"
    },
    {
      "constant": false,
      "inputs": [
        {
          "name": "_name",
          "type": "string"
        },
        {
          "name": "_symbol",
          "type": "string"
        }
      ],
      "name": "initialize",
      "outputs": [],
      "payable": false,
      "stateMutability": "nonpayable",
      "type": "function"
    },
    {
      "constant": false,
      "inputs": [
        {
          "name": "_sender",
          "type": "address"
        },
        {
          "name": "_name",
          "type": "string"
        },
        {
          "name": "_symbol",
          "type": "string"
        }
      ],
      "name": "initialize",
      "outputs": [],
      "payable": false,
      "stateMutability": "nonpayable",
      "type": "function"
    },
    {
      "constant": false,
      "inputs": [
        {
          "name": "_apiBaseUri",
          "type": "string"
        }
      ],
      "name": "setApiBaseUri",
      "outputs": [
        {
          "name": "",
          "type": "string"
        }
      ],
      "payable": false,
      "stateMutability": "nonpayable",
      "type": "function"
    },
    {
      "constant": false,
      "inputs": [
        {
          "name": "_name",
          "type": "string"
        },
        {
          "name": "_numCards",
          "type": "uint32"
        },
        {
          "name": "_packPrice",
          "type": "uint256"
        }
      ],
      "name": "mintEdition",
      "outputs": [
        {
          "name": "",
          "type": "uint16"
        }
      ],
      "payable": false,
      "stateMutability": "nonpayable",
      "type": "function"
    },
    {
      "constant": false,
      "inputs": [
        {
          "name": "_editionId",
          "type": "uint16"
        }
      ],
      "name": "buyFivePack",
      "outputs": [
        {
          "name": "",
          "type": "uint256[5]"
        }
      ],
      "payable": true,
      "stateMutability": "payable",
      "type": "function"
    },
    {
      "constant": false,
      "inputs": [
        {
          "name": "_editionId",
          "type": "uint16"
        },
        {
          "name": "_owner",
          "type": "address"
        }
      ],
      "name": "mintFivePack",
      "outputs": [
        {
          "name": "",
          "type": "uint256[5]"
        }
      ],
      "payable": false,
      "stateMutability": "nonpayable",
      "type": "function"
    },
    {
      "constant": true,
      "inputs": [
        {
          "name": "_tokenId",
          "type": "uint256"
        }
      ],
      "name": "tokenURI",
      "outputs": [
        {
          "name": "",
          "type": "string"
        }
      ],
      "payable": false,
      "stateMutability": "view",
      "type": "function"
    },
    {
      "constant": true,
      "inputs": [
        {
          "name": "_editionId",
          "type": "uint16"
        }
      ],
      "name": "checkEditionExists",
      "outputs": [
        {
          "name": "",
          "type": "bool"
        }
      ],
      "payable": false,
      "stateMutability": "view",
      "type": "function"
    },
    {
      "constant": true,
      "inputs": [
        {
          "name": "_editionId",
          "type": "uint16"
        }
      ],
      "name": "editionInfo",
      "outputs": [
        {
          "name": "",
          "type": "string"
        },
        {
          "name": "",
          "type": "uint32"
        },
        {
          "name": "",
          "type": "uint32"
        },
        {
          "name": "",
          "type": "uint256"
        }
      ],
      "payable": false,
      "stateMutability": "view",
      "type": "function"
    },
    {
      "constant": true,
      "inputs": [
        {
          "name": "_cardId",
          "type": "uint256"
        }
      ],
      "name": "checkCardExists",
      "outputs": [
        {
          "name": "",
          "type": "bool"
        }
      ],
      "payable": false,
      "stateMutability": "view",
      "type": "function"
    },
    {
      "constant": true,
      "inputs": [
        {
          "name": "_tokenId",
          "type": "uint256"
        }
      ],
      "name": "cardInfo",
      "outputs": [
        {
          "name": "",
          "type": "uint16"
        },
        {
          "name": "",
          "type": "uint32"
        },
        {
          "name": "",
          "type": "string"
        }
      ],
      "payable": false,
      "stateMutability": "view",
      "type": "function"
    },
    {
      "constant": false,
      "inputs": [],
      "name": "withdraw",
      "outputs": [],
      "payable": false,
      "stateMutability": "nonpayable",
      "type": "function"
    }
  ],
  "bytecode": "0x60806040526000600d60006101000a81548160ff02191690831515021790555034801561002b57600080fd5b506156dd806200003c6000396000f3006080604052600436106101ee576000357c0100000000000000000000000000000000000000000000000000000000900463ffffffff16806306fdde0314610250578063081812fc146102e0578063095ea7b31461034d57806318160ddd1461039a57806323b872dd146103c5578063279c806e146104325780632f745c591461050d5780633aee0d7d1461056e5780633ccfd60b146105b35780633f4ba83a146105ca57806340c10f19146105e157806342842e0e1461062e578063440483261461069b5780634a2a78341461072b5780634cd88b76146107745780634f558e79146108235780634f6ccce7146108685780634fba0240146108a957806356b1496c146109805780635c975abb146109e05780636352211e14610a0f57806370a0823114610a7c57806374db6e0714610ad35780637ad02db614610b445780638129fc1c14610bd45780638456cb5914610beb5780638da5cb5b14610c025780638dc1076814610c595780639065714714610cbd57806395d89b4114610d8c578063a03166b114610e1c578063a22cb46514610ea9578063a79b091314610ef8578063b88d4fde14610fac578063c0bac1a81461105f578063c4d66de814611126578063c87b56dd14611169578063e985e9c51461120f578063f2fde38b1461128a578063f77843dd146112cd575b60008036905014151561020057600080fd5b3373ffffffffffffffffffffffffffffffffffffffff167f32e1bd3d69af89240f5d43cc1e3bcb727af08b1f45dadea82446b2d3f74dbf88346040518082815260200191505060405180910390a2005b34801561025c57600080fd5b50610265611395565b6040518080602001828103825283818151815260200191508051906020019080838360005b838110156102a557808201518184015260208101905061028a565b50505050905090810190601f1680156102d25780820380516001836020036101000a031916815260200191505b509250505060405180910390f35b3480156102ec57600080fd5b5061030b60048036038101908080359060200190929190505050611437565b604051808273ffffffffffffffffffffffffffffffffffffffff1673ffffffffffffffffffffffffffffffffffffffff16815260200191505060405180910390f35b34801561035957600080fd5b50610398600480360381019080803573ffffffffffffffffffffffffffffffffffffffff16906020019092919080359060200190929190505050611474565b005b3480156103a657600080fd5b506103af61163a565b6040518082815260200191505060405180910390f35b3480156103d157600080fd5b50610430600480360381019080803573ffffffffffffffffffffffffffffffffffffffff169060200190929190803573ffffffffffffffffffffffffffffffffffffffff16906020019092919080359060200190929190505050611647565b005b34801561043e57600080fd5b5061045d6004803603810190808035906020019092919050505061175e565b604051808567ffffffffffffffff1667ffffffffffffffff168152602001806020018463ffffffff1663ffffffff168152602001838152602001828103825285818151815260200191508051906020019080838360005b838110156104cf5780820151818401526020810190506104b4565b50505050905090810190601f1680156104fc5780820380516001836020036101000a031916815260200191505b509550505050505060405180910390f35b34801561051957600080fd5b50610558600480360381019080803573ffffffffffffffffffffffffffffffffffffffff16906020019092919080359060200190929190505050611859565b6040518082815260200191505060405180910390f35b34801561057a57600080fd5b50610599600480360381019080803590602001909291905050506118d0565b604051808215151515815260200191505060405180910390f35b3480156105bf57600080fd5b506105c86118fe565b005b3480156105d657600080fd5b506105df6119ba565b005b3480156105ed57600080fd5b5061062c600480360381019080803573ffffffffffffffffffffffffffffffffffffffff16906020019092919080359060200190929190505050611a7a565b005b34801561063a57600080fd5b50610699600480360381019080803573ffffffffffffffffffffffffffffffffffffffff169060200190929190803573ffffffffffffffffffffffffffffffffffffffff16906020019092919080359060200190929190505050611ae4565b005b3480156106a757600080fd5b506106b0611b1c565b6040518080602001828103825283818151815260200191508051906020019080838360005b838110156106f05780820151818401526020810190506106d5565b50505050905090810190601f16801561071d5780820380516001836020036101000a031916815260200191505b509250505060405180910390f35b34801561073757600080fd5b5061075a600480360381019080803561ffff169060200190929190505050611bba565b604051808215151515815260200191505060405180910390f35b34801561078057600080fd5b50610821600480360381019080803590602001908201803590602001908080601f0160208091040260200160405190810160405280939291908181526020018383808284378201915050505050509192919290803590602001908201803590602001908080601f0160208091040260200160405190810160405280939291908181526020018383808284378201915050505050509192919290505050611bf0565b005b34801561082f57600080fd5b5061084e60048036038101908080359060200190929190505050611ff1565b604051808215151515815260200191505060405180910390f35b34801561087457600080fd5b5061089360048036038101908080359060200190929190505050612063565b6040518082815260200191505060405180910390f35b3480156108b557600080fd5b506108d8600480360381019080803561ffff16906020019092919050505061209b565b60405180806020018563ffffffff1663ffffffff1681526020018463ffffffff1663ffffffff168152602001838152602001828103825286818151815260200191508051906020019080838360005b83811015610942578082015181840152602081019050610927565b50505050905090810190601f16801561096f5780820380516001836020036101000a031916815260200191505b509550505050505060405180910390f35b6109a2600480360381019080803561ffff16906020019092919050505061223f565b6040518082600560200280838360005b838110156109cd5780820151818401526020810190506109b2565b5050505090500191505060405180910390f35b3480156109ec57600080fd5b506109f5612411565b604051808215151515815260200191505060405180910390f35b348015610a1b57600080fd5b50610a3a60048036038101908080359060200190929190505050612424565b604051808273ffffffffffffffffffffffffffffffffffffffff1673ffffffffffffffffffffffffffffffffffffffff16815260200191505060405180910390f35b348015610a8857600080fd5b50610abd600480360381019080803573ffffffffffffffffffffffffffffffffffffffff1690602001909291905050506124a2565b6040518082815260200191505060405180910390f35b348015610adf57600080fd5b50610b26600480360381019080803590602001908201803590602001919091929391929390803563ffffffff16906020019092919080359060200190929190505050612526565b604051808261ffff1661ffff16815260200191505060405180910390f35b348015610b5057600080fd5b50610b596125cb565b6040518080602001828103825283818151815260200191508051906020019080838360005b83811015610b99578082015181840152602081019050610b7e565b50505050905090810190601f168015610bc65780820380516001836020036101000a031916815260200191505b509250505060405180910390f35b348015610be057600080fd5b50610be961262b565b005b348015610bf757600080fd5b50610c006129fc565b005b348015610c0e57600080fd5b50610c17612abd565b604051808273ffffffffffffffffffffffffffffffffffffffff1673ffffffffffffffffffffffffffffffffffffffff16815260200191505060405180910390f35b348015610c6557600080fd5b50610c8460048036038101908080359060200190929190505050612ae3565b604051808367ffffffffffffffff1667ffffffffffffffff1681526020018261ffff1661ffff1681526020019250505060405180910390f35b348015610cc957600080fd5b50610d8a600480360381019080803573ffffffffffffffffffffffffffffffffffffffff169060200190929190803590602001908201803590602001908080601f0160208091040260200160405190810160405280939291908181526020018383808284378201915050505050509192919290803590602001908201803590602001908080601f0160208091040260200160405190810160405280939291908181526020018383808284378201915050505050509192919290505050612b34565b005b348015610d9857600080fd5b50610da1612f8e565b6040518080602001828103825283818151815260200191508051906020019080838360005b83811015610de1578082015181840152602081019050610dc6565b50505050905090810190601f168015610e0e5780820380516001836020036101000a031916815260200191505b509250505060405180910390f35b348015610e2857600080fd5b50610e6b600480360381019080803561ffff169060200190929190803573ffffffffffffffffffffffffffffffffffffffff169060200190929190505050613030565b6040518082600560200280838360005b83811015610e96578082015181840152602081019050610e7b565b5050505090500191505060405180910390f35b348015610eb557600080fd5b50610ef6600480360381019080803573ffffffffffffffffffffffffffffffffffffffff1690602001909291908035151590602001909291905050506130a6565b005b348015610f0457600080fd5b50610f316004803603810190808035906020019082018035906020019190919293919293905050506131e2565b6040518080602001828103825283818151815260200191508051906020019080838360005b83811015610f71578082015181840152602081019050610f56565b50505050905090810190601f168015610f9e5780820380516001836020036101000a031916815260200191505b509250505060405180910390f35b348015610fb857600080fd5b5061105d600480360381019080803573ffffffffffffffffffffffffffffffffffffffff169060200190929190803573ffffffffffffffffffffffffffffffffffffffff16906020019092919080359060200190929190803590602001908201803590602001908080601f01602080910402602001604051908101604052809392919081815260200183838082843782019150505050505091929192905050506132f5565b005b34801561106b57600080fd5b5061110c600480360381019080803590602001908201803590602001908080601f0160208091040260200160405190810160405280939291908181526020018383808284378201915050505050509192919290803590602001908201803590602001908080601f0160208091040260200160405190810160405280939291908181526020018383808284378201915050505050509192919290505050613334565b604051808215151515815260200191505060405180910390f35b34801561113257600080fd5b50611167600480360381019080803573ffffffffffffffffffffffffffffffffffffffff16906020019092919050505061341f565b005b34801561117557600080fd5b50611194600480360381019080803590602001909291905050506137fa565b6040518080602001828103825283818151815260200191508051906020019080838360005b838110156111d45780820151818401526020810190506111b9565b50505050905090810190601f1680156112015780820380516001836020036101000a031916815260200191505b509250505060405180910390f35b34801561121b57600080fd5b50611270600480360381019080803573ffffffffffffffffffffffffffffffffffffffff169060200190929190803573ffffffffffffffffffffffffffffffffffffffff1690602001909291905050506138c8565b604051808215151515815260200191505060405180910390f35b34801561129657600080fd5b506112cb600480360381019080803573ffffffffffffffffffffffffffffffffffffffff16906020019092919050505061395c565b005b3480156112d957600080fd5b506112f860048036038101908080359060200190929190505050613ab4565b604051808461ffff1661ffff1681526020018363ffffffff1663ffffffff16815260200180602001828103825283818151815260200191508051906020019080838360005b8381101561135857808201518184015260208101905061133d565b50505050905090810190601f1680156113855780820380516001836020036101000a031916815260200191505b5094505050505060405180910390f35b606060068054600181600116156101000203166002900480601f01602080910402602001604051908101604052809291908181526020018280546001816001161561010002031660029004801561142d5780601f106114025761010080835404028352916020019161142d565b820191906000526020600020905b81548152906001019060200180831161141057829003601f168201915b5050505050905090565b60006003600083815260200190815260200160002060009054906101000a900473ffffffffffffffffffffffffffffffffffffffff169050919050565b600061147f82612424565b90508073ffffffffffffffffffffffffffffffffffffffff168373ffffffffffffffffffffffffffffffffffffffff16141515156114bc57600080fd5b8073ffffffffffffffffffffffffffffffffffffffff163373ffffffffffffffffffffffffffffffffffffffff1614806114fc57506114fb81336138c8565b5b151561150757600080fd5b600073ffffffffffffffffffffffffffffffffffffffff1661152883611437565b73ffffffffffffffffffffffffffffffffffffffff161415806115785750600073ffffffffffffffffffffffffffffffffffffffff168373ffffffffffffffffffffffffffffffffffffffff1614155b1561163557826003600084815260200190815260200160002060006101000a81548173ffffffffffffffffffffffffffffffffffffffff021916908373ffffffffffffffffffffffffffffffffffffffff1602179055508273ffffffffffffffffffffffffffffffffffffffff168173ffffffffffffffffffffffffffffffffffffffff167f8c5be1e5ebec7d5bd14f71427d1e84f3dd0314c0f7b2291e5b200ac8c7c3b925846040518082815260200191505060405180910390a35b505050565b6000600a80549050905090565b806116523382613b99565b151561165d57600080fd5b600073ffffffffffffffffffffffffffffffffffffffff168473ffffffffffffffffffffffffffffffffffffffff161415151561169957600080fd5b600073ffffffffffffffffffffffffffffffffffffffff168373ffffffffffffffffffffffffffffffffffffffff16141515156116d557600080fd5b6116df8483613c2e565b6116e98483613d97565b6116f38383613faf565b8273ffffffffffffffffffffffffffffffffffffffff168473ffffffffffffffffffffffffffffffffffffffff167fddf252ad1be2c89b69c2b068fc378daa952ba7f163c4a11628f55a4df523b3ef846040518082815260200191505060405180910390a350505050565b600f8181548110151561176d57fe5b90600052602060002090600402016000915090508060000160009054906101000a900467ffffffffffffffff1690806001018054600181600116156101000203166002900480601f0160208091040260200160405190810160405280929190818152602001828054600181600116156101000203166002900480156118335780601f1061180857610100808354040283529160200191611833565b820191906000526020600020905b81548152906001019060200180831161181657829003601f168201915b5050505050908060020160009054906101000a900463ffffffff16908060030154905084565b6000611864836124a2565b8210151561187157600080fd5b600860008473ffffffffffffffffffffffffffffffffffffffff1673ffffffffffffffffffffffffffffffffffffffff168152602001908152602001600020828154811015156118bd57fe5b9060005260206000200154905092915050565b60008082101580156118e6575060108054905082105b156118f457600190506118f9565b600090505b919050565b600160009054906101000a900473ffffffffffffffffffffffffffffffffffffffff1673ffffffffffffffffffffffffffffffffffffffff163373ffffffffffffffffffffffffffffffffffffffff1614151561195a57600080fd5b3373ffffffffffffffffffffffffffffffffffffffff166108fc3073ffffffffffffffffffffffffffffffffffffffff16319081150290604051600060405180830381858888f193505050501580156119b7573d6000803e3d6000fd5b50565b600160009054906101000a900473ffffffffffffffffffffffffffffffffffffffff1673ffffffffffffffffffffffffffffffffffffffff163373ffffffffffffffffffffffffffffffffffffffff16141515611a1657600080fd5b600d60009054906101000a900460ff161515611a3157600080fd5b6000600d60006101000a81548160ff0219169083151502179055507f7805862f689e2f13df9f062ff482ad3ad112aca9e0847911ed832e158c525b3360405160405180910390a1565b600160009054906101000a900473ffffffffffffffffffffffffffffffffffffffff1673ffffffffffffffffffffffffffffffffffffffff163373ffffffffffffffffffffffffffffffffffffffff16141515611ad657600080fd5b611ae08282614086565b5050565b80611aef3382613b99565b1515611afa57600080fd5b611b1684848460206040519081016040528060008152506132f5565b50505050565b600e8054600181600116156101000203166002900480601f016020809104026020016040519081016040528092919081815260200182805460018160011615610100020316600290048015611bb25780601f10611b8757610100808354040283529160200191611bb2565b820191906000526020600020905b815481529060010190602001808311611b9557829003601f168201915b505050505081565b6000808261ffff1610158015611bd85750600f805490508261ffff16105b15611be65760019050611beb565b600090505b919050565b6040805190810160405280600b81526020017f455243373231546f6b656e0000000000000000000000000000000000000000008152506040805190810160405280600581526020017f312e392e30000000000000000000000000000000000000000000000000000000815250611c9b826040805190810160405280600b81526020017f696e697469616c697a65640000000000000000000000000000000000000000008152506140dd565b611ca582826140dd565b8360069080519060200190611cbb92919061545c565b508260079080519060200190611cd292919061545c565b507fdd117a11c22118c9dee4b5a67ce578bc44529dce21ee0ccc439588fbb9fb4ea38282604051808060200180602001838103835285818151815260200191508051906020019080838360005b83811015611d3a578082015181840152602081019050611d1f565b50505050905090810190601f168015611d675780820380516001836020036101000a031916815260200191505b50838103825284818151815260200191508051906020019080838360005b83811015611da0578082015181840152602081019050611d85565b50505050905090810190601f168015611dcd5780820380516001836020036101000a031916815260200191505b5094505050505060405180910390a160016000836040518082805190602001908083835b602083101515611e165780518252602082019150602081019050602083039250611df1565b6001836020036101000a0380198251168184511680821785525050505050509050019150509081526020016040518091039020826040518082805190602001908083835b602083101515611e7f5780518252602082019150602081019050602083039250611e5a565b6001836020036101000a038019825116818451168082178552505050505050905001915050908152602001604051809103902060006101000a81548160ff02191690831515021790555060016000836040518082805190602001908083835b602083101515611f035780518252602082019150602081019050602083039250611ede565b6001836020036101000a03801982511681845116808217855250505050505090500191505090815260200160405180910390206040805190810160405280600b81526020017f696e697469616c697a65640000000000000000000000000000000000000000008152506040518082805190602001908083835b602083101515611fa15780518252602082019150602081019050602083039250611f7c565b6001836020036101000a038019825116818451168082178552505050505050905001915050908152602001604051809103902060006101000a81548160ff02191690831515021790555050505050565b6000806002600084815260200190815260200160002060009054906101000a900473ffffffffffffffffffffffffffffffffffffffff169050600073ffffffffffffffffffffffffffffffffffffffff168173ffffffffffffffffffffffffffffffffffffffff161415915050919050565b600061206d61163a565b8210151561207a57600080fd5b600a8281548110151561208957fe5b90600052602060002001549050919050565b606060008060006120aa6154dc565b6120b386611bba565b15156120be57600080fd5b600f8661ffff168154811015156120d157fe5b9060005260206000209060040201608060405190810160405290816000820160009054906101000a900467ffffffffffffffff1667ffffffffffffffff1667ffffffffffffffff168152602001600182018054600181600116156101000203166002900480601f0160208091040260200160405190810160405280929190818152602001828054600181600116156101000203166002900480156121b65780601f1061218b576101008083540402835291602001916121b6565b820191906000526020600020905b81548152906001019060200180831161219957829003601f168201915b505050505081526020016002820160009054906101000a900463ffffffff1663ffffffff1663ffffffff168152602001600382015481525050905080602001518160400151601160008961ffff1661ffff16815260200190815260200160002060009054906101000a900463ffffffff1683606001518393509450945094509450509193509193565b612247615515565b61224f6154dc565b61225883611bba565b151561226357600080fd5b600f8361ffff1681548110151561227657fe5b9060005260206000209060040201608060405190810160405290816000820160009054906101000a900467ffffffffffffffff1667ffffffffffffffff1667ffffffffffffffff168152602001600182018054600181600116156101000203166002900480601f01602080910402602001604051908101604052809291908181526020018280546001816001161561010002031660029004801561235b5780601f106123305761010080835404028352916020019161235b565b820191906000526020600020905b81548152906001019060200180831161233e57829003601f168201915b505050505081526020016002820160009054906101000a900463ffffffff1663ffffffff1663ffffffff1681526020016003820154815250509050806060015134101515156123a957600080fd5b3373ffffffffffffffffffffffffffffffffffffffff167f2abcede2692eb370bd612dc4403a3cb3ba1481a5cb132fb7c19ada5ff90ed6cc84604051808261ffff1661ffff16815260200191505060405180910390a26124098333614186565b915050919050565b600d60009054906101000a900460ff1681565b6000806002600084815260200190815260200160002060009054906101000a900473ffffffffffffffffffffffffffffffffffffffff169050600073ffffffffffffffffffffffffffffffffffffffff168173ffffffffffffffffffffffffffffffffffffffff161415151561249957600080fd5b80915050919050565b60008073ffffffffffffffffffffffffffffffffffffffff168273ffffffffffffffffffffffffffffffffffffffff16141515156124df57600080fd5b600460008373ffffffffffffffffffffffffffffffffffffffff1673ffffffffffffffffffffffffffffffffffffffff168152602001908152602001600020549050919050565b6000600160009054906101000a900473ffffffffffffffffffffffffffffffffffffffff1673ffffffffffffffffffffffffffffffffffffffff163373ffffffffffffffffffffffffffffffffffffffff1614151561258457600080fd5b6125c185858080601f01602080910402602001604051908101604052809392919081815260200183838082843782019150505050505084846144c5565b9050949350505050565b606060405190810160405280602a81526020017f687474702f2f7777772e63727970746f2d6261736562616c6c2d63617264732e81526020017f636f6d2f63617264732f0000000000000000000000000000000000000000000081525081565b6040805190810160405280600a81526020017f4d696772617461626c65000000000000000000000000000000000000000000008152506040805190810160405280600581526020017f312e322e310000000000000000000000000000000000000000000000000000008152506126d6826040805190810160405280600b81526020017f696e697469616c697a65640000000000000000000000000000000000000000008152506140dd565b6126e082826140dd565b7fdd117a11c22118c9dee4b5a67ce578bc44529dce21ee0ccc439588fbb9fb4ea38282604051808060200180602001838103835285818151815260200191508051906020019080838360005b8381101561274757808201518184015260208101905061272c565b50505050905090810190601f1680156127745780820380516001836020036101000a031916815260200191505b50838103825284818151815260200191508051906020019080838360005b838110156127ad578082015181840152602081019050612792565b50505050905090810190601f1680156127da5780820380516001836020036101000a031916815260200191505b5094505050505060405180910390a160016000836040518082805190602001908083835b60208310151561282357805182526020820191506020810190506020830392506127fe565b6001836020036101000a0380198251168184511680821785525050505050509050019150509081526020016040518091039020826040518082805190602001908083835b60208310151561288c5780518252602082019150602081019050602083039250612867565b6001836020036101000a038019825116818451168082178552505050505050905001915050908152602001604051809103902060006101000a81548160ff02191690831515021790555060016000836040518082805190602001908083835b60208310151561291057805182526020820191506020810190506020830392506128eb565b6001836020036101000a03801982511681845116808217855250505050505090500191505090815260200160405180910390206040805190810160405280600b81526020017f696e697469616c697a65640000000000000000000000000000000000000000008152506040518082805190602001908083835b6020831015156129ae5780518252602082019150602081019050602083039250612989565b6001836020036101000a038019825116818451168082178552505050505050905001915050908152602001604051809103902060006101000a81548160ff0219169083151502179055505050565b600160009054906101000a900473ffffffffffffffffffffffffffffffffffffffff1673ffffffffffffffffffffffffffffffffffffffff163373ffffffffffffffffffffffffffffffffffffffff16141515612a5857600080fd5b600d60009054906101000a900460ff16151515612a7457600080fd5b6001600d60006101000a81548160ff0219169083151502179055507f6985a02210a168e66602d3235cb6db0e70f92b3ba4d376a33c0f3d9434bff62560405160405180910390a1565b600160009054906101000a900473ffffffffffffffffffffffffffffffffffffffff1681565b601081815481101515612af257fe5b906000526020600020016000915090508060000160009054906101000a900467ffffffffffffffff16908060000160089054906101000a900461ffff16905082565b6040805190810160405280600481526020017f43626263000000000000000000000000000000000000000000000000000000008152506040805190810160405280600581526020017f302e312e30000000000000000000000000000000000000000000000000000000815250612bdf826040805190810160405280600b81526020017f696e697469616c697a65640000000000000000000000000000000000000000008152506140dd565b612be982826140dd565b606060405190810160405280602a81526020017f687474702f2f7777772e63727970746f2d6261736562616c6c2d63617264732e81526020017f636f6d2f63617264732f00000000000000000000000000000000000000000000815250600e9080519060200190612c5b92919061545c565b50612c658561468b565b612c6f8484611bf0565b7fdd117a11c22118c9dee4b5a67ce578bc44529dce21ee0ccc439588fbb9fb4ea38282604051808060200180602001838103835285818151815260200191508051906020019080838360005b83811015612cd6578082015181840152602081019050612cbb565b50505050905090810190601f168015612d035780820380516001836020036101000a031916815260200191505b50838103825284818151815260200191508051906020019080838360005b83811015612d3c578082015181840152602081019050612d21565b50505050905090810190601f168015612d695780820380516001836020036101000a031916815260200191505b5094505050505060405180910390a160016000836040518082805190602001908083835b602083101515612db25780518252602082019150602081019050602083039250612d8d565b6001836020036101000a0380198251168184511680821785525050505050509050019150509081526020016040518091039020826040518082805190602001908083835b602083101515612e1b5780518252602082019150602081019050602083039250612df6565b6001836020036101000a038019825116818451168082178552505050505050905001915050908152602001604051809103902060006101000a81548160ff02191690831515021790555060016000836040518082805190602001908083835b602083101515612e9f5780518252602082019150602081019050602083039250612e7a565b6001836020036101000a03801982511681845116808217855250505050505090500191505090815260200160405180910390206040805190810160405280600b81526020017f696e697469616c697a65640000000000000000000000000000000000000000008152506040518082805190602001908083835b602083101515612f3d5780518252602082019150602081019050602083039250612f18565b6001836020036101000a038019825116818451168082178552505050505050905001915050908152602001604051809103902060006101000a81548160ff0219169083151502179055505050505050565b606060078054600181600116156101000203166002900480601f0160208091040260200160405190810160405280929190818152602001828054600181600116156101000203166002900480156130265780601f10612ffb57610100808354040283529160200191613026565b820191906000526020600020905b81548152906001019060200180831161300957829003601f168201915b5050505050905090565b613038615515565b600160009054906101000a900473ffffffffffffffffffffffffffffffffffffffff1673ffffffffffffffffffffffffffffffffffffffff163373ffffffffffffffffffffffffffffffffffffffff1614151561309457600080fd5b61309e8383614186565b905092915050565b3373ffffffffffffffffffffffffffffffffffffffff168273ffffffffffffffffffffffffffffffffffffffff16141515156130e157600080fd5b80600560003373ffffffffffffffffffffffffffffffffffffffff1673ffffffffffffffffffffffffffffffffffffffff16815260200190815260200160002060008473ffffffffffffffffffffffffffffffffffffffff1673ffffffffffffffffffffffffffffffffffffffff16815260200190815260200160002060006101000a81548160ff0219169083151502179055508173ffffffffffffffffffffffffffffffffffffffff163373ffffffffffffffffffffffffffffffffffffffff167f17307eab39ab6107e8899845ad3d59bd9653f200f220920489ca2b5937696c3183604051808215151515815260200191505060405180910390a35050565b6060600160009054906101000a900473ffffffffffffffffffffffffffffffffffffffff1673ffffffffffffffffffffffffffffffffffffffff163373ffffffffffffffffffffffffffffffffffffffff1614151561324057600080fd5b8282600e9190613251929190615538565b50600e8054600181600116156101000203166002900480601f0160208091040260200160405190810160405280929190818152602001828054600181600116156101000203166002900480156132e85780601f106132bd576101008083540402835291602001916132e8565b820191906000526020600020905b8154815290600101906020018083116132cb57829003601f168201915b5050505050905092915050565b816133003382613b99565b151561330b57600080fd5b613316858585611647565b61332285858585614a9e565b151561332d57600080fd5b5050505050565b600080836040518082805190602001908083835b60208310151561336d5780518252602082019150602081019050602083039250613348565b6001836020036101000a0380198251168184511680821785525050505050509050019150509081526020016040518091039020826040518082805190602001908083835b6020831015156133d657805182526020820191506020810190506020830392506133b1565b6001836020036101000a038019825116818451168082178552505050505050905001915050908152602001604051809103902060009054906101000a900460ff16905092915050565b6040805190810160405280600881526020017f5061757361626c650000000000000000000000000000000000000000000000008152506040805190810160405280600581526020017f312e392e300000000000000000000000000000000000000000000000000000008152506134ca826040805190810160405280600b81526020017f696e697469616c697a65640000000000000000000000000000000000000000008152506140dd565b6134d482826140dd565b6134dd8361468b565b7fdd117a11c22118c9dee4b5a67ce578bc44529dce21ee0ccc439588fbb9fb4ea38282604051808060200180602001838103835285818151815260200191508051906020019080838360005b83811015613544578082015181840152602081019050613529565b50505050905090810190601f1680156135715780820380516001836020036101000a031916815260200191505b50838103825284818151815260200191508051906020019080838360005b838110156135aa57808201518184015260208101905061358f565b50505050905090810190601f1680156135d75780820380516001836020036101000a031916815260200191505b5094505050505060405180910390a160016000836040518082805190602001908083835b60208310151561362057805182526020820191506020810190506020830392506135fb565b6001836020036101000a0380198251168184511680821785525050505050509050019150509081526020016040518091039020826040518082805190602001908083835b6020831015156136895780518252602082019150602081019050602083039250613664565b6001836020036101000a038019825116818451168082178552505050505050905001915050908152602001604051809103902060006101000a81548160ff02191690831515021790555060016000836040518082805190602001908083835b60208310151561370d57805182526020820191506020810190506020830392506136e8565b6001836020036101000a03801982511681845116808217855250505050505090500191505090815260200160405180910390206040805190810160405280600b81526020017f696e697469616c697a65640000000000000000000000000000000000000000008152506040518082805190602001908083835b6020831015156137ab5780518252602082019150602081019050602083039250613786565b6001836020036101000a038019825116818451168082178552505050505050905001915050908152602001604051809103902060006101000a81548160ff021916908315150217905550505050565b606080613806836118d0565b151561381157600080fd5b61381a83614c8c565b90506138c0600e8054600181600116156101000203166002900480601f0160208091040260200160405190810160405280929190818152602001828054600181600116156101000203166002900480156138b55780601f1061388a576101008083540402835291602001916138b5565b820191906000526020600020905b81548152906001019060200180831161389857829003601f168201915b505050505082614de3565b915050919050565b6000600560008473ffffffffffffffffffffffffffffffffffffffff1673ffffffffffffffffffffffffffffffffffffffff16815260200190815260200160002060008373ffffffffffffffffffffffffffffffffffffffff1673ffffffffffffffffffffffffffffffffffffffff16815260200190815260200160002060009054906101000a900460ff16905092915050565b600160009054906101000a900473ffffffffffffffffffffffffffffffffffffffff1673ffffffffffffffffffffffffffffffffffffffff163373ffffffffffffffffffffffffffffffffffffffff161415156139b857600080fd5b600073ffffffffffffffffffffffffffffffffffffffff168173ffffffffffffffffffffffffffffffffffffffff16141515156139f457600080fd5b8073ffffffffffffffffffffffffffffffffffffffff16600160009054906101000a900473ffffffffffffffffffffffffffffffffffffffff1673ffffffffffffffffffffffffffffffffffffffff167f8be0079c531659141344cd1fd0a4f28419497f9722a3daafe3b4186f6b6457e060405160405180910390a380600160006101000a81548173ffffffffffffffffffffffffffffffffffffffff021916908373ffffffffffffffffffffffffffffffffffffffff16021790555050565b6000806060613ac16155b8565b613aca856118d0565b1515613ad557600080fd5b601085815481101515613ae457fe5b906000526020600020016040805190810160405290816000820160009054906101000a900467ffffffffffffffff1667ffffffffffffffff1667ffffffffffffffff1681526020016000820160089054906101000a900461ffff1661ffff1661ffff16815250509050806020015160116000836020015161ffff1661ffff16815260200190815260200160002060009054906101000a900463ffffffff16613b8b876137fa565b935093509350509193909250565b600080613ba583612424565b90508073ffffffffffffffffffffffffffffffffffffffff168473ffffffffffffffffffffffffffffffffffffffff161480613c1457508373ffffffffffffffffffffffffffffffffffffffff16613bfc84611437565b73ffffffffffffffffffffffffffffffffffffffff16145b80613c255750613c2481856138c8565b5b91505092915050565b8173ffffffffffffffffffffffffffffffffffffffff16613c4e82612424565b73ffffffffffffffffffffffffffffffffffffffff16141515613c7057600080fd5b600073ffffffffffffffffffffffffffffffffffffffff166003600083815260200190815260200160002060009054906101000a900473ffffffffffffffffffffffffffffffffffffffff1673ffffffffffffffffffffffffffffffffffffffff16141515613d935760006003600083815260200190815260200160002060006101000a81548173ffffffffffffffffffffffffffffffffffffffff021916908373ffffffffffffffffffffffffffffffffffffffff160217905550600073ffffffffffffffffffffffffffffffffffffffff168273ffffffffffffffffffffffffffffffffffffffff167f8c5be1e5ebec7d5bd14f71427d1e84f3dd0314c0f7b2291e5b200ac8c7c3b925836040518082815260200191505060405180910390a35b5050565b6000806000613da68585614fb4565b60096000858152602001908152602001600020549250613e126001600860008873ffffffffffffffffffffffffffffffffffffffff1673ffffffffffffffffffffffffffffffffffffffff168152602001908152602001600020805490506150e390919063ffffffff16565b9150600860008673ffffffffffffffffffffffffffffffffffffffff1673ffffffffffffffffffffffffffffffffffffffff16815260200190815260200160002082815481101515613e6057fe5b9060005260206000200154905080600860008773ffffffffffffffffffffffffffffffffffffffff1673ffffffffffffffffffffffffffffffffffffffff16815260200190815260200160002084815481101515613eba57fe5b90600052602060002001819055506000600860008773ffffffffffffffffffffffffffffffffffffffff1673ffffffffffffffffffffffffffffffffffffffff16815260200190815260200160002083815481101515613f1657fe5b9060005260206000200181905550600860008673ffffffffffffffffffffffffffffffffffffffff1673ffffffffffffffffffffffffffffffffffffffff168152602001908152602001600020805480919060019003613f7691906155e0565b50600060096000868152602001908152602001600020819055508260096000838152602001908152602001600020819055505050505050565b6000613fbb83836150fc565b600860008473ffffffffffffffffffffffffffffffffffffffff1673ffffffffffffffffffffffffffffffffffffffff168152602001908152602001600020805490509050600860008473ffffffffffffffffffffffffffffffffffffffff1673ffffffffffffffffffffffffffffffffffffffff168152602001908152602001600020829080600181540180825580915050906001820390600052602060002001600090919290919091505550806009600084815260200190815260200160002081905550505050565b6140908282615256565b600a80549050600b600083815260200190815260200160002081905550600a8190806001815401808255809150509060018203906000526020600020016000909192909190915055505050565b6140e78282613334565b151515614182576040517f08c379a00000000000000000000000000000000000000000000000000000000081526004018080602001828103825260328152602001807f52657175657374656420746172676574206d6967726174696f6e20494420686181526020017f7320616c7265616479206265656e2072756e000000000000000000000000000081525060400191505060405180910390fd5b5050565b61418e615515565b6141966154dc565b61419e615515565b3073ffffffffffffffffffffffffffffffffffffffff168473ffffffffffffffffffffffffffffffffffffffff16141515156141d957600080fd5b6141e285611bba565b15156141ed57600080fd5b600f8561ffff1681548110151561420057fe5b9060005260206000209060040201608060405190810160405290816000820160009054906101000a900467ffffffffffffffff1667ffffffffffffffff1667ffffffffffffffff168152602001600182018054600181600116156101000203166002900480601f0160208091040260200160405190810160405280929190818152602001828054600181600116156101000203166002900480156142e55780601f106142ba576101008083540402835291602001916142e5565b820191906000526020600020905b8154815290600101906020018083116142c857829003601f168201915b505050505081526020016002820160009054906101000a900463ffffffff1663ffffffff1663ffffffff16815260200160038201548152505091506005601160008761ffff1661ffff16815260200190815260200160002060009054906101000a900463ffffffff160163ffffffff16826040015163ffffffff161015151561436a57fe5b6005601160008761ffff1661ffff16815260200190815260200160002060008282829054906101000a900463ffffffff160192506101000a81548163ffffffff021916908363ffffffff1602179055508373ffffffffffffffffffffffffffffffffffffffff167fed6fac1d8fd17dc518d26d84a2df2db1b63719c50ab63f06416fbfffb0443be286604051808261ffff1661ffff16815260200191505060405180910390a261441a8585615306565b81600060058110151561442957fe5b60200201818152505061443c8585615306565b81600160058110151561444b57fe5b60200201818152505061445e8585615306565b81600260058110151561446d57fe5b6020020181815250506144808585615306565b81600360058110151561448f57fe5b6020020181815250506144a28585615306565b8160046005811015156144b157fe5b602002018181525050809250505092915050565b60006144cf6154dc565b60006080604051908101604052804267ffffffffffffffff1681526020018781526020018663ffffffff1681526020018581525091506001600f839080600181540180825580915050906001820390600052602060002090600402016000909192909190915060008201518160000160006101000a81548167ffffffffffffffff021916908367ffffffffffffffff160217905550602082015181600101908051906020019061458092919061560c565b5060408201518160020160006101000a81548163ffffffff021916908363ffffffff1602179055506060820151816003015550500390507f0f99dd2e965f0b39180d0408c78598b51d6b5bf008b6dbc919ee1f653a0c038b81878787604051808561ffff1661ffff168152602001806020018463ffffffff1663ffffffff168152602001838152602001828103825285818151815260200191508051906020019080838360005b83811015614642578082015181840152602081019050614627565b50505050905090810190601f16801561466f5780820380516001836020036101000a031916815260200191505b509550505050505060405180910390a180925050509392505050565b6040805190810160405280600781526020017f4f776e61626c65000000000000000000000000000000000000000000000000008152506040805190810160405280600581526020017f312e392e30000000000000000000000000000000000000000000000000000000815250614736826040805190810160405280600b81526020017f696e697469616c697a65640000000000000000000000000000000000000000008152506140dd565b61474082826140dd565b82600160006101000a81548173ffffffffffffffffffffffffffffffffffffffff021916908373ffffffffffffffffffffffffffffffffffffffff1602179055507fdd117a11c22118c9dee4b5a67ce578bc44529dce21ee0ccc439588fbb9fb4ea38282604051808060200180602001838103835285818151815260200191508051906020019080838360005b838110156147e85780820151818401526020810190506147cd565b50505050905090810190601f1680156148155780820380516001836020036101000a031916815260200191505b50838103825284818151815260200191508051906020019080838360005b8381101561484e578082015181840152602081019050614833565b50505050905090810190601f16801561487b5780820380516001836020036101000a031916815260200191505b5094505050505060405180910390a160016000836040518082805190602001908083835b6020831015156148c4578051825260208201915060208101905060208303925061489f565b6001836020036101000a0380198251168184511680821785525050505050509050019150509081526020016040518091039020826040518082805190602001908083835b60208310151561492d5780518252602082019150602081019050602083039250614908565b6001836020036101000a038019825116818451168082178552505050505050905001915050908152602001604051809103902060006101000a81548160ff02191690831515021790555060016000836040518082805190602001908083835b6020831015156149b1578051825260208201915060208101905060208303925061498c565b6001836020036101000a03801982511681845116808217855250505050505090500191505090815260200160405180910390206040805190810160405280600b81526020017f696e697469616c697a65640000000000000000000000000000000000000000008152506040518082805190602001908083835b602083101515614a4f5780518252602082019150602081019050602083039250614a2a565b6001836020036101000a038019825116818451168082178552505050505050905001915050908152602001604051809103902060006101000a81548160ff021916908315150217905550505050565b600080614ac08573ffffffffffffffffffffffffffffffffffffffff1661542d565b1515614acf5760019150614c83565b8473ffffffffffffffffffffffffffffffffffffffff1663f0b9e5ba8786866040518463ffffffff167c0100000000000000000000000000000000000000000000000000000000028152600401808473ffffffffffffffffffffffffffffffffffffffff1673ffffffffffffffffffffffffffffffffffffffff16815260200183815260200180602001828103825283818151815260200191508051906020019080838360005b83811015614b91578082015181840152602081019050614b76565b50505050905090810190601f168015614bbe5780820380516001836020036101000a031916815260200191505b50945050505050602060405180830381600087803b158015614bdf57600080fd5b505af1158015614bf3573d6000803e3d6000fd5b505050506040513d6020811015614c0957600080fd5b8101908080519060200190929190505050905063f0b9e5ba7c0100000000000000000000000000000000000000000000000000000000027bffffffffffffffffffffffffffffffffffffffffffffffffffffffff1916817bffffffffffffffffffffffffffffffffffffffffffffffffffffffff19161491505b50949350505050565b60606000806060600080861415614cda576040805190810160405280600181526020017f30000000000000000000000000000000000000000000000000000000000000008152509450614dda565b8593505b600084141515614d04578280600101935050600a84811515614cfc57fe5b049350614cde565b826040519080825280601f01601f191660200182016040528015614d375781602001602082028038833980820191505090505b5091506001830390505b600086141515614dd657600a86811515614d5757fe5b066030017f010000000000000000000000000000000000000000000000000000000000000002828280600190039350815181101515614d9257fe5b9060200101907effffffffffffffffffffffffffffffffffffffffffffffffffffffffffffff1916908160001a905350600a86811515614dce57fe5b049550614d41565b8194505b50505050919050565b606080606080606060008088955087945084518651016040519080825280601f01601f191660200182016040528015614e2b5781602001602082028038833980820191505090505b50935083925060009150600090505b8551811015614eed578581815181101515614e5157fe5b9060200101517f010000000000000000000000000000000000000000000000000000000000000090047f0100000000000000000000000000000000000000000000000000000000000000028383806001019450815181101515614eb057fe5b9060200101907effffffffffffffffffffffffffffffffffffffffffffffffffffffffffffff1916908160001a9053508080600101915050614e3a565b600090505b8451811015614fa5578481815181101515614f0957fe5b9060200101517f010000000000000000000000000000000000000000000000000000000000000090047f0100000000000000000000000000000000000000000000000000000000000000028383806001019450815181101515614f6857fe5b9060200101907effffffffffffffffffffffffffffffffffffffffffffffffffffffffffffff1916908160001a9053508080600101915050614ef2565b82965050505050505092915050565b8173ffffffffffffffffffffffffffffffffffffffff16614fd482612424565b73ffffffffffffffffffffffffffffffffffffffff16141515614ff657600080fd5b6150496001600460008573ffffffffffffffffffffffffffffffffffffffff1673ffffffffffffffffffffffffffffffffffffffff168152602001908152602001600020546150e390919063ffffffff16565b600460008473ffffffffffffffffffffffffffffffffffffffff1673ffffffffffffffffffffffffffffffffffffffff1681526020019081526020016000208190555060006002600083815260200190815260200160002060006101000a81548173ffffffffffffffffffffffffffffffffffffffff021916908373ffffffffffffffffffffffffffffffffffffffff1602179055505050565b60008282111515156150f157fe5b818303905092915050565b600073ffffffffffffffffffffffffffffffffffffffff166002600083815260200190815260200160002060009054906101000a900473ffffffffffffffffffffffffffffffffffffffff1673ffffffffffffffffffffffffffffffffffffffff1614151561516a57600080fd5b816002600083815260200190815260200160002060006101000a81548173ffffffffffffffffffffffffffffffffffffffff021916908373ffffffffffffffffffffffffffffffffffffffff16021790555061520f6001600460008573ffffffffffffffffffffffffffffffffffffffff1673ffffffffffffffffffffffffffffffffffffffff1681526020019081526020016000205461544090919063ffffffff16565b600460008473ffffffffffffffffffffffffffffffffffffffff1673ffffffffffffffffffffffffffffffffffffffff168152602001908152602001600020819055505050565b600073ffffffffffffffffffffffffffffffffffffffff168273ffffffffffffffffffffffffffffffffffffffff161415151561529257600080fd5b61529c8282613faf565b8173ffffffffffffffffffffffffffffffffffffffff16600073ffffffffffffffffffffffffffffffffffffffff167fddf252ad1be2c89b69c2b068fc378daa952ba7f163c4a11628f55a4df523b3ef836040518082815260200191505060405180910390a35050565b60006153106155b8565b600060408051908101604052804267ffffffffffffffff1681526020018661ffff168152509150600160108390806001815401808255809150509060018203906000526020600020016000909192909190915060008201518160000160006101000a81548167ffffffffffffffff021916908367ffffffffffffffff16021790555060208201518160000160086101000a81548161ffff021916908361ffff16021790555050500390508373ffffffffffffffffffffffffffffffffffffffff167f01f56da6e10b9c620cc9acbe7ce65e4aaf046837947c092451776f76cf3a7edc8683604051808361ffff1661ffff1681526020018281526020019250505060405180910390a26154228482614086565b809250505092915050565b600080823b905060008111915050919050565b6000818301905082811015151561545357fe5b80905092915050565b828054600181600116156101000203166002900490600052602060002090601f016020900481019282601f1061549d57805160ff19168380011785556154cb565b828001600101855582156154cb579182015b828111156154ca5782518255916020019190600101906154af565b5b5090506154d8919061568c565b5090565b608060405190810160405280600067ffffffffffffffff16815260200160608152602001600063ffffffff168152602001600081525090565b60a060405190810160405280600590602082028038833980820191505090505090565b828054600181600116156101000203166002900490600052602060002090601f016020900481019282601f1061557957803560ff19168380011785556155a7565b828001600101855582156155a7579182015b828111156155a657823582559160200191906001019061558b565b5b5090506155b4919061568c565b5090565b6040805190810160405280600067ffffffffffffffff168152602001600061ffff1681525090565b81548183558181111561560757818360005260206000209182019101615606919061568c565b5b505050565b828054600181600116156101000203166002900490600052602060002090601f016020900481019282601f1061564d57805160ff191683800117855561567b565b8280016001018555821561567b579182015b8281111561567a57825182559160200191906001019061565f565b5b509050615688919061568c565b5090565b6156ae91905b808211156156aa576000816000905550600101615692565b5090565b905600a165627a7a723058202fea97829e15037478e99d3bf11f4c89afde5f23ce95bebc1742c7ab0268ceb60029",
  "source": "pragma solidity ^0.4.21;\nimport \"openzeppelin-zos/contracts/token/ERC721/MintableERC721Token.sol\";\nimport \"openzeppelin-zos/contracts/lifecycle/Pausable.sol\";\n\n/**\n * @title CBBC (Crypto Baseball Cards)\n */\ncontract Cbbc is MintableERC721Token, Pausable {\n\n  /// @dev Emit this event whenever we set a new API Base URL (see setApiBaseUri below)\n  event ApiBaseUriSet(string _api_base_url);\n  /// @dev Emit this event whenever we mint a new edition (see mintEdition below)\n  event EditionMinted(uint16 _newEditionId, string _name, uint32 _numCards, uint256 _packPrice);\n  /// @dev Emit this event whenever someone buys  a new 5 pack of cards (see buyFivePack below)\n  event FivePackBought(uint16 _editionId, address indexed _owner);\n  /// @dev Emit this event whenever we mint a new 5 pack of cards (see mintFivePack below)\n  event FivePackMinted(uint16 _editionId, address indexed _owner);\n  /// @dev Emit this event whenever we mint a new card (see _mintCard below)\n  event CardMinted(uint16 _editionId, uint256 _cardId, address indexed _owner);\n  /// @dev Emit this event whenever the contract fallback function is called\n  event FallBackPaid(address indexed _sender, uint256 _value);\n\n  /// @dev The struct representing the Crypto Baseball edition.\n  struct Edition {\n    // The timestamp at which this card was minted.\n    uint64 mintTime;\n    // The name of the Edition\n    string name;\n    // The number of cards in the Edition\n    uint32 numCards;\n    // The price for a pack of cards in the Edition\n    uint256 packPrice;\n  }\n\n  /// @dev The struct representing the Crypto Baseball card.\n  struct Card {\n    // The timestamp at which this card was minted.\n    uint64 mintTime;\n    // The CBBC Edition ID that the card belongs to\n    uint16 editionId;\n  }\n\n  /*** STORAGE ***/\n\n  // @dev The default API Base URI\n  string public constant API_BASE_URI = \"http//www.crypto-baseball-cards.com/cards/\";\n\n  // @dev The API Base URI\n  string public apiBaseUri;\n\n  /// @dev All the editions that have been minted, indexed by editionId.\n  Edition[] public editions;\n\n  /// @dev All the cards that have been minted, indexed by cardId.\n  Card[] public cards;\n\n  /// @dev Keeps track of how many cards we have minted for a given edition\n  mapping (uint16 => uint32) internal mintedCountForEditionId;\n\n  /// @dev We initialize with the standard params.\n  /// @param _sender is the Contract owner.\n  /// @param _name is the CBBC ERC721 token name.\n  /// @param _symbol is the CBBC ERC721 token symbol.\n  function initialize(address _sender, string _name, string _symbol) isInitializer(\"Cbbc\", \"0.1.0\")  public {\n    apiBaseUri = API_BASE_URI;\n    Ownable.initialize(_sender);\n    ERC721Token.initialize(_name, _symbol);\n  }\n\n  /// @dev Allows the contract owner to set a new API Base URL.\n  /// @param _apiBaseUri the new API Base URL\n  function setApiBaseUri(\n    string _apiBaseUri\n  )\n  external onlyOwner\n  returns (string)\n  {\n    apiBaseUri = _apiBaseUri;\n    return apiBaseUri;\n  }\n\n  /// @dev Allows the contract owner to mint a new edition of cards.\n  /// @param _name the name of the edition\n  /// @param _numCards the total number of cards in the edition\n  function mintEdition(\n    string _name,\n    uint32 _numCards,\n    uint256 _packPrice\n  )\n  external onlyOwner\n  returns (uint16)\n  {\n    return _mintEdition(_name, _numCards, _packPrice);\n  }\n\n  /// @dev An internal method that creates a new card and stores it.\n  /// Emits an EditionMinted event.\n  /// @param _name the name of the edition\n  /// @param _numCards the total number of cards in the edition\n  function _mintEdition(\n    string _name,\n    uint32 _numCards,\n    uint256 _packPrice\n  )\n  internal\n  returns (uint16)\n  {\n    Edition memory newEdition = Edition({\n      mintTime: uint64(now),\n      name: _name,\n      numCards: _numCards,\n      packPrice: _packPrice\n    });\n    uint16 newEditionId = uint16(editions.push(newEdition) - 1);\n    emit EditionMinted(newEditionId, _name, _numCards, _packPrice);\n    return newEditionId;\n  }\n\n  /// @dev Allows the public to buy and mint a pack of 5 cards.\n  /// @param _editionId is the CBBC edition ID for the 5 new cards.\n  /// @return The 5 new card IDs.\n  function buyFivePack(\n    uint16 _editionId\n  )\n  public payable\n  returns (uint256[5])\n  {\n    require(checkEditionExists(_editionId));\n    Edition memory edition = editions[_editionId];\n    require(msg.value >= edition.packPrice);\n    emit FivePackBought(_editionId, msg.sender);\n    return _mintFivePack(_editionId, msg.sender);\n  }\n\n  /// @dev Allows the contract owner to mint a pack of 5 cards.\n  /// @param _editionId is the CBBC edition ID for the 5 new cards.\n  /// @param _owner is the pack's owner.\n  /// @return The 5 new card IDs.\n  function mintFivePack(\n    uint16 _editionId,\n    address _owner\n  )\n  external onlyOwner\n  returns (uint256[5])\n  {\n    return _mintFivePack(_editionId, _owner);\n  }\n\n  /// @dev An internal method that mints a pack of 5 cards.\n  /// @param _editionId is the CBBC edition ID for the 5 new cards.\n  /// @param _owner is the pack's owner.\n  /// @return The 5 new card IDs.\n  function _mintFivePack(\n    uint16 _editionId,\n    address _owner\n  )\n  internal\n  returns (uint256[5])\n  {\n    require(_owner != address(this));\n    require(checkEditionExists(_editionId));\n    Edition memory edition = editions[_editionId];\n    assert(edition.numCards >= (mintedCountForEditionId[_editionId] + 5));\n    mintedCountForEditionId[_editionId] += 5;\n    uint256[5] memory cardIds;\n    emit FivePackMinted(_editionId, _owner);\n    cardIds[0] = _mintCard(_editionId, _owner);\n    cardIds[1] = _mintCard(_editionId, _owner);\n    cardIds[2] = _mintCard(_editionId, _owner);\n    cardIds[3] = _mintCard(_editionId, _owner);\n    cardIds[4] = _mintCard(_editionId, _owner);\n    return cardIds;\n  }\n\n  /// @dev An internal method that creates a new card and stores it.\n  ///  Emits both a CardMinted and a Transfer event.\n  /// @param _editionId The CBBC Edition ID that the card belongs to\n  /// @param _owner The card owner\n  function _mintCard(\n    uint16 _editionId,\n    address _owner\n  )\n    internal\n    returns (uint256)\n  {\n    Card memory newCard = Card({\n      mintTime: uint64(now),\n      editionId: _editionId\n    });\n    uint256 newCardId = cards.push(newCard) - 1;\n    emit CardMinted(_editionId, newCardId, _owner);\n    _mint(_owner, newCardId);\n    return newCardId;\n  }\n\n  /// @dev Returns the API URL for a given token Id.\n  /// see: https://docs.opensea.io/docs/2-adding-metadata\n  function tokenURI(uint256 _tokenId) public view returns (string) {\n    require(checkCardExists(_tokenId));\n    string memory _id = uint2str(_tokenId);\n    return strConcat(apiBaseUri, _id);\n  }\n\n  /// @dev Returns true if the edition with ID _editionId exists.\n  function checkEditionExists(uint16 _editionId) public view returns(bool){\n    if((_editionId >= 0) && (_editionId < editions.length)) {\n      return true;\n    } else {\n      return false;\n    }\n  }\n\n  /// @dev Returns the edition name, number of cards, minted count of cards for the edition, and pack price for a given _editionId.\n  /// see: https://docs.opensea.io/docs/2-adding-metadata\n  function editionInfo(uint16 _editionId) public view returns (string, uint32, uint32, uint256) {\n    require(checkEditionExists(_editionId));\n    Edition memory edition = editions[_editionId];\n    return (edition.name, edition.numCards, mintedCountForEditionId[_editionId], edition.packPrice);\n  }\n\n  /// @dev Returns true if the card with ID _cardId exists.\n  function checkCardExists(uint256 _cardId) public view returns(bool){\n    if((_cardId >= 0) && (_cardId < cards.length)) {\n      return true;\n    } else {\n      return false;\n    }\n  }\n\n  /// @dev Returns the edition id, minted card count for the edition and tokenURI for a given token Id.\n  /// see: https://docs.opensea.io/docs/2-adding-metadata\n  function cardInfo(uint256 _tokenId) public view returns (uint16, uint32, string) {\n    require(checkCardExists(_tokenId));\n    Card memory card = cards[_tokenId];\n    return (card.editionId, mintedCountForEditionId[card.editionId], tokenURI(_tokenId));\n  }\n\n  /// @dev Withdraw remaining contract balance to owner.\n  function withdraw() external onlyOwner {\n    msg.sender.transfer(address(this).balance);\n  }\n\n  /// @dev Fallback function, require no data and just emit a FallBackPaid event.\n  function () public payable {\n    require(msg.data.length == 0);\n    emit FallBackPaid(msg.sender, msg.value);\n  }\n\n  // String helpers below were taken from Oraclize.\n  // https://github.com/oraclize/ethereum-api/blob/master/oraclizeAPI_0.4.sol\n\n  function strConcat(string _a, string _b) internal pure returns (string) {\n    bytes memory _ba = bytes(_a);\n    bytes memory _bb = bytes(_b);\n    string memory ab = new string(_ba.length + _bb.length);\n    bytes memory bab = bytes(ab);\n    uint k = 0;\n    for (uint i = 0; i < _ba.length; i++) bab[k++] = _ba[i];\n    for (i = 0; i < _bb.length; i++) bab[k++] = _bb[i];\n    return string(bab);\n  }\n\n  function uint2str(uint i) internal pure returns (string) {\n    if (i == 0) return \"0\";\n    uint j = i;\n    uint len;\n    while (j != 0) {\n      len++;\n      j /= 10;\n    }\n    bytes memory bstr = new bytes(len);\n    uint k = len - 1;\n    while (i != 0) {\n      bstr[k--] = byte(48 + i % 10);\n      i /= 10;\n    }\n    return string(bstr);\n  }\n\n}\n",
  "sourcePath": "/Users/ramie/cbbc_smart_contracts/cbbc-zos/contracts/Cbbc.sol",
  "compiler": {
    "name": "solc",
    "version": "0.4.24+commit.e67f0147.Emscripten.clang"
  },
  "schemaVersion": "2.0.1",
  "updatedAt": "2018-10-08T23:10:18.824Z"
}