{
  "contractName": "Cbbc",
  "abi": [
    {
      "constant": true,
      "inputs": [],
      "name": "name",
      "outputs": [
        {
          "name": "",
          "type": "string"
        }
      ],
      "payable": false,
      "stateMutability": "view",
      "type": "function"
    },
    {
      "constant": true,
      "inputs": [
        {
          "name": "_tokenId",
          "type": "uint256"
        }
      ],
      "name": "getApproved",
      "outputs": [
        {
          "name": "",
          "type": "address"
        }
      ],
      "payable": false,
      "stateMutability": "view",
      "type": "function"
    },
    {
      "constant": false,
      "inputs": [
        {
          "name": "_to",
          "type": "address"
        },
        {
          "name": "_tokenId",
          "type": "uint256"
        }
      ],
      "name": "approve",
      "outputs": [],
      "payable": false,
      "stateMutability": "nonpayable",
      "type": "function"
    },
    {
      "constant": true,
      "inputs": [],
      "name": "totalSupply",
      "outputs": [
        {
          "name": "",
          "type": "uint256"
        }
      ],
      "payable": false,
      "stateMutability": "view",
      "type": "function"
    },
    {
      "constant": false,
      "inputs": [
        {
          "name": "_from",
          "type": "address"
        },
        {
          "name": "_to",
          "type": "address"
        },
        {
          "name": "_tokenId",
          "type": "uint256"
        }
      ],
      "name": "transferFrom",
      "outputs": [],
      "payable": false,
      "stateMutability": "nonpayable",
      "type": "function"
    },
    {
      "constant": true,
      "inputs": [
        {
          "name": "",
          "type": "uint256"
        }
      ],
      "name": "editions",
      "outputs": [
        {
          "name": "mintTime",
          "type": "uint64"
        },
        {
          "name": "name",
          "type": "string"
        },
        {
          "name": "numCards",
          "type": "uint16"
        }
      ],
      "payable": false,
      "stateMutability": "view",
      "type": "function"
    },
    {
      "constant": true,
      "inputs": [
        {
          "name": "_owner",
          "type": "address"
        },
        {
          "name": "_index",
          "type": "uint256"
        }
      ],
      "name": "tokenOfOwnerByIndex",
      "outputs": [
        {
          "name": "",
          "type": "uint256"
        }
      ],
      "payable": false,
      "stateMutability": "view",
      "type": "function"
    },
    {
      "constant": false,
      "inputs": [],
      "name": "unpause",
      "outputs": [],
      "payable": false,
      "stateMutability": "nonpayable",
      "type": "function"
    },
    {
      "constant": false,
      "inputs": [
        {
          "name": "_to",
          "type": "address"
        },
        {
          "name": "_tokenId",
          "type": "uint256"
        }
      ],
      "name": "mint",
      "outputs": [],
      "payable": false,
      "stateMutability": "nonpayable",
      "type": "function"
    },
    {
      "constant": false,
      "inputs": [
        {
          "name": "_from",
          "type": "address"
        },
        {
          "name": "_to",
          "type": "address"
        },
        {
          "name": "_tokenId",
          "type": "uint256"
        }
      ],
      "name": "safeTransferFrom",
      "outputs": [],
      "payable": false,
      "stateMutability": "nonpayable",
      "type": "function"
    },
    {
      "constant": true,
      "inputs": [],
      "name": "apiBaseUri",
      "outputs": [
        {
          "name": "",
          "type": "string"
        }
      ],
      "payable": false,
      "stateMutability": "view",
      "type": "function"
    },
    {
      "constant": true,
      "inputs": [
        {
          "name": "_tokenId",
          "type": "uint256"
        }
      ],
      "name": "exists",
      "outputs": [
        {
          "name": "",
          "type": "bool"
        }
      ],
      "payable": false,
      "stateMutability": "view",
      "type": "function"
    },
    {
      "constant": true,
      "inputs": [
        {
          "name": "_index",
          "type": "uint256"
        }
      ],
      "name": "tokenByIndex",
      "outputs": [
        {
          "name": "",
          "type": "uint256"
        }
      ],
      "payable": false,
      "stateMutability": "view",
      "type": "function"
    },
    {
      "constant": true,
      "inputs": [],
      "name": "paused",
      "outputs": [
        {
          "name": "",
          "type": "bool"
        }
      ],
      "payable": false,
      "stateMutability": "view",
      "type": "function"
    },
    {
      "constant": true,
      "inputs": [
        {
          "name": "_tokenId",
          "type": "uint256"
        }
      ],
      "name": "ownerOf",
      "outputs": [
        {
          "name": "",
          "type": "address"
        }
      ],
      "payable": false,
      "stateMutability": "view",
      "type": "function"
    },
    {
      "constant": true,
      "inputs": [
        {
          "name": "_owner",
          "type": "address"
        }
      ],
      "name": "balanceOf",
      "outputs": [
        {
          "name": "",
          "type": "uint256"
        }
      ],
      "payable": false,
      "stateMutability": "view",
      "type": "function"
    },
    {
      "constant": true,
      "inputs": [],
      "name": "API_BASE_URI",
      "outputs": [
        {
          "name": "",
          "type": "string"
        }
      ],
      "payable": false,
      "stateMutability": "view",
      "type": "function"
    },
    {
      "constant": false,
      "inputs": [],
      "name": "pause",
      "outputs": [],
      "payable": false,
      "stateMutability": "nonpayable",
      "type": "function"
    },
    {
      "constant": true,
      "inputs": [],
      "name": "owner",
      "outputs": [
        {
          "name": "",
          "type": "address"
        }
      ],
      "payable": false,
      "stateMutability": "view",
      "type": "function"
    },
    {
      "constant": true,
      "inputs": [
        {
          "name": "",
          "type": "uint256"
        }
      ],
      "name": "cards",
      "outputs": [
        {
          "name": "mintTime",
          "type": "uint64"
        },
        {
          "name": "playerBbrefId",
          "type": "bytes32"
        },
        {
          "name": "cardType",
          "type": "bytes32"
        },
        {
          "name": "editionId",
          "type": "uint16"
        },
        {
          "name": "seriesNumber",
          "type": "uint16"
        }
      ],
      "payable": false,
      "stateMutability": "view",
      "type": "function"
    },
    {
      "constant": true,
      "inputs": [],
      "name": "symbol",
      "outputs": [
        {
          "name": "",
          "type": "string"
        }
      ],
      "payable": false,
      "stateMutability": "view",
      "type": "function"
    },
    {
      "constant": false,
      "inputs": [
        {
          "name": "_to",
          "type": "address"
        },
        {
          "name": "_approved",
          "type": "bool"
        }
      ],
      "name": "setApprovalForAll",
      "outputs": [],
      "payable": false,
      "stateMutability": "nonpayable",
      "type": "function"
    },
    {
      "constant": false,
      "inputs": [
        {
          "name": "_from",
          "type": "address"
        },
        {
          "name": "_to",
          "type": "address"
        },
        {
          "name": "_tokenId",
          "type": "uint256"
        },
        {
          "name": "_data",
          "type": "bytes"
        }
      ],
      "name": "safeTransferFrom",
      "outputs": [],
      "payable": false,
      "stateMutability": "nonpayable",
      "type": "function"
    },
    {
      "constant": true,
      "inputs": [
        {
          "name": "contractName",
          "type": "string"
        },
        {
          "name": "migrationId",
          "type": "string"
        }
      ],
      "name": "isMigrated",
      "outputs": [
        {
          "name": "",
          "type": "bool"
        }
      ],
      "payable": false,
      "stateMutability": "view",
      "type": "function"
    },
    {
      "constant": true,
      "inputs": [
        {
          "name": "_owner",
          "type": "address"
        },
        {
          "name": "_operator",
          "type": "address"
        }
      ],
      "name": "isApprovedForAll",
      "outputs": [
        {
          "name": "",
          "type": "bool"
        }
      ],
      "payable": false,
      "stateMutability": "view",
      "type": "function"
    },
    {
      "constant": false,
      "inputs": [
        {
          "name": "newOwner",
          "type": "address"
        }
      ],
      "name": "transferOwnership",
      "outputs": [],
      "payable": false,
      "stateMutability": "nonpayable",
      "type": "function"
    },
    {
      "payable": true,
      "stateMutability": "payable",
      "type": "fallback"
    },
    {
      "anonymous": false,
      "inputs": [
        {
          "indexed": false,
          "name": "_api_base_url",
          "type": "string"
        }
      ],
      "name": "ApiBaseUriSet",
      "type": "event"
    },
    {
      "anonymous": false,
      "inputs": [
        {
          "indexed": false,
          "name": "_newEditionId",
          "type": "uint16"
        },
        {
          "indexed": false,
          "name": "_name",
          "type": "string"
        },
        {
          "indexed": false,
          "name": "_numCards",
          "type": "uint16"
        }
      ],
      "name": "EditionMinted",
      "type": "event"
    },
    {
      "anonymous": false,
      "inputs": [
        {
          "indexed": false,
          "name": "_editionId",
          "type": "uint16"
        },
        {
          "indexed": true,
          "name": "_owner",
          "type": "address"
        }
      ],
      "name": "FivePackMinted",
      "type": "event"
    },
    {
      "anonymous": false,
      "inputs": [
        {
          "indexed": false,
          "name": "_playerBbrefId",
          "type": "bytes32"
        },
        {
          "indexed": false,
          "name": "_cardType",
          "type": "bytes32"
        },
        {
          "indexed": false,
          "name": "_editionId",
          "type": "uint16"
        },
        {
          "indexed": false,
          "name": "_seriesNumber",
          "type": "uint16"
        },
        {
          "indexed": false,
          "name": "_cardId",
          "type": "uint256"
        },
        {
          "indexed": true,
          "name": "_owner",
          "type": "address"
        }
      ],
      "name": "CardMinted",
      "type": "event"
    },
    {
      "anonymous": false,
      "inputs": [
        {
          "indexed": true,
          "name": "_sender",
          "type": "address"
        },
        {
          "indexed": false,
          "name": "_value",
          "type": "uint256"
        }
      ],
      "name": "FallBackPaid",
      "type": "event"
    },
    {
      "anonymous": false,
      "inputs": [],
      "name": "Pause",
      "type": "event"
    },
    {
      "anonymous": false,
      "inputs": [],
      "name": "Unpause",
      "type": "event"
    },
    {
      "anonymous": false,
      "inputs": [
        {
          "indexed": true,
          "name": "_from",
          "type": "address"
        },
        {
          "indexed": true,
          "name": "_to",
          "type": "address"
        },
        {
          "indexed": false,
          "name": "_tokenId",
          "type": "uint256"
        }
      ],
      "name": "Transfer",
      "type": "event"
    },
    {
      "anonymous": false,
      "inputs": [
        {
          "indexed": true,
          "name": "_owner",
          "type": "address"
        },
        {
          "indexed": true,
          "name": "_approved",
          "type": "address"
        },
        {
          "indexed": false,
          "name": "_tokenId",
          "type": "uint256"
        }
      ],
      "name": "Approval",
      "type": "event"
    },
    {
      "anonymous": false,
      "inputs": [
        {
          "indexed": true,
          "name": "_owner",
          "type": "address"
        },
        {
          "indexed": true,
          "name": "_operator",
          "type": "address"
        },
        {
          "indexed": false,
          "name": "_approved",
          "type": "bool"
        }
      ],
      "name": "ApprovalForAll",
      "type": "event"
    },
    {
      "anonymous": false,
      "inputs": [
        {
          "indexed": true,
          "name": "previousOwner",
          "type": "address"
        },
        {
          "indexed": true,
          "name": "newOwner",
          "type": "address"
        }
      ],
      "name": "OwnershipTransferred",
      "type": "event"
    },
    {
      "anonymous": false,
      "inputs": [
        {
          "indexed": false,
          "name": "contractName",
          "type": "string"
        },
        {
          "indexed": false,
          "name": "migrationId",
          "type": "string"
        }
      ],
      "name": "Migrated",
      "type": "event"
    },
    {
      "constant": false,
      "inputs": [],
      "name": "initialize",
      "outputs": [],
      "payable": false,
      "stateMutability": "nonpayable",
      "type": "function"
    },
    {
      "constant": false,
      "inputs": [
        {
          "name": "_sender",
          "type": "address"
        }
      ],
      "name": "initialize",
      "outputs": [],
      "payable": false,
      "stateMutability": "nonpayable",
      "type": "function"
    },
    {
      "constant": false,
      "inputs": [
        {
          "name": "_sender",
          "type": "address"
        },
        {
          "name": "_name",
          "type": "string"
        },
        {
          "name": "_symbol",
          "type": "string"
        }
      ],
      "name": "initialize",
      "outputs": [],
      "payable": false,
      "stateMutability": "nonpayable",
      "type": "function"
    },
    {
      "constant": false,
      "inputs": [
        {
          "name": "_name",
          "type": "string"
        },
        {
          "name": "_symbol",
          "type": "string"
        }
      ],
      "name": "initialize",
      "outputs": [],
      "payable": false,
      "stateMutability": "nonpayable",
      "type": "function"
    },
    {
      "constant": false,
      "inputs": [
        {
          "name": "_apiBaseUri",
          "type": "string"
        }
      ],
      "name": "setApiBaseUri",
      "outputs": [
        {
          "name": "",
          "type": "string"
        }
      ],
      "payable": false,
      "stateMutability": "nonpayable",
      "type": "function"
    },
    {
      "constant": false,
      "inputs": [
        {
          "name": "_name",
          "type": "string"
        },
        {
          "name": "_numCards",
          "type": "uint16"
        }
      ],
      "name": "mintEdition",
      "outputs": [
        {
          "name": "",
          "type": "uint16"
        }
      ],
      "payable": false,
      "stateMutability": "nonpayable",
      "type": "function"
    },
    {
      "constant": false,
      "inputs": [
        {
          "name": "_playerBbrefIds",
          "type": "bytes32[5]"
        },
        {
          "name": "_cardTypes",
          "type": "bytes32[5]"
        },
        {
          "name": "_editionId",
          "type": "uint16"
        },
        {
          "name": "_owner",
          "type": "address"
        }
      ],
      "name": "mintFivePack",
      "outputs": [
        {
          "name": "",
          "type": "uint256[5]"
        }
      ],
      "payable": false,
      "stateMutability": "nonpayable",
      "type": "function"
    },
    {
      "constant": true,
      "inputs": [
        {
          "name": "_tokenId",
          "type": "uint256"
        }
      ],
      "name": "tokenURI",
      "outputs": [
        {
          "name": "",
          "type": "string"
        }
      ],
      "payable": false,
      "stateMutability": "view",
      "type": "function"
    },
    {
      "constant": true,
      "inputs": [
        {
          "name": "_editionId",
          "type": "uint16"
        }
      ],
      "name": "checkEditionExists",
      "outputs": [
        {
          "name": "",
          "type": "bool"
        }
      ],
      "payable": false,
      "stateMutability": "view",
      "type": "function"
    },
    {
      "constant": true,
      "inputs": [],
      "name": "numberOfEditions",
      "outputs": [
        {
          "name": "",
          "type": "uint256"
        }
      ],
      "payable": false,
      "stateMutability": "view",
      "type": "function"
    },
    {
      "constant": true,
      "inputs": [
        {
          "name": "_editionId",
          "type": "uint16"
        }
      ],
      "name": "editionInfo",
      "outputs": [
        {
          "name": "",
          "type": "string"
        },
        {
          "name": "",
          "type": "uint16"
        },
        {
          "name": "",
          "type": "uint16"
        }
      ],
      "payable": false,
      "stateMutability": "view",
      "type": "function"
    },
    {
      "constant": true,
      "inputs": [
        {
          "name": "_cardId",
          "type": "uint256"
        }
      ],
      "name": "checkCardExists",
      "outputs": [
        {
          "name": "",
          "type": "bool"
        }
      ],
      "payable": false,
      "stateMutability": "view",
      "type": "function"
    },
    {
      "constant": true,
      "inputs": [],
      "name": "numberOfCards",
      "outputs": [
        {
          "name": "",
          "type": "uint256"
        }
      ],
      "payable": false,
      "stateMutability": "view",
      "type": "function"
    },
    {
      "constant": true,
      "inputs": [
        {
          "name": "_cardId",
          "type": "uint256"
        }
      ],
      "name": "cardInfo",
      "outputs": [
        {
          "name": "",
          "type": "bytes32"
        },
        {
          "name": "",
          "type": "bytes32"
        },
        {
          "name": "",
          "type": "uint16"
        },
        {
          "name": "",
          "type": "uint16"
        },
        {
          "name": "",
          "type": "uint16"
        }
      ],
      "payable": false,
      "stateMutability": "view",
      "type": "function"
    },
    {
      "constant": false,
      "inputs": [],
      "name": "withdraw",
      "outputs": [],
      "payable": false,
      "stateMutability": "nonpayable",
      "type": "function"
    }
  ],
  "bytecode": "0x60806040526000600d60006101000a81548160ff02191690831515021790555034801561002b57600080fd5b50615624806200003c6000396000f3006080604052600436106101f9576000357c0100000000000000000000000000000000000000000000000000000000900463ffffffff16806306fdde031461025b578063081812fc146102eb578063095ea7b31461035857806318160ddd146103a557806323b872dd146103d0578063279c806e1461043d5780632f745c591461050d5780633aee0d7d1461056e5780633ccfd60b146105b35780633f4ba83a146105ca57806340c10f19146105e157806342842e0e1461062e578063440483261461069b5780634a2a78341461072b5780634afe5a7f146107745780634cd88b761461079f5780634f558e791461084e5780634f6ccce7146108935780634fba0240146108d4578063556a4e2d1461099c5780635c975abb14610a015780636352211e14610a3057806370a0823114610a9d5780637ad02db614610af45780638129fc1c14610b8457806381efd70814610b9b5780638456cb5914610bc65780638da5cb5b14610bdd5780638dc1076814610c345780639065714714610cc557806395d89b4114610d94578063a22cb46514610e24578063a79b091314610e73578063b88d4fde14610f27578063c0bac1a814610fda578063c4d66de8146110a1578063c87b56dd146110e4578063da11eb491461118a578063e985e9c51461122b578063f2fde38b146112a6578063f77843dd146112e9575b60008036905014151561020b57600080fd5b3373ffffffffffffffffffffffffffffffffffffffff167f32e1bd3d69af89240f5d43cc1e3bcb727af08b1f45dadea82446b2d3f74dbf88346040518082815260200191505060405180910390a2005b34801561026757600080fd5b5061027061136e565b6040518080602001828103825283818151815260200191508051906020019080838360005b838110156102b0578082015181840152602081019050610295565b50505050905090810190601f1680156102dd5780820380516001836020036101000a031916815260200191505b509250505060405180910390f35b3480156102f757600080fd5b5061031660048036038101908080359060200190929190505050611410565b604051808273ffffffffffffffffffffffffffffffffffffffff1673ffffffffffffffffffffffffffffffffffffffff16815260200191505060405180910390f35b34801561036457600080fd5b506103a3600480360381019080803573ffffffffffffffffffffffffffffffffffffffff1690602001909291908035906020019092919050505061144d565b005b3480156103b157600080fd5b506103ba611613565b6040518082815260200191505060405180910390f35b3480156103dc57600080fd5b5061043b600480360381019080803573ffffffffffffffffffffffffffffffffffffffff169060200190929190803573ffffffffffffffffffffffffffffffffffffffff16906020019092919080359060200190929190505050611620565b005b34801561044957600080fd5b5061046860048036038101908080359060200190929190505050611737565b604051808467ffffffffffffffff1667ffffffffffffffff168152602001806020018361ffff1661ffff168152602001828103825284818151815260200191508051906020019080838360005b838110156104d05780820151818401526020810190506104b5565b50505050905090810190601f1680156104fd5780820380516001836020036101000a031916815260200191505b5094505050505060405180910390f35b34801561051957600080fd5b50610558600480360381019080803573ffffffffffffffffffffffffffffffffffffffff1690602001909291908035906020019092919050505061182a565b6040518082815260200191505060405180910390f35b34801561057a57600080fd5b50610599600480360381019080803590602001909291905050506118a1565b604051808215151515815260200191505060405180910390f35b3480156105bf57600080fd5b506105c86118cf565b005b3480156105d657600080fd5b506105df61198b565b005b3480156105ed57600080fd5b5061062c600480360381019080803573ffffffffffffffffffffffffffffffffffffffff16906020019092919080359060200190929190505050611a4b565b005b34801561063a57600080fd5b50610699600480360381019080803573ffffffffffffffffffffffffffffffffffffffff169060200190929190803573ffffffffffffffffffffffffffffffffffffffff16906020019092919080359060200190929190505050611ab5565b005b3480156106a757600080fd5b506106b0611aed565b6040518080602001828103825283818151815260200191508051906020019080838360005b838110156106f05780820151818401526020810190506106d5565b50505050905090810190601f16801561071d5780820380516001836020036101000a031916815260200191505b509250505060405180910390f35b34801561073757600080fd5b5061075a600480360381019080803561ffff169060200190929190505050611b8b565b604051808215151515815260200191505060405180910390f35b34801561078057600080fd5b50610789611bc1565b6040518082815260200191505060405180910390f35b3480156107ab57600080fd5b5061084c600480360381019080803590602001908201803590602001908080601f0160208091040260200160405190810160405280939291908181526020018383808284378201915050505050509192919290803590602001908201803590602001908080601f0160208091040260200160405190810160405280939291908181526020018383808284378201915050505050509192919290505050611bce565b005b34801561085a57600080fd5b5061087960048036038101908080359060200190929190505050611fcf565b604051808215151515815260200191505060405180910390f35b34801561089f57600080fd5b506108be60048036038101908080359060200190929190505050612041565b6040518082815260200191505060405180910390f35b3480156108e057600080fd5b50610903600480360381019080803561ffff169060200190929190505050612079565b60405180806020018461ffff1661ffff1681526020018361ffff1661ffff168152602001828103825285818151815260200191508051906020019080838360005b8381101561095f578082015181840152602081019050610944565b50505050905090810190601f16801561098c5780820380516001836020036101000a031916815260200191505b5094505050505060405180910390f35b3480156109a857600080fd5b506109e3600480360381019080803590602001908201803590602001919091929391929390803561ffff169060200190929190505050612202565b604051808261ffff1661ffff16815260200191505060405180910390f35b348015610a0d57600080fd5b50610a166122a5565b604051808215151515815260200191505060405180910390f35b348015610a3c57600080fd5b50610a5b600480360381019080803590602001909291905050506122b8565b604051808273ffffffffffffffffffffffffffffffffffffffff1673ffffffffffffffffffffffffffffffffffffffff16815260200191505060405180910390f35b348015610aa957600080fd5b50610ade600480360381019080803573ffffffffffffffffffffffffffffffffffffffff169060200190929190505050612336565b6040518082815260200191505060405180910390f35b348015610b0057600080fd5b50610b096123ba565b6040518080602001828103825283818151815260200191508051906020019080838360005b83811015610b49578082015181840152602081019050610b2e565b50505050905090810190601f168015610b765780820380516001836020036101000a031916815260200191505b509250505060405180910390f35b348015610b9057600080fd5b50610b9961241a565b005b348015610ba757600080fd5b50610bb06127eb565b6040518082815260200191505060405180910390f35b348015610bd257600080fd5b50610bdb6127f8565b005b348015610be957600080fd5b50610bf26128b9565b604051808273ffffffffffffffffffffffffffffffffffffffff1673ffffffffffffffffffffffffffffffffffffffff16815260200191505060405180910390f35b348015610c4057600080fd5b50610c5f600480360381019080803590602001909291905050506128df565b604051808667ffffffffffffffff1667ffffffffffffffff168152602001856000191660001916815260200184600019166000191681526020018361ffff1661ffff1681526020018261ffff1661ffff1681526020019550505050505060405180910390f35b348015610cd157600080fd5b50610d92600480360381019080803573ffffffffffffffffffffffffffffffffffffffff169060200190929190803590602001908201803590602001908080601f0160208091040260200160405190810160405280939291908181526020018383808284378201915050505050509192919290803590602001908201803590602001908080601f0160208091040260200160405190810160405280939291908181526020018383808284378201915050505050509192919290505050612954565b005b348015610da057600080fd5b50610da9612dae565b6040518080602001828103825283818151815260200191508051906020019080838360005b83811015610de9578082015181840152602081019050610dce565b50505050905090810190601f168015610e165780820380516001836020036101000a031916815260200191505b509250505060405180910390f35b348015610e3057600080fd5b50610e71600480360381019080803573ffffffffffffffffffffffffffffffffffffffff169060200190929190803515159060200190929190505050612e50565b005b348015610e7f57600080fd5b50610eac600480360381019080803590602001908201803590602001919091929391929390505050612f8c565b6040518080602001828103825283818151815260200191508051906020019080838360005b83811015610eec578082015181840152602081019050610ed1565b50505050905090810190601f168015610f195780820380516001836020036101000a031916815260200191505b509250505060405180910390f35b348015610f3357600080fd5b50610fd8600480360381019080803573ffffffffffffffffffffffffffffffffffffffff169060200190929190803573ffffffffffffffffffffffffffffffffffffffff16906020019092919080359060200190929190803590602001908201803590602001908080601f016020809104026020016040519081016040528093929190818152602001838380828437820191505050505050919291929050505061309f565b005b348015610fe657600080fd5b50611087600480360381019080803590602001908201803590602001908080601f0160208091040260200160405190810160405280939291908181526020018383808284378201915050505050509192919290803590602001908201803590602001908080601f01602080910402602001604051908101604052809392919081815260200183838082843782019150505050505091929192905050506130de565b604051808215151515815260200191505060405180910390f35b3480156110ad57600080fd5b506110e2600480360381019080803573ffffffffffffffffffffffffffffffffffffffff1690602001909291905050506131c9565b005b3480156110f057600080fd5b5061110f600480360381019080803590602001909291905050506135a4565b6040518080602001828103825283818151815260200191508051906020019080838360005b8381101561114f578082015181840152602081019050611134565b50505050905090810190601f16801561117c5780820380516001836020036101000a031916815260200191505b509250505060405180910390f35b34801561119657600080fd5b506111ed6004803603810190808060a0019091929192908060a001909192919290803561ffff169060200190929190803573ffffffffffffffffffffffffffffffffffffffff169060200190929190505050613672565b6040518082600560200280838360005b838110156112185780820151818401526020810190506111fd565b5050505090500191505060405180910390f35b34801561123757600080fd5b5061128c600480360381019080803573ffffffffffffffffffffffffffffffffffffffff169060200190929190803573ffffffffffffffffffffffffffffffffffffffff1690602001909291905050506139b4565b604051808215151515815260200191505060405180910390f35b3480156112b257600080fd5b506112e7600480360381019080803573ffffffffffffffffffffffffffffffffffffffff169060200190929190505050613a48565b005b3480156112f557600080fd5b5061131460048036038101908080359060200190929190505050613ba0565b60405180866000191660001916815260200185600019166000191681526020018461ffff1661ffff1681526020018361ffff1661ffff1681526020018261ffff1661ffff1681526020019550505050505060405180910390f35b606060068054600181600116156101000203166002900480601f0160208091040260200160405190810160405280929190818152602001828054600181600116156101000203166002900480156114065780601f106113db57610100808354040283529160200191611406565b820191906000526020600020905b8154815290600101906020018083116113e957829003601f168201915b5050505050905090565b60006003600083815260200190815260200160002060009054906101000a900473ffffffffffffffffffffffffffffffffffffffff169050919050565b6000611458826122b8565b90508073ffffffffffffffffffffffffffffffffffffffff168373ffffffffffffffffffffffffffffffffffffffff161415151561149557600080fd5b8073ffffffffffffffffffffffffffffffffffffffff163373ffffffffffffffffffffffffffffffffffffffff1614806114d557506114d481336139b4565b5b15156114e057600080fd5b600073ffffffffffffffffffffffffffffffffffffffff1661150183611410565b73ffffffffffffffffffffffffffffffffffffffff161415806115515750600073ffffffffffffffffffffffffffffffffffffffff168373ffffffffffffffffffffffffffffffffffffffff1614155b1561160e57826003600084815260200190815260200160002060006101000a81548173ffffffffffffffffffffffffffffffffffffffff021916908373ffffffffffffffffffffffffffffffffffffffff1602179055508273ffffffffffffffffffffffffffffffffffffffff168173ffffffffffffffffffffffffffffffffffffffff167f8c5be1e5ebec7d5bd14f71427d1e84f3dd0314c0f7b2291e5b200ac8c7c3b925846040518082815260200191505060405180910390a35b505050565b6000600a80549050905090565b8061162b3382613d15565b151561163657600080fd5b600073ffffffffffffffffffffffffffffffffffffffff168473ffffffffffffffffffffffffffffffffffffffff161415151561167257600080fd5b600073ffffffffffffffffffffffffffffffffffffffff168373ffffffffffffffffffffffffffffffffffffffff16141515156116ae57600080fd5b6116b88483613daa565b6116c28483613f13565b6116cc838361412b565b8273ffffffffffffffffffffffffffffffffffffffff168473ffffffffffffffffffffffffffffffffffffffff167fddf252ad1be2c89b69c2b068fc378daa952ba7f163c4a11628f55a4df523b3ef846040518082815260200191505060405180910390a350505050565b600f8181548110151561174657fe5b90600052602060002090600302016000915090508060000160009054906101000a900467ffffffffffffffff1690806001018054600181600116156101000203166002900480601f01602080910402602001604051908101604052809291908181526020018280546001816001161561010002031660029004801561180c5780601f106117e15761010080835404028352916020019161180c565b820191906000526020600020905b8154815290600101906020018083116117ef57829003601f168201915b5050505050908060020160009054906101000a900461ffff16905083565b600061183583612336565b8210151561184257600080fd5b600860008473ffffffffffffffffffffffffffffffffffffffff1673ffffffffffffffffffffffffffffffffffffffff1681526020019081526020016000208281548110151561188e57fe5b9060005260206000200154905092915050565b60008082101580156118b7575060108054905082105b156118c557600190506118ca565b600090505b919050565b600160009054906101000a900473ffffffffffffffffffffffffffffffffffffffff1673ffffffffffffffffffffffffffffffffffffffff163373ffffffffffffffffffffffffffffffffffffffff1614151561192b57600080fd5b3373ffffffffffffffffffffffffffffffffffffffff166108fc3073ffffffffffffffffffffffffffffffffffffffff16319081150290604051600060405180830381858888f19350505050158015611988573d6000803e3d6000fd5b50565b600160009054906101000a900473ffffffffffffffffffffffffffffffffffffffff1673ffffffffffffffffffffffffffffffffffffffff163373ffffffffffffffffffffffffffffffffffffffff161415156119e757600080fd5b600d60009054906101000a900460ff161515611a0257600080fd5b6000600d60006101000a81548160ff0219169083151502179055507f7805862f689e2f13df9f062ff482ad3ad112aca9e0847911ed832e158c525b3360405160405180910390a1565b600160009054906101000a900473ffffffffffffffffffffffffffffffffffffffff1673ffffffffffffffffffffffffffffffffffffffff163373ffffffffffffffffffffffffffffffffffffffff16141515611aa757600080fd5b611ab18282614202565b5050565b80611ac03382613d15565b1515611acb57600080fd5b611ae7848484602060405190810160405280600081525061309f565b50505050565b600e8054600181600116156101000203166002900480601f016020809104026020016040519081016040528092919081815260200182805460018160011615610100020316600290048015611b835780601f10611b5857610100808354040283529160200191611b83565b820191906000526020600020905b815481529060010190602001808311611b6657829003601f168201915b505050505081565b6000808261ffff1610158015611ba95750600f805490508261ffff16105b15611bb75760019050611bbc565b600090505b919050565b6000600f80549050905090565b6040805190810160405280600b81526020017f455243373231546f6b656e0000000000000000000000000000000000000000008152506040805190810160405280600581526020017f312e392e30000000000000000000000000000000000000000000000000000000815250611c79826040805190810160405280600b81526020017f696e697469616c697a6564000000000000000000000000000000000000000000815250614259565b611c838282614259565b8360069080519060200190611c9992919061538c565b508260079080519060200190611cb092919061538c565b507fdd117a11c22118c9dee4b5a67ce578bc44529dce21ee0ccc439588fbb9fb4ea38282604051808060200180602001838103835285818151815260200191508051906020019080838360005b83811015611d18578082015181840152602081019050611cfd565b50505050905090810190601f168015611d455780820380516001836020036101000a031916815260200191505b50838103825284818151815260200191508051906020019080838360005b83811015611d7e578082015181840152602081019050611d63565b50505050905090810190601f168015611dab5780820380516001836020036101000a031916815260200191505b5094505050505060405180910390a160016000836040518082805190602001908083835b602083101515611df45780518252602082019150602081019050602083039250611dcf565b6001836020036101000a0380198251168184511680821785525050505050509050019150509081526020016040518091039020826040518082805190602001908083835b602083101515611e5d5780518252602082019150602081019050602083039250611e38565b6001836020036101000a038019825116818451168082178552505050505050905001915050908152602001604051809103902060006101000a81548160ff02191690831515021790555060016000836040518082805190602001908083835b602083101515611ee15780518252602082019150602081019050602083039250611ebc565b6001836020036101000a03801982511681845116808217855250505050505090500191505090815260200160405180910390206040805190810160405280600b81526020017f696e697469616c697a65640000000000000000000000000000000000000000008152506040518082805190602001908083835b602083101515611f7f5780518252602082019150602081019050602083039250611f5a565b6001836020036101000a038019825116818451168082178552505050505050905001915050908152602001604051809103902060006101000a81548160ff02191690831515021790555050505050565b6000806002600084815260200190815260200160002060009054906101000a900473ffffffffffffffffffffffffffffffffffffffff169050600073ffffffffffffffffffffffffffffffffffffffff168173ffffffffffffffffffffffffffffffffffffffff161415915050919050565b600061204b611613565b8210151561205857600080fd5b600a8281548110151561206757fe5b90600052602060002001549050919050565b606060008061208661540c565b61208f85611b8b565b151561209a57600080fd5b600f8561ffff168154811015156120ad57fe5b9060005260206000209060030201606060405190810160405290816000820160009054906101000a900467ffffffffffffffff1667ffffffffffffffff1667ffffffffffffffff168152602001600182018054600181600116156101000203166002900480601f0160208091040260200160405190810160405280929190818152602001828054600181600116156101000203166002900480156121925780601f1061216757610100808354040283529160200191612192565b820191906000526020600020905b81548152906001019060200180831161217557829003601f168201915b505050505081526020016002820160009054906101000a900461ffff1661ffff1661ffff1681525050905080602001518160400151601160008861ffff1661ffff16815260200190815260200160002060009054906101000a900461ffff16829250935093509350509193909250565b6000600160009054906101000a900473ffffffffffffffffffffffffffffffffffffffff1673ffffffffffffffffffffffffffffffffffffffff163373ffffffffffffffffffffffffffffffffffffffff1614151561226057600080fd5b61229c84848080601f01602080910402602001604051908101604052809392919081815260200183838082843782019150505050505083614302565b90509392505050565b600d60009054906101000a900460ff1681565b6000806002600084815260200190815260200160002060009054906101000a900473ffffffffffffffffffffffffffffffffffffffff169050600073ffffffffffffffffffffffffffffffffffffffff168173ffffffffffffffffffffffffffffffffffffffff161415151561232d57600080fd5b80915050919050565b60008073ffffffffffffffffffffffffffffffffffffffff168273ffffffffffffffffffffffffffffffffffffffff161415151561237357600080fd5b600460008373ffffffffffffffffffffffffffffffffffffffff1673ffffffffffffffffffffffffffffffffffffffff168152602001908152602001600020549050919050565b606060405190810160405280602a81526020017f687474702f2f6170692e63727970746f2d6261736562616c6c2d63617264732e81526020017f636f6d2f63617264732f0000000000000000000000000000000000000000000081525081565b6040805190810160405280600a81526020017f4d696772617461626c65000000000000000000000000000000000000000000008152506040805190810160405280600581526020017f312e322e310000000000000000000000000000000000000000000000000000008152506124c5826040805190810160405280600b81526020017f696e697469616c697a6564000000000000000000000000000000000000000000815250614259565b6124cf8282614259565b7fdd117a11c22118c9dee4b5a67ce578bc44529dce21ee0ccc439588fbb9fb4ea38282604051808060200180602001838103835285818151815260200191508051906020019080838360005b8381101561253657808201518184015260208101905061251b565b50505050905090810190601f1680156125635780820380516001836020036101000a031916815260200191505b50838103825284818151815260200191508051906020019080838360005b8381101561259c578082015181840152602081019050612581565b50505050905090810190601f1680156125c95780820380516001836020036101000a031916815260200191505b5094505050505060405180910390a160016000836040518082805190602001908083835b60208310151561261257805182526020820191506020810190506020830392506125ed565b6001836020036101000a0380198251168184511680821785525050505050509050019150509081526020016040518091039020826040518082805190602001908083835b60208310151561267b5780518252602082019150602081019050602083039250612656565b6001836020036101000a038019825116818451168082178552505050505050905001915050908152602001604051809103902060006101000a81548160ff02191690831515021790555060016000836040518082805190602001908083835b6020831015156126ff57805182526020820191506020810190506020830392506126da565b6001836020036101000a03801982511681845116808217855250505050505090500191505090815260200160405180910390206040805190810160405280600b81526020017f696e697469616c697a65640000000000000000000000000000000000000000008152506040518082805190602001908083835b60208310151561279d5780518252602082019150602081019050602083039250612778565b6001836020036101000a038019825116818451168082178552505050505050905001915050908152602001604051809103902060006101000a81548160ff0219169083151502179055505050565b6000601080549050905090565b600160009054906101000a900473ffffffffffffffffffffffffffffffffffffffff1673ffffffffffffffffffffffffffffffffffffffff163373ffffffffffffffffffffffffffffffffffffffff1614151561285457600080fd5b600d60009054906101000a900460ff1615151561287057600080fd5b6001600d60006101000a81548160ff0219169083151502179055507f6985a02210a168e66602d3235cb6db0e70f92b3ba4d376a33c0f3d9434bff62560405160405180910390a1565b600160009054906101000a900473ffffffffffffffffffffffffffffffffffffffff1681565b6010818154811015156128ee57fe5b90600052602060002090600402016000915090508060000160009054906101000a900467ffffffffffffffff16908060010154908060020154908060030160009054906101000a900461ffff16908060030160029054906101000a900461ffff16905085565b6040805190810160405280600481526020017f43626263000000000000000000000000000000000000000000000000000000008152506040805190810160405280600581526020017f302e312e300000000000000000000000000000000000000000000000000000008152506129ff826040805190810160405280600b81526020017f696e697469616c697a6564000000000000000000000000000000000000000000815250614259565b612a098282614259565b606060405190810160405280602a81526020017f687474702f2f6170692e63727970746f2d6261736562616c6c2d63617264732e81526020017f636f6d2f63617264732f00000000000000000000000000000000000000000000815250600e9080519060200190612a7b92919061538c565b50612a85856144a5565b612a8f8484611bce565b7fdd117a11c22118c9dee4b5a67ce578bc44529dce21ee0ccc439588fbb9fb4ea38282604051808060200180602001838103835285818151815260200191508051906020019080838360005b83811015612af6578082015181840152602081019050612adb565b50505050905090810190601f168015612b235780820380516001836020036101000a031916815260200191505b50838103825284818151815260200191508051906020019080838360005b83811015612b5c578082015181840152602081019050612b41565b50505050905090810190601f168015612b895780820380516001836020036101000a031916815260200191505b5094505050505060405180910390a160016000836040518082805190602001908083835b602083101515612bd25780518252602082019150602081019050602083039250612bad565b6001836020036101000a0380198251168184511680821785525050505050509050019150509081526020016040518091039020826040518082805190602001908083835b602083101515612c3b5780518252602082019150602081019050602083039250612c16565b6001836020036101000a038019825116818451168082178552505050505050905001915050908152602001604051809103902060006101000a81548160ff02191690831515021790555060016000836040518082805190602001908083835b602083101515612cbf5780518252602082019150602081019050602083039250612c9a565b6001836020036101000a03801982511681845116808217855250505050505090500191505090815260200160405180910390206040805190810160405280600b81526020017f696e697469616c697a65640000000000000000000000000000000000000000008152506040518082805190602001908083835b602083101515612d5d5780518252602082019150602081019050602083039250612d38565b6001836020036101000a038019825116818451168082178552505050505050905001915050908152602001604051809103902060006101000a81548160ff0219169083151502179055505050505050565b606060078054600181600116156101000203166002900480601f016020809104026020016040519081016040528092919081815260200182805460018160011615610100020316600290048015612e465780601f10612e1b57610100808354040283529160200191612e46565b820191906000526020600020905b815481529060010190602001808311612e2957829003601f168201915b5050505050905090565b3373ffffffffffffffffffffffffffffffffffffffff168273ffffffffffffffffffffffffffffffffffffffff1614151515612e8b57600080fd5b80600560003373ffffffffffffffffffffffffffffffffffffffff1673ffffffffffffffffffffffffffffffffffffffff16815260200190815260200160002060008473ffffffffffffffffffffffffffffffffffffffff1673ffffffffffffffffffffffffffffffffffffffff16815260200190815260200160002060006101000a81548160ff0219169083151502179055508173ffffffffffffffffffffffffffffffffffffffff163373ffffffffffffffffffffffffffffffffffffffff167f17307eab39ab6107e8899845ad3d59bd9653f200f220920489ca2b5937696c3183604051808215151515815260200191505060405180910390a35050565b6060600160009054906101000a900473ffffffffffffffffffffffffffffffffffffffff1673ffffffffffffffffffffffffffffffffffffffff163373ffffffffffffffffffffffffffffffffffffffff16141515612fea57600080fd5b8282600e9190612ffb92919061543c565b50600e8054600181600116156101000203166002900480601f0160208091040260200160405190810160405280929190818152602001828054600181600116156101000203166002900480156130925780601f1061306757610100808354040283529160200191613092565b820191906000526020600020905b81548152906001019060200180831161307557829003601f168201915b5050505050905092915050565b816130aa3382613d15565b15156130b557600080fd5b6130c0858585611620565b6130cc858585856148b8565b15156130d757600080fd5b5050505050565b600080836040518082805190602001908083835b60208310151561311757805182526020820191506020810190506020830392506130f2565b6001836020036101000a0380198251168184511680821785525050505050509050019150509081526020016040518091039020826040518082805190602001908083835b602083101515613180578051825260208201915060208101905060208303925061315b565b6001836020036101000a038019825116818451168082178552505050505050905001915050908152602001604051809103902060009054906101000a900460ff16905092915050565b6040805190810160405280600881526020017f5061757361626c650000000000000000000000000000000000000000000000008152506040805190810160405280600581526020017f312e392e30000000000000000000000000000000000000000000000000000000815250613274826040805190810160405280600b81526020017f696e697469616c697a6564000000000000000000000000000000000000000000815250614259565b61327e8282614259565b613287836144a5565b7fdd117a11c22118c9dee4b5a67ce578bc44529dce21ee0ccc439588fbb9fb4ea38282604051808060200180602001838103835285818151815260200191508051906020019080838360005b838110156132ee5780820151818401526020810190506132d3565b50505050905090810190601f16801561331b5780820380516001836020036101000a031916815260200191505b50838103825284818151815260200191508051906020019080838360005b83811015613354578082015181840152602081019050613339565b50505050905090810190601f1680156133815780820380516001836020036101000a031916815260200191505b5094505050505060405180910390a160016000836040518082805190602001908083835b6020831015156133ca57805182526020820191506020810190506020830392506133a5565b6001836020036101000a0380198251168184511680821785525050505050509050019150509081526020016040518091039020826040518082805190602001908083835b602083101515613433578051825260208201915060208101905060208303925061340e565b6001836020036101000a038019825116818451168082178552505050505050905001915050908152602001604051809103902060006101000a81548160ff02191690831515021790555060016000836040518082805190602001908083835b6020831015156134b75780518252602082019150602081019050602083039250613492565b6001836020036101000a03801982511681845116808217855250505050505090500191505090815260200160405180910390206040805190810160405280600b81526020017f696e697469616c697a65640000000000000000000000000000000000000000008152506040518082805190602001908083835b6020831015156135555780518252602082019150602081019050602083039250613530565b6001836020036101000a038019825116818451168082178552505050505050905001915050908152602001604051809103902060006101000a81548160ff021916908315150217905550505050565b6060806135b0836118a1565b15156135bb57600080fd5b6135c483614aa6565b905061366a600e8054600181600116156101000203166002900480601f01602080910402602001604051908101604052809291908181526020018280546001816001161561010002031660029004801561365f5780601f106136345761010080835404028352916020019161365f565b820191906000526020600020905b81548152906001019060200180831161364257829003601f168201915b505050505082614bfd565b915050919050565b61367a6154bc565b61368261540c565b61368a6154bc565b6000600160009054906101000a900473ffffffffffffffffffffffffffffffffffffffff1673ffffffffffffffffffffffffffffffffffffffff163373ffffffffffffffffffffffffffffffffffffffff161415156136e857600080fd5b3073ffffffffffffffffffffffffffffffffffffffff168573ffffffffffffffffffffffffffffffffffffffff161415151561372357600080fd5b61372c86611b8b565b151561373757600080fd5b600f8661ffff1681548110151561374a57fe5b9060005260206000209060030201606060405190810160405290816000820160009054906101000a900467ffffffffffffffff1667ffffffffffffffff1667ffffffffffffffff168152602001600182018054600181600116156101000203166002900480601f01602080910402602001604051908101604052809291908181526020018280546001816001161561010002031660029004801561382f5780601f106138045761010080835404028352916020019161382f565b820191906000526020600020905b81548152906001019060200180831161381257829003601f168201915b505050505081526020016002820160009054906101000a900461ffff1661ffff1661ffff168152505092506005601160008861ffff1661ffff16815260200190815260200160002060009054906101000a900461ffff160161ffff16836040015161ffff161015151561389e57fe5b6005601160008861ffff1661ffff16815260200190815260200160002060008282829054906101000a900461ffff160192506101000a81548161ffff021916908361ffff1602179055508473ffffffffffffffffffffffffffffffffffffffff167fed6fac1d8fd17dc518d26d84a2df2db1b63719c50ab63f06416fbfffb0443be287604051808261ffff1661ffff16815260200191505060405180910390a2600090505b60058110156139a657613984888260058110151561395d57fe5b602002013560001916888360058110151561397457fe5b6020020135600019168888614dce565b828260058110151561399257fe5b602002018181525050806001019050613943565b819350505050949350505050565b6000600560008473ffffffffffffffffffffffffffffffffffffffff1673ffffffffffffffffffffffffffffffffffffffff16815260200190815260200160002060008373ffffffffffffffffffffffffffffffffffffffff1673ffffffffffffffffffffffffffffffffffffffff16815260200190815260200160002060009054906101000a900460ff16905092915050565b600160009054906101000a900473ffffffffffffffffffffffffffffffffffffffff1673ffffffffffffffffffffffffffffffffffffffff163373ffffffffffffffffffffffffffffffffffffffff16141515613aa457600080fd5b600073ffffffffffffffffffffffffffffffffffffffff168173ffffffffffffffffffffffffffffffffffffffff1614151515613ae057600080fd5b8073ffffffffffffffffffffffffffffffffffffffff16600160009054906101000a900473ffffffffffffffffffffffffffffffffffffffff1673ffffffffffffffffffffffffffffffffffffffff167f8be0079c531659141344cd1fd0a4f28419497f9722a3daafe3b4186f6b6457e060405160405180910390a380600160006101000a81548173ffffffffffffffffffffffffffffffffffffffff021916908373ffffffffffffffffffffffffffffffffffffffff16021790555050565b6000806000806000613bb06154df565b613bb9876118a1565b1515613bc457600080fd5b601087815481101515613bd357fe5b906000526020600020906004020160a060405190810160405290816000820160009054906101000a900467ffffffffffffffff1667ffffffffffffffff1667ffffffffffffffff1681526020016001820154600019166000191681526020016002820154600019166000191681526020016003820160009054906101000a900461ffff1661ffff1661ffff1681526020016003820160029054906101000a900461ffff1661ffff1661ffff1681525050905080602001518160400151826060015183608001516012600086602001516000191660001916815260200190815260200160002060008660400151600019166000191681526020019081526020016000206000866060015161ffff1661ffff16815260200190815260200160002060009054906101000a900461ffff16955095509550955095505091939590929450565b600080613d21836122b8565b90508073ffffffffffffffffffffffffffffffffffffffff168473ffffffffffffffffffffffffffffffffffffffff161480613d9057508373ffffffffffffffffffffffffffffffffffffffff16613d7884611410565b73ffffffffffffffffffffffffffffffffffffffff16145b80613da15750613da081856139b4565b5b91505092915050565b8173ffffffffffffffffffffffffffffffffffffffff16613dca826122b8565b73ffffffffffffffffffffffffffffffffffffffff16141515613dec57600080fd5b600073ffffffffffffffffffffffffffffffffffffffff166003600083815260200190815260200160002060009054906101000a900473ffffffffffffffffffffffffffffffffffffffff1673ffffffffffffffffffffffffffffffffffffffff16141515613f0f5760006003600083815260200190815260200160002060006101000a81548173ffffffffffffffffffffffffffffffffffffffff021916908373ffffffffffffffffffffffffffffffffffffffff160217905550600073ffffffffffffffffffffffffffffffffffffffff168273ffffffffffffffffffffffffffffffffffffffff167f8c5be1e5ebec7d5bd14f71427d1e84f3dd0314c0f7b2291e5b200ac8c7c3b925836040518082815260200191505060405180910390a35b5050565b6000806000613f22858561500b565b60096000858152602001908152602001600020549250613f8e6001600860008873ffffffffffffffffffffffffffffffffffffffff1673ffffffffffffffffffffffffffffffffffffffff1681526020019081526020016000208054905061513a90919063ffffffff16565b9150600860008673ffffffffffffffffffffffffffffffffffffffff1673ffffffffffffffffffffffffffffffffffffffff16815260200190815260200160002082815481101515613fdc57fe5b9060005260206000200154905080600860008773ffffffffffffffffffffffffffffffffffffffff1673ffffffffffffffffffffffffffffffffffffffff1681526020019081526020016000208481548110151561403657fe5b90600052602060002001819055506000600860008773ffffffffffffffffffffffffffffffffffffffff1673ffffffffffffffffffffffffffffffffffffffff1681526020019081526020016000208381548110151561409257fe5b9060005260206000200181905550600860008673ffffffffffffffffffffffffffffffffffffffff1673ffffffffffffffffffffffffffffffffffffffff1681526020019081526020016000208054809190600190036140f29190615527565b50600060096000868152602001908152602001600020819055508260096000838152602001908152602001600020819055505050505050565b60006141378383615153565b600860008473ffffffffffffffffffffffffffffffffffffffff1673ffffffffffffffffffffffffffffffffffffffff168152602001908152602001600020805490509050600860008473ffffffffffffffffffffffffffffffffffffffff1673ffffffffffffffffffffffffffffffffffffffff168152602001908152602001600020829080600181540180825580915050906001820390600052602060002001600090919290919091505550806009600084815260200190815260200160002081905550505050565b61420c82826152ad565b600a80549050600b600083815260200190815260200160002081905550600a8190806001815401808255809150509060018203906000526020600020016000909192909190915055505050565b61426382826130de565b1515156142fe576040517f08c379a00000000000000000000000000000000000000000000000000000000081526004018080602001828103825260328152602001807f52657175657374656420746172676574206d6967726174696f6e20494420686181526020017f7320616c7265616479206265656e2072756e000000000000000000000000000081525060400191505060405180910390fd5b5050565b600061430c61540c565b60006060604051908101604052804267ffffffffffffffff1681526020018681526020018561ffff1681525091506001600f839080600181540180825580915050906001820390600052602060002090600302016000909192909190915060008201518160000160006101000a81548167ffffffffffffffff021916908367ffffffffffffffff16021790555060208201518160010190805190602001906143b5929190615553565b5060408201518160020160006101000a81548161ffff021916908361ffff16021790555050500390507f30e01586591a4d29cd93e7fb9dda476dbf87caa6bb806215df6b7f06c83b0110818686604051808461ffff1661ffff168152602001806020018361ffff1661ffff168152602001828103825284818151815260200191508051906020019080838360005b8381101561445e578082015181840152602081019050614443565b50505050905090810190601f16801561448b5780820380516001836020036101000a031916815260200191505b5094505050505060405180910390a1809250505092915050565b6040805190810160405280600781526020017f4f776e61626c65000000000000000000000000000000000000000000000000008152506040805190810160405280600581526020017f312e392e30000000000000000000000000000000000000000000000000000000815250614550826040805190810160405280600b81526020017f696e697469616c697a6564000000000000000000000000000000000000000000815250614259565b61455a8282614259565b82600160006101000a81548173ffffffffffffffffffffffffffffffffffffffff021916908373ffffffffffffffffffffffffffffffffffffffff1602179055507fdd117a11c22118c9dee4b5a67ce578bc44529dce21ee0ccc439588fbb9fb4ea38282604051808060200180602001838103835285818151815260200191508051906020019080838360005b838110156146025780820151818401526020810190506145e7565b50505050905090810190601f16801561462f5780820380516001836020036101000a031916815260200191505b50838103825284818151815260200191508051906020019080838360005b8381101561466857808201518184015260208101905061464d565b50505050905090810190601f1680156146955780820380516001836020036101000a031916815260200191505b5094505050505060405180910390a160016000836040518082805190602001908083835b6020831015156146de57805182526020820191506020810190506020830392506146b9565b6001836020036101000a0380198251168184511680821785525050505050509050019150509081526020016040518091039020826040518082805190602001908083835b6020831015156147475780518252602082019150602081019050602083039250614722565b6001836020036101000a038019825116818451168082178552505050505050905001915050908152602001604051809103902060006101000a81548160ff02191690831515021790555060016000836040518082805190602001908083835b6020831015156147cb57805182526020820191506020810190506020830392506147a6565b6001836020036101000a03801982511681845116808217855250505050505090500191505090815260200160405180910390206040805190810160405280600b81526020017f696e697469616c697a65640000000000000000000000000000000000000000008152506040518082805190602001908083835b6020831015156148695780518252602082019150602081019050602083039250614844565b6001836020036101000a038019825116818451168082178552505050505050905001915050908152602001604051809103902060006101000a81548160ff021916908315150217905550505050565b6000806148da8573ffffffffffffffffffffffffffffffffffffffff1661535d565b15156148e95760019150614a9d565b8473ffffffffffffffffffffffffffffffffffffffff1663f0b9e5ba8786866040518463ffffffff167c0100000000000000000000000000000000000000000000000000000000028152600401808473ffffffffffffffffffffffffffffffffffffffff1673ffffffffffffffffffffffffffffffffffffffff16815260200183815260200180602001828103825283818151815260200191508051906020019080838360005b838110156149ab578082015181840152602081019050614990565b50505050905090810190601f1680156149d85780820380516001836020036101000a031916815260200191505b50945050505050602060405180830381600087803b1580156149f957600080fd5b505af1158015614a0d573d6000803e3d6000fd5b505050506040513d6020811015614a2357600080fd5b8101908080519060200190929190505050905063f0b9e5ba7c0100000000000000000000000000000000000000000000000000000000027bffffffffffffffffffffffffffffffffffffffffffffffffffffffff1916817bffffffffffffffffffffffffffffffffffffffffffffffffffffffff19161491505b50949350505050565b60606000806060600080861415614af4576040805190810160405280600181526020017f30000000000000000000000000000000000000000000000000000000000000008152509450614bf4565b8593505b600084141515614b1e578280600101935050600a84811515614b1657fe5b049350614af8565b826040519080825280601f01601f191660200182016040528015614b515781602001602082028038833980820191505090505b5091506001830390505b600086141515614bf057600a86811515614b7157fe5b066030017f010000000000000000000000000000000000000000000000000000000000000002828280600190039350815181101515614bac57fe5b9060200101907effffffffffffffffffffffffffffffffffffffffffffffffffffffffffffff1916908160001a905350600a86811515614be857fe5b049550614b5b565b8194505b50505050919050565b606080606080606060008088955087945084518651016040519080825280601f01601f191660200182016040528015614c455781602001602082028038833980820191505090505b50935083925060009150600090505b8551811015614d07578581815181101515614c6b57fe5b9060200101517f010000000000000000000000000000000000000000000000000000000000000090047f0100000000000000000000000000000000000000000000000000000000000000028383806001019450815181101515614cca57fe5b9060200101907effffffffffffffffffffffffffffffffffffffffffffffffffffffffffffff1916908160001a9053508080600101915050614c54565b600090505b8451811015614dbf578481815181101515614d2357fe5b9060200101517f010000000000000000000000000000000000000000000000000000000000000090047f0100000000000000000000000000000000000000000000000000000000000000028383806001019450815181101515614d8257fe5b9060200101907effffffffffffffffffffffffffffffffffffffffffffffffffffffffffffff1916908160001a9053508080600101915050614d0c565b82965050505050505092915050565b600080614dd96154df565b60006012600089600019166000191681526020019081526020016000206000886000191660001916815260200190815260200160002060008761ffff1661ffff168152602001908152602001600020600081819054906101000a900461ffff1660010191906101000a81548161ffff021916908361ffff1602179055925060a0604051908101604052804267ffffffffffffffff16815260200189600019168152602001886000191681526020018761ffff1681526020018461ffff16815250915060016010839080600181540180825580915050906001820390600052602060002090600402016000909192909190915060008201518160000160006101000a81548167ffffffffffffffff021916908367ffffffffffffffff160217905550602082015181600101906000191690556040820151816002019060001916905560608201518160030160006101000a81548161ffff021916908361ffff16021790555060808201518160030160026101000a81548161ffff021916908361ffff16021790555050500390508473ffffffffffffffffffffffffffffffffffffffff167f4877c0c33183683110f068c1240f2e2bcf9bf5a51db34abc6dd5521bcd25efc1898989878660405180866000191660001916815260200185600019166000191681526020018461ffff1661ffff1681526020018361ffff1661ffff1681526020018281526020019550505050505060405180910390a2614ffd8582614202565b809350505050949350505050565b8173ffffffffffffffffffffffffffffffffffffffff1661502b826122b8565b73ffffffffffffffffffffffffffffffffffffffff1614151561504d57600080fd5b6150a06001600460008573ffffffffffffffffffffffffffffffffffffffff1673ffffffffffffffffffffffffffffffffffffffff1681526020019081526020016000205461513a90919063ffffffff16565b600460008473ffffffffffffffffffffffffffffffffffffffff1673ffffffffffffffffffffffffffffffffffffffff1681526020019081526020016000208190555060006002600083815260200190815260200160002060006101000a81548173ffffffffffffffffffffffffffffffffffffffff021916908373ffffffffffffffffffffffffffffffffffffffff1602179055505050565b600082821115151561514857fe5b818303905092915050565b600073ffffffffffffffffffffffffffffffffffffffff166002600083815260200190815260200160002060009054906101000a900473ffffffffffffffffffffffffffffffffffffffff1673ffffffffffffffffffffffffffffffffffffffff161415156151c157600080fd5b816002600083815260200190815260200160002060006101000a81548173ffffffffffffffffffffffffffffffffffffffff021916908373ffffffffffffffffffffffffffffffffffffffff1602179055506152666001600460008573ffffffffffffffffffffffffffffffffffffffff1673ffffffffffffffffffffffffffffffffffffffff1681526020019081526020016000205461537090919063ffffffff16565b600460008473ffffffffffffffffffffffffffffffffffffffff1673ffffffffffffffffffffffffffffffffffffffff168152602001908152602001600020819055505050565b600073ffffffffffffffffffffffffffffffffffffffff168273ffffffffffffffffffffffffffffffffffffffff16141515156152e957600080fd5b6152f3828261412b565b8173ffffffffffffffffffffffffffffffffffffffff16600073ffffffffffffffffffffffffffffffffffffffff167fddf252ad1be2c89b69c2b068fc378daa952ba7f163c4a11628f55a4df523b3ef836040518082815260200191505060405180910390a35050565b600080823b905060008111915050919050565b6000818301905082811015151561538357fe5b80905092915050565b828054600181600116156101000203166002900490600052602060002090601f016020900481019282601f106153cd57805160ff19168380011785556153fb565b828001600101855582156153fb579182015b828111156153fa5782518255916020019190600101906153df565b5b50905061540891906155d3565b5090565b606060405190810160405280600067ffffffffffffffff16815260200160608152602001600061ffff1681525090565b828054600181600116156101000203166002900490600052602060002090601f016020900481019282601f1061547d57803560ff19168380011785556154ab565b828001600101855582156154ab579182015b828111156154aa57823582559160200191906001019061548f565b5b5090506154b891906155d3565b5090565b60a060405190810160405280600590602082028038833980820191505090505090565b60a060405190810160405280600067ffffffffffffffff1681526020016000801916815260200160008019168152602001600061ffff168152602001600061ffff1681525090565b81548183558181111561554e5781836000526020600020918201910161554d91906155d3565b5b505050565b828054600181600116156101000203166002900490600052602060002090601f016020900481019282601f1061559457805160ff19168380011785556155c2565b828001600101855582156155c2579182015b828111156155c15782518255916020019190600101906155a6565b5b5090506155cf91906155d3565b5090565b6155f591905b808211156155f15760008160009055506001016155d9565b5090565b905600a165627a7a7230582014df781160bbe5d73568a3ed2e94592fcb5bc2f91f0899bd58c7983649936b270029",
  "source": "pragma solidity ^0.4.21;\nimport \"openzeppelin-zos/contracts/token/ERC721/MintableERC721Token.sol\";\nimport \"openzeppelin-zos/contracts/lifecycle/Pausable.sol\";\n\n/**\n * @title CBBC (Crypto Baseball Cards)\n */\ncontract Cbbc is MintableERC721Token, Pausable {\n\n  /// @dev Emit this event whenever we set a new API Base URL (see setApiBaseUri below)\n  event ApiBaseUriSet(string _api_base_url);\n  /// @dev Emit this event whenever we mint a new edition (see mintEdition below)\n  event EditionMinted(uint16 _newEditionId, string _name, uint16 _numCards);\n  /// @dev Emit this event whenever we mint a new 5 pack of cards (see mintFivePack below)\n  event FivePackMinted(uint16 _editionId, address indexed _owner);\n  /// @dev Emit this event whenever we mint a new card (see _mintCard below)\n  event CardMinted(bytes32 _playerBbrefId, bytes32 _cardType, uint16 _editionId, uint16 _seriesNumber, uint256 _cardId, address indexed _owner);\n  /// @dev Emit this event whenever the contract fallback function is called\n  event FallBackPaid(address indexed _sender, uint256 _value);\n\n  /// @dev The struct representing the Crypto Baseball edition.\n  struct Edition {\n    // The timestamp at which this card was minted.\n    uint64 mintTime;\n    // The name of the Edition\n    string name;\n    // The number of cards in the Edition\n    uint16 numCards;\n  }\n\n  /// @dev The struct representing the Crypto Baseball card.\n  struct Card {\n    // The timestamp at which this card was minted.\n    uint64 mintTime;\n    // The BBREF ID of the player represented by the card\n    bytes32 playerBbrefId;\n    // The type of card, ie \"player\", \"pitcher\", \"manager\"\n    bytes32 cardType;\n    // The CBBC Edition ID that the card belongs to\n    uint16 editionId;\n    // Cards for a given player and edition have a series number, which gets\n    // incremented in sequence. If we mint 100 cards of a given player in an edition,\n    // the 21st one to be minted has serialNumber = 21 of 100.\n    uint16 seriesNumber;\n  }\n\n  /*** STORAGE ***/\n\n  // @dev The default API Base URI\n  string public constant API_BASE_URI = \"http//api.crypto-baseball-cards.com/cards/\";\n\n  // @dev The API Base URI\n  string public apiBaseUri;\n\n  /// @dev All the editions that have been minted, indexed by editionId.\n  Edition[] public editions;\n\n  /// @dev All the cards that have been minted, indexed by cardId.\n  Card[] public cards;\n\n  /// @dev Keeps track of how many cards we have minted for a given edition\n  mapping (uint16 => uint16) internal mintedCountForEditionId;\n\n  /// @dev Keeps track of how many cards we have minted for a given player, card type and edition\n  mapping (bytes32 => mapping (bytes32 => mapping (uint16 => uint16))) internal mintedCountForPlayerBbrefIdCardTypeAndEditionId;\n\n  /// @dev We initialize with the standard params.\n  /// @param _sender is the Contract owner.\n  /// @param _name is the CBBC ERC721 token name.\n  /// @param _symbol is the CBBC ERC721 token symbol.\n  function initialize(address _sender, string _name, string _symbol) isInitializer(\"Cbbc\", \"0.1.0\")  public {\n    apiBaseUri = API_BASE_URI;\n    Ownable.initialize(_sender);\n    ERC721Token.initialize(_name, _symbol);\n  }\n\n  /// @dev Allows the contract owner to set a new API Base URL.\n  /// @param _apiBaseUri the new API Base URL\n  function setApiBaseUri(\n    string _apiBaseUri\n  )\n  external onlyOwner\n  returns (string)\n  {\n    apiBaseUri = _apiBaseUri;\n    return apiBaseUri;\n  }\n\n  /// @dev Allows the contract owner to mint a new edition of cards.\n  /// @param _name the name of the edition\n  /// @param _numCards the total number of cards in the edition\n  function mintEdition(\n    string _name,\n    uint16 _numCards\n  )\n  external onlyOwner\n  returns (uint16)\n  {\n    return _mintEdition(_name, _numCards);\n  }\n\n  /// @dev An internal method that creates a new card and stores it.\n  /// Emits an EditionMinted event.\n  /// @param _name the name of the edition\n  /// @param _numCards the total number of cards in the edition\n  function _mintEdition(\n    string _name,\n    uint16 _numCards\n  )\n  internal\n  returns (uint16)\n  {\n    Edition memory newEdition = Edition({\n      mintTime: uint64(now),\n      name: _name,\n      numCards: _numCards\n    });\n    uint16 newEditionId = uint16(editions.push(newEdition) - 1);\n    emit EditionMinted(newEditionId, _name, _numCards);\n    return newEditionId;\n  }\n\n  /// @dev Allows the contract owner to mint a pack of 5 cards.\n  /// @param _playerBbrefIds are the player BBREF IDs for the 5 new card.\n  /// @param _cardTypes are the card types (\"player\", \"pitcher\", \"manager\") for the 5 new cards.\n  /// @param _editionId is the CBBC edition ID for the 5 new cards.\n  /// @param _owner is the pack's owner.\n  /// @return The 5 new card IDs.\n  function mintFivePack(\n    bytes32[5] _playerBbrefIds,\n    bytes32[5] _cardTypes,\n    uint16 _editionId,\n    address _owner\n  )\n  external onlyOwner\n  returns (uint256[5])\n  {\n    require(_owner != address(this));\n    require(checkEditionExists(_editionId));\n    Edition memory edition = editions[_editionId];\n    assert(edition.numCards >= (mintedCountForEditionId[_editionId] + 5));\n    mintedCountForEditionId[_editionId] += 5;\n    uint256[5] memory cardIds;\n    emit FivePackMinted(_editionId, _owner);\n    for(uint i = 0; i < 5; ++i)\n    {\n      cardIds[i] = _mintCard(_playerBbrefIds[i], _cardTypes[i], _editionId, _owner);\n    }\n    return cardIds;\n  }\n\n  /// @dev An internal method that creates a new card and stores it.\n  ///  Emits both a CardMinted and a Transfer event.\n  /// @param _editionId The CBBC Edition ID that the card belongs to\n  /// @param _owner The card owner\n  function _mintCard(\n    bytes32 _playerBbrefId,\n    bytes32 _cardType,\n    uint16 _editionId,\n    address _owner\n  )\n    internal\n    returns (uint256)\n  {\n    uint16 seriesNumber = ++mintedCountForPlayerBbrefIdCardTypeAndEditionId[_playerBbrefId][_cardType][_editionId];\n    Card memory newCard = Card({\n      mintTime: uint64(now),\n      playerBbrefId: _playerBbrefId,\n      cardType: _cardType,\n      editionId: _editionId,\n      seriesNumber: seriesNumber\n    });\n    uint256 newCardId = cards.push(newCard) - 1;\n    emit CardMinted(_playerBbrefId, _cardType, _editionId, seriesNumber, newCardId, _owner);\n    _mint(_owner, newCardId);\n    return newCardId;\n  }\n\n  /// @dev Returns the API URL for a given token Id.\n  /// @param _tokenId The Token ID\n  function tokenURI(uint256 _tokenId) public view returns (string) {\n    require(checkCardExists(_tokenId));\n    string memory _id = uint2str(_tokenId);\n    return strConcat(apiBaseUri, _id);\n  }\n\n  /// @dev Returns true if the edition with ID _editionId exists.\n  /// @param _editionId The CBBC Edition ID to check\n  function checkEditionExists(uint16 _editionId) public view returns(bool){\n    if((_editionId >= 0) && (_editionId < editions.length)) {\n      return true;\n    } else {\n      return false;\n    }\n  }\n\n  /// @dev Returns the number of editions.\n  function numberOfEditions() public view returns(uint256){\n    return editions.length;\n  }\n\n  /// @dev Returns the edition name, number of cards, minted count of cards for the edition, and pack price for a given _editionId.\n  /// @param _editionId The CBBC Edition ID to check\n  function editionInfo(uint16 _editionId) public view returns (string, uint16, uint16) {\n    require(checkEditionExists(_editionId));\n    Edition memory edition = editions[_editionId];\n    return (edition.name, edition.numCards, mintedCountForEditionId[_editionId]);\n  }\n\n  /// @dev Returns true if the card with ID _cardId exists.\n  /// @param _cardId The Card ID\n  function checkCardExists(uint256 _cardId) public view returns(bool){\n    if((_cardId >= 0) && (_cardId < cards.length)) {\n      return true;\n    } else {\n      return false;\n    }\n  }\n\n  /// @dev Returns the number of minted cards.\n  function numberOfCards() public view returns (uint256){\n    return cards.length;\n  }\n\n  /// @dev Returns the edition id, minted card count for the edition and tokenURI for a given card/token Id.\n  /// @param _cardId The Card ID\n  function cardInfo(uint256 _cardId) public view returns (bytes32, bytes32, uint16, uint16, uint16) {\n    require(checkCardExists(_cardId));\n    Card memory card = cards[_cardId];\n    return (card.playerBbrefId, card.cardType, card.editionId, card.seriesNumber, mintedCountForPlayerBbrefIdCardTypeAndEditionId[card.playerBbrefId][card.cardType][card.editionId]);\n  }\n\n  /// @dev Withdraw remaining contract balance to owner.\n  function withdraw() external onlyOwner {\n    msg.sender.transfer(address(this).balance);\n  }\n\n  /// @dev Fallback function, require no data and just emit a FallBackPaid event.\n  function () public payable {\n    require(msg.data.length == 0);\n    emit FallBackPaid(msg.sender, msg.value);\n  }\n\n  // String helpers below were taken from Oraclize.\n  // https://github.com/oraclize/ethereum-api/blob/master/oraclizeAPI_0.4.sol\n  function strConcat(string _a, string _b) internal pure returns (string) {\n    bytes memory _ba = bytes(_a);\n    bytes memory _bb = bytes(_b);\n    string memory ab = new string(_ba.length + _bb.length);\n    bytes memory bab = bytes(ab);\n    uint k = 0;\n    for (uint i = 0; i < _ba.length; i++) bab[k++] = _ba[i];\n    for (i = 0; i < _bb.length; i++) bab[k++] = _bb[i];\n    return string(bab);\n  }\n\n  function uint2str(uint i) internal pure returns (string) {\n    if (i == 0) return \"0\";\n    uint j = i;\n    uint len;\n    while (j != 0) {\n      len++;\n      j /= 10;\n    }\n    bytes memory bstr = new bytes(len);\n    uint k = len - 1;\n    while (i != 0) {\n      bstr[k--] = byte(48 + i % 10);\n      i /= 10;\n    }\n    return string(bstr);\n  }\n\n}\n",
  "sourcePath": "/Users/ramie/cbbc_smart_contracts/cbbc-zos/contracts/Cbbc.sol",
  "compiler": {
    "name": "solc",
    "version": "0.4.24+commit.e67f0147.Emscripten.clang"
  },
  "schemaVersion": "2.0.1",
  "updatedAt": "2018-10-27T22:29:35.681Z"
}