{
  "contractName": "Cbbc",
  "abi": [
    {
      "constant": true,
      "inputs": [],
      "name": "name",
      "outputs": [
        {
          "name": "",
          "type": "string"
        }
      ],
      "payable": false,
      "stateMutability": "view",
      "type": "function"
    },
    {
      "constant": true,
      "inputs": [
        {
          "name": "_tokenId",
          "type": "uint256"
        }
      ],
      "name": "getApproved",
      "outputs": [
        {
          "name": "",
          "type": "address"
        }
      ],
      "payable": false,
      "stateMutability": "view",
      "type": "function"
    },
    {
      "constant": false,
      "inputs": [
        {
          "name": "_to",
          "type": "address"
        },
        {
          "name": "_tokenId",
          "type": "uint256"
        }
      ],
      "name": "approve",
      "outputs": [],
      "payable": false,
      "stateMutability": "nonpayable",
      "type": "function"
    },
    {
      "constant": true,
      "inputs": [],
      "name": "totalSupply",
      "outputs": [
        {
          "name": "",
          "type": "uint256"
        }
      ],
      "payable": false,
      "stateMutability": "view",
      "type": "function"
    },
    {
      "constant": false,
      "inputs": [
        {
          "name": "_from",
          "type": "address"
        },
        {
          "name": "_to",
          "type": "address"
        },
        {
          "name": "_tokenId",
          "type": "uint256"
        }
      ],
      "name": "transferFrom",
      "outputs": [],
      "payable": false,
      "stateMutability": "nonpayable",
      "type": "function"
    },
    {
      "constant": true,
      "inputs": [
        {
          "name": "",
          "type": "uint256"
        }
      ],
      "name": "editions",
      "outputs": [
        {
          "name": "mintTime",
          "type": "uint64"
        },
        {
          "name": "name",
          "type": "string"
        },
        {
          "name": "numCards",
          "type": "uint16"
        },
        {
          "name": "packPrice",
          "type": "uint256"
        }
      ],
      "payable": false,
      "stateMutability": "view",
      "type": "function"
    },
    {
      "constant": true,
      "inputs": [
        {
          "name": "_owner",
          "type": "address"
        },
        {
          "name": "_index",
          "type": "uint256"
        }
      ],
      "name": "tokenOfOwnerByIndex",
      "outputs": [
        {
          "name": "",
          "type": "uint256"
        }
      ],
      "payable": false,
      "stateMutability": "view",
      "type": "function"
    },
    {
      "constant": false,
      "inputs": [],
      "name": "unpause",
      "outputs": [],
      "payable": false,
      "stateMutability": "nonpayable",
      "type": "function"
    },
    {
      "constant": false,
      "inputs": [
        {
          "name": "_to",
          "type": "address"
        },
        {
          "name": "_tokenId",
          "type": "uint256"
        }
      ],
      "name": "mint",
      "outputs": [],
      "payable": false,
      "stateMutability": "nonpayable",
      "type": "function"
    },
    {
      "constant": false,
      "inputs": [
        {
          "name": "_from",
          "type": "address"
        },
        {
          "name": "_to",
          "type": "address"
        },
        {
          "name": "_tokenId",
          "type": "uint256"
        }
      ],
      "name": "safeTransferFrom",
      "outputs": [],
      "payable": false,
      "stateMutability": "nonpayable",
      "type": "function"
    },
    {
      "constant": true,
      "inputs": [],
      "name": "apiBaseUri",
      "outputs": [
        {
          "name": "",
          "type": "string"
        }
      ],
      "payable": false,
      "stateMutability": "view",
      "type": "function"
    },
    {
      "constant": true,
      "inputs": [
        {
          "name": "_tokenId",
          "type": "uint256"
        }
      ],
      "name": "exists",
      "outputs": [
        {
          "name": "",
          "type": "bool"
        }
      ],
      "payable": false,
      "stateMutability": "view",
      "type": "function"
    },
    {
      "constant": true,
      "inputs": [
        {
          "name": "_index",
          "type": "uint256"
        }
      ],
      "name": "tokenByIndex",
      "outputs": [
        {
          "name": "",
          "type": "uint256"
        }
      ],
      "payable": false,
      "stateMutability": "view",
      "type": "function"
    },
    {
      "constant": true,
      "inputs": [],
      "name": "paused",
      "outputs": [
        {
          "name": "",
          "type": "bool"
        }
      ],
      "payable": false,
      "stateMutability": "view",
      "type": "function"
    },
    {
      "constant": true,
      "inputs": [
        {
          "name": "_tokenId",
          "type": "uint256"
        }
      ],
      "name": "ownerOf",
      "outputs": [
        {
          "name": "",
          "type": "address"
        }
      ],
      "payable": false,
      "stateMutability": "view",
      "type": "function"
    },
    {
      "constant": true,
      "inputs": [
        {
          "name": "_owner",
          "type": "address"
        }
      ],
      "name": "balanceOf",
      "outputs": [
        {
          "name": "",
          "type": "uint256"
        }
      ],
      "payable": false,
      "stateMutability": "view",
      "type": "function"
    },
    {
      "constant": true,
      "inputs": [],
      "name": "API_BASE_URI",
      "outputs": [
        {
          "name": "",
          "type": "string"
        }
      ],
      "payable": false,
      "stateMutability": "view",
      "type": "function"
    },
    {
      "constant": false,
      "inputs": [],
      "name": "pause",
      "outputs": [],
      "payable": false,
      "stateMutability": "nonpayable",
      "type": "function"
    },
    {
      "constant": true,
      "inputs": [],
      "name": "owner",
      "outputs": [
        {
          "name": "",
          "type": "address"
        }
      ],
      "payable": false,
      "stateMutability": "view",
      "type": "function"
    },
    {
      "constant": true,
      "inputs": [
        {
          "name": "",
          "type": "uint256"
        }
      ],
      "name": "cards",
      "outputs": [
        {
          "name": "mintTime",
          "type": "uint64"
        },
        {
          "name": "playerBbrefId",
          "type": "bytes32"
        },
        {
          "name": "cardType",
          "type": "bytes32"
        },
        {
          "name": "editionId",
          "type": "uint16"
        },
        {
          "name": "seriesNumber",
          "type": "uint16"
        }
      ],
      "payable": false,
      "stateMutability": "view",
      "type": "function"
    },
    {
      "constant": true,
      "inputs": [],
      "name": "symbol",
      "outputs": [
        {
          "name": "",
          "type": "string"
        }
      ],
      "payable": false,
      "stateMutability": "view",
      "type": "function"
    },
    {
      "constant": false,
      "inputs": [
        {
          "name": "_to",
          "type": "address"
        },
        {
          "name": "_approved",
          "type": "bool"
        }
      ],
      "name": "setApprovalForAll",
      "outputs": [],
      "payable": false,
      "stateMutability": "nonpayable",
      "type": "function"
    },
    {
      "constant": false,
      "inputs": [
        {
          "name": "_from",
          "type": "address"
        },
        {
          "name": "_to",
          "type": "address"
        },
        {
          "name": "_tokenId",
          "type": "uint256"
        },
        {
          "name": "_data",
          "type": "bytes"
        }
      ],
      "name": "safeTransferFrom",
      "outputs": [],
      "payable": false,
      "stateMutability": "nonpayable",
      "type": "function"
    },
    {
      "constant": true,
      "inputs": [
        {
          "name": "contractName",
          "type": "string"
        },
        {
          "name": "migrationId",
          "type": "string"
        }
      ],
      "name": "isMigrated",
      "outputs": [
        {
          "name": "",
          "type": "bool"
        }
      ],
      "payable": false,
      "stateMutability": "view",
      "type": "function"
    },
    {
      "constant": true,
      "inputs": [
        {
          "name": "_owner",
          "type": "address"
        },
        {
          "name": "_operator",
          "type": "address"
        }
      ],
      "name": "isApprovedForAll",
      "outputs": [
        {
          "name": "",
          "type": "bool"
        }
      ],
      "payable": false,
      "stateMutability": "view",
      "type": "function"
    },
    {
      "constant": false,
      "inputs": [
        {
          "name": "newOwner",
          "type": "address"
        }
      ],
      "name": "transferOwnership",
      "outputs": [],
      "payable": false,
      "stateMutability": "nonpayable",
      "type": "function"
    },
    {
      "payable": true,
      "stateMutability": "payable",
      "type": "fallback"
    },
    {
      "anonymous": false,
      "inputs": [
        {
          "indexed": false,
          "name": "_api_base_url",
          "type": "string"
        }
      ],
      "name": "ApiBaseUriSet",
      "type": "event"
    },
    {
      "anonymous": false,
      "inputs": [
        {
          "indexed": false,
          "name": "_newEditionId",
          "type": "uint16"
        },
        {
          "indexed": false,
          "name": "_name",
          "type": "string"
        },
        {
          "indexed": false,
          "name": "_numCards",
          "type": "uint16"
        },
        {
          "indexed": false,
          "name": "_packPrice",
          "type": "uint256"
        }
      ],
      "name": "EditionMinted",
      "type": "event"
    },
    {
      "anonymous": false,
      "inputs": [
        {
          "indexed": false,
          "name": "_editionId",
          "type": "uint16"
        },
        {
          "indexed": true,
          "name": "_owner",
          "type": "address"
        }
      ],
      "name": "FivePackMinted",
      "type": "event"
    },
    {
      "anonymous": false,
      "inputs": [
        {
          "indexed": false,
          "name": "_playerBbrefId",
          "type": "bytes32"
        },
        {
          "indexed": false,
          "name": "_cardType",
          "type": "bytes32"
        },
        {
          "indexed": false,
          "name": "_editionId",
          "type": "uint16"
        },
        {
          "indexed": false,
          "name": "_seriesNumber",
          "type": "uint16"
        },
        {
          "indexed": false,
          "name": "_cardId",
          "type": "uint256"
        },
        {
          "indexed": true,
          "name": "_owner",
          "type": "address"
        }
      ],
      "name": "CardMinted",
      "type": "event"
    },
    {
      "anonymous": false,
      "inputs": [
        {
          "indexed": true,
          "name": "_sender",
          "type": "address"
        },
        {
          "indexed": false,
          "name": "_value",
          "type": "uint256"
        }
      ],
      "name": "FallBackPaid",
      "type": "event"
    },
    {
      "anonymous": false,
      "inputs": [],
      "name": "Pause",
      "type": "event"
    },
    {
      "anonymous": false,
      "inputs": [],
      "name": "Unpause",
      "type": "event"
    },
    {
      "anonymous": false,
      "inputs": [
        {
          "indexed": true,
          "name": "_from",
          "type": "address"
        },
        {
          "indexed": true,
          "name": "_to",
          "type": "address"
        },
        {
          "indexed": false,
          "name": "_tokenId",
          "type": "uint256"
        }
      ],
      "name": "Transfer",
      "type": "event"
    },
    {
      "anonymous": false,
      "inputs": [
        {
          "indexed": true,
          "name": "_owner",
          "type": "address"
        },
        {
          "indexed": true,
          "name": "_approved",
          "type": "address"
        },
        {
          "indexed": false,
          "name": "_tokenId",
          "type": "uint256"
        }
      ],
      "name": "Approval",
      "type": "event"
    },
    {
      "anonymous": false,
      "inputs": [
        {
          "indexed": true,
          "name": "_owner",
          "type": "address"
        },
        {
          "indexed": true,
          "name": "_operator",
          "type": "address"
        },
        {
          "indexed": false,
          "name": "_approved",
          "type": "bool"
        }
      ],
      "name": "ApprovalForAll",
      "type": "event"
    },
    {
      "anonymous": false,
      "inputs": [
        {
          "indexed": true,
          "name": "previousOwner",
          "type": "address"
        },
        {
          "indexed": true,
          "name": "newOwner",
          "type": "address"
        }
      ],
      "name": "OwnershipTransferred",
      "type": "event"
    },
    {
      "anonymous": false,
      "inputs": [
        {
          "indexed": false,
          "name": "contractName",
          "type": "string"
        },
        {
          "indexed": false,
          "name": "migrationId",
          "type": "string"
        }
      ],
      "name": "Migrated",
      "type": "event"
    },
    {
      "constant": false,
      "inputs": [],
      "name": "initialize",
      "outputs": [],
      "payable": false,
      "stateMutability": "nonpayable",
      "type": "function"
    },
    {
      "constant": false,
      "inputs": [
        {
          "name": "_sender",
          "type": "address"
        }
      ],
      "name": "initialize",
      "outputs": [],
      "payable": false,
      "stateMutability": "nonpayable",
      "type": "function"
    },
    {
      "constant": false,
      "inputs": [
        {
          "name": "_name",
          "type": "string"
        },
        {
          "name": "_symbol",
          "type": "string"
        }
      ],
      "name": "initialize",
      "outputs": [],
      "payable": false,
      "stateMutability": "nonpayable",
      "type": "function"
    },
    {
      "constant": false,
      "inputs": [
        {
          "name": "_sender",
          "type": "address"
        },
        {
          "name": "_name",
          "type": "string"
        },
        {
          "name": "_symbol",
          "type": "string"
        }
      ],
      "name": "initialize",
      "outputs": [],
      "payable": false,
      "stateMutability": "nonpayable",
      "type": "function"
    },
    {
      "constant": false,
      "inputs": [
        {
          "name": "_apiBaseUri",
          "type": "string"
        }
      ],
      "name": "setApiBaseUri",
      "outputs": [
        {
          "name": "",
          "type": "string"
        }
      ],
      "payable": false,
      "stateMutability": "nonpayable",
      "type": "function"
    },
    {
      "constant": false,
      "inputs": [
        {
          "name": "_name",
          "type": "string"
        },
        {
          "name": "_numCards",
          "type": "uint16"
        },
        {
          "name": "_packPrice",
          "type": "uint256"
        }
      ],
      "name": "mintEdition",
      "outputs": [
        {
          "name": "",
          "type": "uint16"
        }
      ],
      "payable": false,
      "stateMutability": "nonpayable",
      "type": "function"
    },
    {
      "constant": false,
      "inputs": [
        {
          "name": "_playerBbrefIds",
          "type": "bytes32[5]"
        },
        {
          "name": "_cardTypes",
          "type": "bytes32[5]"
        },
        {
          "name": "_editionId",
          "type": "uint16"
        },
        {
          "name": "_owner",
          "type": "address"
        }
      ],
      "name": "mintFivePack",
      "outputs": [
        {
          "name": "",
          "type": "uint256[5]"
        }
      ],
      "payable": false,
      "stateMutability": "nonpayable",
      "type": "function"
    },
    {
      "constant": true,
      "inputs": [
        {
          "name": "_tokenId",
          "type": "uint256"
        }
      ],
      "name": "tokenURI",
      "outputs": [
        {
          "name": "",
          "type": "string"
        }
      ],
      "payable": false,
      "stateMutability": "view",
      "type": "function"
    },
    {
      "constant": true,
      "inputs": [
        {
          "name": "_editionId",
          "type": "uint16"
        }
      ],
      "name": "checkEditionExists",
      "outputs": [
        {
          "name": "",
          "type": "bool"
        }
      ],
      "payable": false,
      "stateMutability": "view",
      "type": "function"
    },
    {
      "constant": true,
      "inputs": [
        {
          "name": "_editionId",
          "type": "uint16"
        }
      ],
      "name": "editionInfo",
      "outputs": [
        {
          "name": "",
          "type": "string"
        },
        {
          "name": "",
          "type": "uint16"
        },
        {
          "name": "",
          "type": "uint16"
        },
        {
          "name": "",
          "type": "uint256"
        }
      ],
      "payable": false,
      "stateMutability": "view",
      "type": "function"
    },
    {
      "constant": true,
      "inputs": [
        {
          "name": "_cardId",
          "type": "uint256"
        }
      ],
      "name": "checkCardExists",
      "outputs": [
        {
          "name": "",
          "type": "bool"
        }
      ],
      "payable": false,
      "stateMutability": "view",
      "type": "function"
    },
    {
      "constant": true,
      "inputs": [
        {
          "name": "_tokenId",
          "type": "uint256"
        }
      ],
      "name": "cardInfo",
      "outputs": [
        {
          "name": "",
          "type": "bytes32"
        },
        {
          "name": "",
          "type": "bytes32"
        },
        {
          "name": "",
          "type": "uint16"
        },
        {
          "name": "",
          "type": "uint16"
        },
        {
          "name": "",
          "type": "uint16"
        }
      ],
      "payable": false,
      "stateMutability": "view",
      "type": "function"
    },
    {
      "constant": false,
      "inputs": [],
      "name": "withdraw",
      "outputs": [],
      "payable": false,
      "stateMutability": "nonpayable",
      "type": "function"
    }
  ],
  "bytecode": "0x60806040526000600d60006101000a81548160ff02191690831515021790555034801561002b57600080fd5b506155fb806200003c6000396000f3006080604052600436106101e3576000357c0100000000000000000000000000000000000000000000000000000000900463ffffffff16806306fdde0314610245578063081812fc146102d5578063095ea7b31461034257806318160ddd1461038f57806323b872dd146103ba578063279c806e146104275780632f745c59146104fe578063384c4c9c1461055f5780633aee0d7d146105ce5780633ccfd60b146106135780633f4ba83a1461062a57806340c10f191461064157806342842e0e1461068e57806344048326146106fb5780634a2a78341461078b5780634cd88b76146107d45780634f558e79146108835780634f6ccce7146108c85780634fba0240146109095780635c975abb146109d85780636352211e14610a0757806370a0823114610a745780637ad02db614610acb5780638129fc1c14610b5b5780638456cb5914610b725780638da5cb5b14610b895780638dc1076814610be05780639065714714610c7157806395d89b4114610d40578063a22cb46514610dd0578063a79b091314610e1f578063b88d4fde14610ed3578063c0bac1a814610f86578063c4d66de81461104d578063c87b56dd14611090578063da11eb4914611136578063e985e9c5146111d7578063f2fde38b14611252578063f77843dd14611295575b6000803690501415156101f557600080fd5b3373ffffffffffffffffffffffffffffffffffffffff167f32e1bd3d69af89240f5d43cc1e3bcb727af08b1f45dadea82446b2d3f74dbf88346040518082815260200191505060405180910390a2005b34801561025157600080fd5b5061025a61131a565b6040518080602001828103825283818151815260200191508051906020019080838360005b8381101561029a57808201518184015260208101905061027f565b50505050905090810190601f1680156102c75780820380516001836020036101000a031916815260200191505b509250505060405180910390f35b3480156102e157600080fd5b50610300600480360381019080803590602001909291905050506113bc565b604051808273ffffffffffffffffffffffffffffffffffffffff1673ffffffffffffffffffffffffffffffffffffffff16815260200191505060405180910390f35b34801561034e57600080fd5b5061038d600480360381019080803573ffffffffffffffffffffffffffffffffffffffff169060200190929190803590602001909291905050506113f9565b005b34801561039b57600080fd5b506103a46115bf565b6040518082815260200191505060405180910390f35b3480156103c657600080fd5b50610425600480360381019080803573ffffffffffffffffffffffffffffffffffffffff169060200190929190803573ffffffffffffffffffffffffffffffffffffffff169060200190929190803590602001909291905050506115cc565b005b34801561043357600080fd5b50610452600480360381019080803590602001909291905050506116e3565b604051808567ffffffffffffffff1667ffffffffffffffff168152602001806020018461ffff1661ffff168152602001838152602001828103825285818151815260200191508051906020019080838360005b838110156104c05780820151818401526020810190506104a5565b50505050905090810190601f1680156104ed5780820380516001836020036101000a031916815260200191505b509550505050505060405180910390f35b34801561050a57600080fd5b50610549600480360381019080803573ffffffffffffffffffffffffffffffffffffffff169060200190929190803590602001909291905050506117dc565b6040518082815260200191505060405180910390f35b34801561056b57600080fd5b506105b0600480360381019080803590602001908201803590602001919091929391929390803561ffff16906020019092919080359060200190929190505050611853565b604051808261ffff1661ffff16815260200191505060405180910390f35b3480156105da57600080fd5b506105f9600480360381019080803590602001909291905050506118f8565b604051808215151515815260200191505060405180910390f35b34801561061f57600080fd5b50610628611926565b005b34801561063657600080fd5b5061063f6119e2565b005b34801561064d57600080fd5b5061068c600480360381019080803573ffffffffffffffffffffffffffffffffffffffff16906020019092919080359060200190929190505050611aa2565b005b34801561069a57600080fd5b506106f9600480360381019080803573ffffffffffffffffffffffffffffffffffffffff169060200190929190803573ffffffffffffffffffffffffffffffffffffffff16906020019092919080359060200190929190505050611b0c565b005b34801561070757600080fd5b50610710611b44565b6040518080602001828103825283818151815260200191508051906020019080838360005b83811015610750578082015181840152602081019050610735565b50505050905090810190601f16801561077d5780820380516001836020036101000a031916815260200191505b509250505060405180910390f35b34801561079757600080fd5b506107ba600480360381019080803561ffff169060200190929190505050611be2565b604051808215151515815260200191505060405180910390f35b3480156107e057600080fd5b50610881600480360381019080803590602001908201803590602001908080601f0160208091040260200160405190810160405280939291908181526020018383808284378201915050505050509192919290803590602001908201803590602001908080601f0160208091040260200160405190810160405280939291908181526020018383808284378201915050505050509192919290505050611c18565b005b34801561088f57600080fd5b506108ae60048036038101908080359060200190929190505050612019565b604051808215151515815260200191505060405180910390f35b3480156108d457600080fd5b506108f36004803603810190808035906020019092919050505061208b565b6040518082815260200191505060405180910390f35b34801561091557600080fd5b50610938600480360381019080803561ffff1690602001909291905050506120c3565b60405180806020018561ffff1661ffff1681526020018461ffff1661ffff168152602001838152602001828103825286818151815260200191508051906020019080838360005b8381101561099a57808201518184015260208101905061097f565b50505050905090810190601f1680156109c75780820380516001836020036101000a031916815260200191505b509550505050505060405180910390f35b3480156109e457600080fd5b506109ed61225f565b604051808215151515815260200191505060405180910390f35b348015610a1357600080fd5b50610a3260048036038101908080359060200190929190505050612272565b604051808273ffffffffffffffffffffffffffffffffffffffff1673ffffffffffffffffffffffffffffffffffffffff16815260200191505060405180910390f35b348015610a8057600080fd5b50610ab5600480360381019080803573ffffffffffffffffffffffffffffffffffffffff1690602001909291905050506122f0565b6040518082815260200191505060405180910390f35b348015610ad757600080fd5b50610ae0612374565b6040518080602001828103825283818151815260200191508051906020019080838360005b83811015610b20578082015181840152602081019050610b05565b50505050905090810190601f168015610b4d5780820380516001836020036101000a031916815260200191505b509250505060405180910390f35b348015610b6757600080fd5b50610b706123d4565b005b348015610b7e57600080fd5b50610b876127a5565b005b348015610b9557600080fd5b50610b9e612866565b604051808273ffffffffffffffffffffffffffffffffffffffff1673ffffffffffffffffffffffffffffffffffffffff16815260200191505060405180910390f35b348015610bec57600080fd5b50610c0b6004803603810190808035906020019092919050505061288c565b604051808667ffffffffffffffff1667ffffffffffffffff168152602001856000191660001916815260200184600019166000191681526020018361ffff1661ffff1681526020018261ffff1661ffff1681526020019550505050505060405180910390f35b348015610c7d57600080fd5b50610d3e600480360381019080803573ffffffffffffffffffffffffffffffffffffffff169060200190929190803590602001908201803590602001908080601f0160208091040260200160405190810160405280939291908181526020018383808284378201915050505050509192919290803590602001908201803590602001908080601f0160208091040260200160405190810160405280939291908181526020018383808284378201915050505050509192919290505050612901565b005b348015610d4c57600080fd5b50610d55612d5b565b6040518080602001828103825283818151815260200191508051906020019080838360005b83811015610d95578082015181840152602081019050610d7a565b50505050905090810190601f168015610dc25780820380516001836020036101000a031916815260200191505b509250505060405180910390f35b348015610ddc57600080fd5b50610e1d600480360381019080803573ffffffffffffffffffffffffffffffffffffffff169060200190929190803515159060200190929190505050612dfd565b005b348015610e2b57600080fd5b50610e58600480360381019080803590602001908201803590602001919091929391929390505050612f39565b6040518080602001828103825283818151815260200191508051906020019080838360005b83811015610e98578082015181840152602081019050610e7d565b50505050905090810190601f168015610ec55780820380516001836020036101000a031916815260200191505b509250505060405180910390f35b348015610edf57600080fd5b50610f84600480360381019080803573ffffffffffffffffffffffffffffffffffffffff169060200190929190803573ffffffffffffffffffffffffffffffffffffffff16906020019092919080359060200190929190803590602001908201803590602001908080601f016020809104026020016040519081016040528093929190818152602001838380828437820191505050505050919291929050505061304c565b005b348015610f9257600080fd5b50611033600480360381019080803590602001908201803590602001908080601f0160208091040260200160405190810160405280939291908181526020018383808284378201915050505050509192919290803590602001908201803590602001908080601f016020809104026020016040519081016040528093929190818152602001838380828437820191505050505050919291929050505061308b565b604051808215151515815260200191505060405180910390f35b34801561105957600080fd5b5061108e600480360381019080803573ffffffffffffffffffffffffffffffffffffffff169060200190929190505050613176565b005b34801561109c57600080fd5b506110bb60048036038101908080359060200190929190505050613551565b6040518080602001828103825283818151815260200191508051906020019080838360005b838110156110fb5780820151818401526020810190506110e0565b50505050905090810190601f1680156111285780820380516001836020036101000a031916815260200191505b509250505060405180910390f35b34801561114257600080fd5b506111996004803603810190808060a0019091929192908060a001909192919290803561ffff169060200190929190803573ffffffffffffffffffffffffffffffffffffffff16906020019092919050505061361f565b6040518082600560200280838360005b838110156111c45780820151818401526020810190506111a9565b5050505090500191505060405180910390f35b3480156111e357600080fd5b50611238600480360381019080803573ffffffffffffffffffffffffffffffffffffffff169060200190929190803573ffffffffffffffffffffffffffffffffffffffff16906020019092919050505061396b565b604051808215151515815260200191505060405180910390f35b34801561125e57600080fd5b50611293600480360381019080803573ffffffffffffffffffffffffffffffffffffffff1690602001909291905050506139ff565b005b3480156112a157600080fd5b506112c060048036038101908080359060200190929190505050613b57565b60405180866000191660001916815260200185600019166000191681526020018461ffff1661ffff1681526020018361ffff1661ffff1681526020018261ffff1661ffff1681526020019550505050505060405180910390f35b606060068054600181600116156101000203166002900480601f0160208091040260200160405190810160405280929190818152602001828054600181600116156101000203166002900480156113b25780601f10611387576101008083540402835291602001916113b2565b820191906000526020600020905b81548152906001019060200180831161139557829003601f168201915b5050505050905090565b60006003600083815260200190815260200160002060009054906101000a900473ffffffffffffffffffffffffffffffffffffffff169050919050565b600061140482612272565b90508073ffffffffffffffffffffffffffffffffffffffff168373ffffffffffffffffffffffffffffffffffffffff161415151561144157600080fd5b8073ffffffffffffffffffffffffffffffffffffffff163373ffffffffffffffffffffffffffffffffffffffff1614806114815750611480813361396b565b5b151561148c57600080fd5b600073ffffffffffffffffffffffffffffffffffffffff166114ad836113bc565b73ffffffffffffffffffffffffffffffffffffffff161415806114fd5750600073ffffffffffffffffffffffffffffffffffffffff168373ffffffffffffffffffffffffffffffffffffffff1614155b156115ba57826003600084815260200190815260200160002060006101000a81548173ffffffffffffffffffffffffffffffffffffffff021916908373ffffffffffffffffffffffffffffffffffffffff1602179055508273ffffffffffffffffffffffffffffffffffffffff168173ffffffffffffffffffffffffffffffffffffffff167f8c5be1e5ebec7d5bd14f71427d1e84f3dd0314c0f7b2291e5b200ac8c7c3b925846040518082815260200191505060405180910390a35b505050565b6000600a80549050905090565b806115d73382613ccc565b15156115e257600080fd5b600073ffffffffffffffffffffffffffffffffffffffff168473ffffffffffffffffffffffffffffffffffffffff161415151561161e57600080fd5b600073ffffffffffffffffffffffffffffffffffffffff168373ffffffffffffffffffffffffffffffffffffffff161415151561165a57600080fd5b6116648483613d61565b61166e8483613eca565b61167883836140e2565b8273ffffffffffffffffffffffffffffffffffffffff168473ffffffffffffffffffffffffffffffffffffffff167fddf252ad1be2c89b69c2b068fc378daa952ba7f163c4a11628f55a4df523b3ef846040518082815260200191505060405180910390a350505050565b600f818154811015156116f257fe5b90600052602060002090600402016000915090508060000160009054906101000a900467ffffffffffffffff1690806001018054600181600116156101000203166002900480601f0160208091040260200160405190810160405280929190818152602001828054600181600116156101000203166002900480156117b85780601f1061178d576101008083540402835291602001916117b8565b820191906000526020600020905b81548152906001019060200180831161179b57829003601f168201915b5050505050908060020160009054906101000a900461ffff16908060030154905084565b60006117e7836122f0565b821015156117f457600080fd5b600860008473ffffffffffffffffffffffffffffffffffffffff1673ffffffffffffffffffffffffffffffffffffffff1681526020019081526020016000208281548110151561184057fe5b9060005260206000200154905092915050565b6000600160009054906101000a900473ffffffffffffffffffffffffffffffffffffffff1673ffffffffffffffffffffffffffffffffffffffff163373ffffffffffffffffffffffffffffffffffffffff161415156118b157600080fd5b6118ee85858080601f01602080910402602001604051908101604052809392919081815260200183838082843782019150505050505084846141b9565b9050949350505050565b600080821015801561190e575060108054905082105b1561191c5760019050611921565b600090505b919050565b600160009054906101000a900473ffffffffffffffffffffffffffffffffffffffff1673ffffffffffffffffffffffffffffffffffffffff163373ffffffffffffffffffffffffffffffffffffffff1614151561198257600080fd5b3373ffffffffffffffffffffffffffffffffffffffff166108fc3073ffffffffffffffffffffffffffffffffffffffff16319081150290604051600060405180830381858888f193505050501580156119df573d6000803e3d6000fd5b50565b600160009054906101000a900473ffffffffffffffffffffffffffffffffffffffff1673ffffffffffffffffffffffffffffffffffffffff163373ffffffffffffffffffffffffffffffffffffffff16141515611a3e57600080fd5b600d60009054906101000a900460ff161515611a5957600080fd5b6000600d60006101000a81548160ff0219169083151502179055507f7805862f689e2f13df9f062ff482ad3ad112aca9e0847911ed832e158c525b3360405160405180910390a1565b600160009054906101000a900473ffffffffffffffffffffffffffffffffffffffff1673ffffffffffffffffffffffffffffffffffffffff163373ffffffffffffffffffffffffffffffffffffffff16141515611afe57600080fd5b611b088282614375565b5050565b80611b173382613ccc565b1515611b2257600080fd5b611b3e848484602060405190810160405280600081525061304c565b50505050565b600e8054600181600116156101000203166002900480601f016020809104026020016040519081016040528092919081815260200182805460018160011615610100020316600290048015611bda5780601f10611baf57610100808354040283529160200191611bda565b820191906000526020600020905b815481529060010190602001808311611bbd57829003601f168201915b505050505081565b6000808261ffff1610158015611c005750600f805490508261ffff16105b15611c0e5760019050611c13565b600090505b919050565b6040805190810160405280600b81526020017f455243373231546f6b656e0000000000000000000000000000000000000000008152506040805190810160405280600581526020017f312e392e30000000000000000000000000000000000000000000000000000000815250611cc3826040805190810160405280600b81526020017f696e697469616c697a65640000000000000000000000000000000000000000008152506143cc565b611ccd82826143cc565b8360069080519060200190611ce392919061535c565b508260079080519060200190611cfa92919061535c565b507fdd117a11c22118c9dee4b5a67ce578bc44529dce21ee0ccc439588fbb9fb4ea38282604051808060200180602001838103835285818151815260200191508051906020019080838360005b83811015611d62578082015181840152602081019050611d47565b50505050905090810190601f168015611d8f5780820380516001836020036101000a031916815260200191505b50838103825284818151815260200191508051906020019080838360005b83811015611dc8578082015181840152602081019050611dad565b50505050905090810190601f168015611df55780820380516001836020036101000a031916815260200191505b5094505050505060405180910390a160016000836040518082805190602001908083835b602083101515611e3e5780518252602082019150602081019050602083039250611e19565b6001836020036101000a0380198251168184511680821785525050505050509050019150509081526020016040518091039020826040518082805190602001908083835b602083101515611ea75780518252602082019150602081019050602083039250611e82565b6001836020036101000a038019825116818451168082178552505050505050905001915050908152602001604051809103902060006101000a81548160ff02191690831515021790555060016000836040518082805190602001908083835b602083101515611f2b5780518252602082019150602081019050602083039250611f06565b6001836020036101000a03801982511681845116808217855250505050505090500191505090815260200160405180910390206040805190810160405280600b81526020017f696e697469616c697a65640000000000000000000000000000000000000000008152506040518082805190602001908083835b602083101515611fc95780518252602082019150602081019050602083039250611fa4565b6001836020036101000a038019825116818451168082178552505050505050905001915050908152602001604051809103902060006101000a81548160ff02191690831515021790555050505050565b6000806002600084815260200190815260200160002060009054906101000a900473ffffffffffffffffffffffffffffffffffffffff169050600073ffffffffffffffffffffffffffffffffffffffff168173ffffffffffffffffffffffffffffffffffffffff161415915050919050565b60006120956115bf565b821015156120a257600080fd5b600a828154811015156120b157fe5b90600052602060002001549050919050565b606060008060006120d26153dc565b6120db86611be2565b15156120e657600080fd5b600f8661ffff168154811015156120f957fe5b9060005260206000209060040201608060405190810160405290816000820160009054906101000a900467ffffffffffffffff1667ffffffffffffffff1667ffffffffffffffff168152602001600182018054600181600116156101000203166002900480601f0160208091040260200160405190810160405280929190818152602001828054600181600116156101000203166002900480156121de5780601f106121b3576101008083540402835291602001916121de565b820191906000526020600020905b8154815290600101906020018083116121c157829003601f168201915b505050505081526020016002820160009054906101000a900461ffff1661ffff1661ffff168152602001600382015481525050905080602001518160400151601160008961ffff1661ffff16815260200190815260200160002060009054906101000a900461ffff1683606001518393509450945094509450509193509193565b600d60009054906101000a900460ff1681565b6000806002600084815260200190815260200160002060009054906101000a900473ffffffffffffffffffffffffffffffffffffffff169050600073ffffffffffffffffffffffffffffffffffffffff168173ffffffffffffffffffffffffffffffffffffffff16141515156122e757600080fd5b80915050919050565b60008073ffffffffffffffffffffffffffffffffffffffff168273ffffffffffffffffffffffffffffffffffffffff161415151561232d57600080fd5b600460008373ffffffffffffffffffffffffffffffffffffffff1673ffffffffffffffffffffffffffffffffffffffff168152602001908152602001600020549050919050565b606060405190810160405280602a81526020017f687474702f2f7777772e63727970746f2d6261736562616c6c2d63617264732e81526020017f636f6d2f63617264732f0000000000000000000000000000000000000000000081525081565b6040805190810160405280600a81526020017f4d696772617461626c65000000000000000000000000000000000000000000008152506040805190810160405280600581526020017f312e322e3100000000000000000000000000000000000000000000000000000081525061247f826040805190810160405280600b81526020017f696e697469616c697a65640000000000000000000000000000000000000000008152506143cc565b61248982826143cc565b7fdd117a11c22118c9dee4b5a67ce578bc44529dce21ee0ccc439588fbb9fb4ea38282604051808060200180602001838103835285818151815260200191508051906020019080838360005b838110156124f05780820151818401526020810190506124d5565b50505050905090810190601f16801561251d5780820380516001836020036101000a031916815260200191505b50838103825284818151815260200191508051906020019080838360005b8381101561255657808201518184015260208101905061253b565b50505050905090810190601f1680156125835780820380516001836020036101000a031916815260200191505b5094505050505060405180910390a160016000836040518082805190602001908083835b6020831015156125cc57805182526020820191506020810190506020830392506125a7565b6001836020036101000a0380198251168184511680821785525050505050509050019150509081526020016040518091039020826040518082805190602001908083835b6020831015156126355780518252602082019150602081019050602083039250612610565b6001836020036101000a038019825116818451168082178552505050505050905001915050908152602001604051809103902060006101000a81548160ff02191690831515021790555060016000836040518082805190602001908083835b6020831015156126b95780518252602082019150602081019050602083039250612694565b6001836020036101000a03801982511681845116808217855250505050505090500191505090815260200160405180910390206040805190810160405280600b81526020017f696e697469616c697a65640000000000000000000000000000000000000000008152506040518082805190602001908083835b6020831015156127575780518252602082019150602081019050602083039250612732565b6001836020036101000a038019825116818451168082178552505050505050905001915050908152602001604051809103902060006101000a81548160ff0219169083151502179055505050565b600160009054906101000a900473ffffffffffffffffffffffffffffffffffffffff1673ffffffffffffffffffffffffffffffffffffffff163373ffffffffffffffffffffffffffffffffffffffff1614151561280157600080fd5b600d60009054906101000a900460ff1615151561281d57600080fd5b6001600d60006101000a81548160ff0219169083151502179055507f6985a02210a168e66602d3235cb6db0e70f92b3ba4d376a33c0f3d9434bff62560405160405180910390a1565b600160009054906101000a900473ffffffffffffffffffffffffffffffffffffffff1681565b60108181548110151561289b57fe5b90600052602060002090600402016000915090508060000160009054906101000a900467ffffffffffffffff16908060010154908060020154908060030160009054906101000a900461ffff16908060030160029054906101000a900461ffff16905085565b6040805190810160405280600481526020017f43626263000000000000000000000000000000000000000000000000000000008152506040805190810160405280600581526020017f302e312e300000000000000000000000000000000000000000000000000000008152506129ac826040805190810160405280600b81526020017f696e697469616c697a65640000000000000000000000000000000000000000008152506143cc565b6129b682826143cc565b606060405190810160405280602a81526020017f687474702f2f7777772e63727970746f2d6261736562616c6c2d63617264732e81526020017f636f6d2f63617264732f00000000000000000000000000000000000000000000815250600e9080519060200190612a2892919061535c565b50612a3285614475565b612a3c8484611c18565b7fdd117a11c22118c9dee4b5a67ce578bc44529dce21ee0ccc439588fbb9fb4ea38282604051808060200180602001838103835285818151815260200191508051906020019080838360005b83811015612aa3578082015181840152602081019050612a88565b50505050905090810190601f168015612ad05780820380516001836020036101000a031916815260200191505b50838103825284818151815260200191508051906020019080838360005b83811015612b09578082015181840152602081019050612aee565b50505050905090810190601f168015612b365780820380516001836020036101000a031916815260200191505b5094505050505060405180910390a160016000836040518082805190602001908083835b602083101515612b7f5780518252602082019150602081019050602083039250612b5a565b6001836020036101000a0380198251168184511680821785525050505050509050019150509081526020016040518091039020826040518082805190602001908083835b602083101515612be85780518252602082019150602081019050602083039250612bc3565b6001836020036101000a038019825116818451168082178552505050505050905001915050908152602001604051809103902060006101000a81548160ff02191690831515021790555060016000836040518082805190602001908083835b602083101515612c6c5780518252602082019150602081019050602083039250612c47565b6001836020036101000a03801982511681845116808217855250505050505090500191505090815260200160405180910390206040805190810160405280600b81526020017f696e697469616c697a65640000000000000000000000000000000000000000008152506040518082805190602001908083835b602083101515612d0a5780518252602082019150602081019050602083039250612ce5565b6001836020036101000a038019825116818451168082178552505050505050905001915050908152602001604051809103902060006101000a81548160ff0219169083151502179055505050505050565b606060078054600181600116156101000203166002900480601f016020809104026020016040519081016040528092919081815260200182805460018160011615610100020316600290048015612df35780601f10612dc857610100808354040283529160200191612df3565b820191906000526020600020905b815481529060010190602001808311612dd657829003601f168201915b5050505050905090565b3373ffffffffffffffffffffffffffffffffffffffff168273ffffffffffffffffffffffffffffffffffffffff1614151515612e3857600080fd5b80600560003373ffffffffffffffffffffffffffffffffffffffff1673ffffffffffffffffffffffffffffffffffffffff16815260200190815260200160002060008473ffffffffffffffffffffffffffffffffffffffff1673ffffffffffffffffffffffffffffffffffffffff16815260200190815260200160002060006101000a81548160ff0219169083151502179055508173ffffffffffffffffffffffffffffffffffffffff163373ffffffffffffffffffffffffffffffffffffffff167f17307eab39ab6107e8899845ad3d59bd9653f200f220920489ca2b5937696c3183604051808215151515815260200191505060405180910390a35050565b6060600160009054906101000a900473ffffffffffffffffffffffffffffffffffffffff1673ffffffffffffffffffffffffffffffffffffffff163373ffffffffffffffffffffffffffffffffffffffff16141515612f9757600080fd5b8282600e9190612fa8929190615413565b50600e8054600181600116156101000203166002900480601f01602080910402602001604051908101604052809291908181526020018280546001816001161561010002031660029004801561303f5780601f106130145761010080835404028352916020019161303f565b820191906000526020600020905b81548152906001019060200180831161302257829003601f168201915b5050505050905092915050565b816130573382613ccc565b151561306257600080fd5b61306d8585856115cc565b61307985858585614888565b151561308457600080fd5b5050505050565b600080836040518082805190602001908083835b6020831015156130c4578051825260208201915060208101905060208303925061309f565b6001836020036101000a0380198251168184511680821785525050505050509050019150509081526020016040518091039020826040518082805190602001908083835b60208310151561312d5780518252602082019150602081019050602083039250613108565b6001836020036101000a038019825116818451168082178552505050505050905001915050908152602001604051809103902060009054906101000a900460ff16905092915050565b6040805190810160405280600881526020017f5061757361626c650000000000000000000000000000000000000000000000008152506040805190810160405280600581526020017f312e392e30000000000000000000000000000000000000000000000000000000815250613221826040805190810160405280600b81526020017f696e697469616c697a65640000000000000000000000000000000000000000008152506143cc565b61322b82826143cc565b61323483614475565b7fdd117a11c22118c9dee4b5a67ce578bc44529dce21ee0ccc439588fbb9fb4ea38282604051808060200180602001838103835285818151815260200191508051906020019080838360005b8381101561329b578082015181840152602081019050613280565b50505050905090810190601f1680156132c85780820380516001836020036101000a031916815260200191505b50838103825284818151815260200191508051906020019080838360005b838110156133015780820151818401526020810190506132e6565b50505050905090810190601f16801561332e5780820380516001836020036101000a031916815260200191505b5094505050505060405180910390a160016000836040518082805190602001908083835b6020831015156133775780518252602082019150602081019050602083039250613352565b6001836020036101000a0380198251168184511680821785525050505050509050019150509081526020016040518091039020826040518082805190602001908083835b6020831015156133e057805182526020820191506020810190506020830392506133bb565b6001836020036101000a038019825116818451168082178552505050505050905001915050908152602001604051809103902060006101000a81548160ff02191690831515021790555060016000836040518082805190602001908083835b602083101515613464578051825260208201915060208101905060208303925061343f565b6001836020036101000a03801982511681845116808217855250505050505090500191505090815260200160405180910390206040805190810160405280600b81526020017f696e697469616c697a65640000000000000000000000000000000000000000008152506040518082805190602001908083835b60208310151561350257805182526020820191506020810190506020830392506134dd565b6001836020036101000a038019825116818451168082178552505050505050905001915050908152602001604051809103902060006101000a81548160ff021916908315150217905550505050565b60608061355d836118f8565b151561356857600080fd5b61357183614a76565b9050613617600e8054600181600116156101000203166002900480601f01602080910402602001604051908101604052809291908181526020018280546001816001161561010002031660029004801561360c5780601f106135e15761010080835404028352916020019161360c565b820191906000526020600020905b8154815290600101906020018083116135ef57829003601f168201915b505050505082614bcd565b915050919050565b613627615493565b61362f6153dc565b613637615493565b6000600160009054906101000a900473ffffffffffffffffffffffffffffffffffffffff1673ffffffffffffffffffffffffffffffffffffffff163373ffffffffffffffffffffffffffffffffffffffff1614151561369557600080fd5b3073ffffffffffffffffffffffffffffffffffffffff168573ffffffffffffffffffffffffffffffffffffffff16141515156136d057600080fd5b6136d986611be2565b15156136e457600080fd5b600f8661ffff168154811015156136f757fe5b9060005260206000209060040201608060405190810160405290816000820160009054906101000a900467ffffffffffffffff1667ffffffffffffffff1667ffffffffffffffff168152602001600182018054600181600116156101000203166002900480601f0160208091040260200160405190810160405280929190818152602001828054600181600116156101000203166002900480156137dc5780601f106137b1576101008083540402835291602001916137dc565b820191906000526020600020905b8154815290600101906020018083116137bf57829003601f168201915b505050505081526020016002820160009054906101000a900461ffff1661ffff1661ffff16815260200160038201548152505092506005601160008861ffff1661ffff16815260200190815260200160002060009054906101000a900461ffff160161ffff16836040015161ffff161015151561385557fe5b6005601160008861ffff1661ffff16815260200190815260200160002060008282829054906101000a900461ffff160192506101000a81548161ffff021916908361ffff1602179055508473ffffffffffffffffffffffffffffffffffffffff167fed6fac1d8fd17dc518d26d84a2df2db1b63719c50ab63f06416fbfffb0443be287604051808261ffff1661ffff16815260200191505060405180910390a2600090505b600581101561395d5761393b888260058110151561391457fe5b602002013560001916888360058110151561392b57fe5b6020020135600019168888614d9e565b828260058110151561394957fe5b6020020181815250508060010190506138fa565b819350505050949350505050565b6000600560008473ffffffffffffffffffffffffffffffffffffffff1673ffffffffffffffffffffffffffffffffffffffff16815260200190815260200160002060008373ffffffffffffffffffffffffffffffffffffffff1673ffffffffffffffffffffffffffffffffffffffff16815260200190815260200160002060009054906101000a900460ff16905092915050565b600160009054906101000a900473ffffffffffffffffffffffffffffffffffffffff1673ffffffffffffffffffffffffffffffffffffffff163373ffffffffffffffffffffffffffffffffffffffff16141515613a5b57600080fd5b600073ffffffffffffffffffffffffffffffffffffffff168173ffffffffffffffffffffffffffffffffffffffff1614151515613a9757600080fd5b8073ffffffffffffffffffffffffffffffffffffffff16600160009054906101000a900473ffffffffffffffffffffffffffffffffffffffff1673ffffffffffffffffffffffffffffffffffffffff167f8be0079c531659141344cd1fd0a4f28419497f9722a3daafe3b4186f6b6457e060405160405180910390a380600160006101000a81548173ffffffffffffffffffffffffffffffffffffffff021916908373ffffffffffffffffffffffffffffffffffffffff16021790555050565b6000806000806000613b676154b6565b613b70876118f8565b1515613b7b57600080fd5b601087815481101515613b8a57fe5b906000526020600020906004020160a060405190810160405290816000820160009054906101000a900467ffffffffffffffff1667ffffffffffffffff1667ffffffffffffffff1681526020016001820154600019166000191681526020016002820154600019166000191681526020016003820160009054906101000a900461ffff1661ffff1661ffff1681526020016003820160029054906101000a900461ffff1661ffff1661ffff1681525050905080602001518160400151826060015183608001516012600086602001516000191660001916815260200190815260200160002060008660400151600019166000191681526020019081526020016000206000866060015161ffff1661ffff16815260200190815260200160002060009054906101000a900461ffff16955095509550955095505091939590929450565b600080613cd883612272565b90508073ffffffffffffffffffffffffffffffffffffffff168473ffffffffffffffffffffffffffffffffffffffff161480613d4757508373ffffffffffffffffffffffffffffffffffffffff16613d2f846113bc565b73ffffffffffffffffffffffffffffffffffffffff16145b80613d585750613d57818561396b565b5b91505092915050565b8173ffffffffffffffffffffffffffffffffffffffff16613d8182612272565b73ffffffffffffffffffffffffffffffffffffffff16141515613da357600080fd5b600073ffffffffffffffffffffffffffffffffffffffff166003600083815260200190815260200160002060009054906101000a900473ffffffffffffffffffffffffffffffffffffffff1673ffffffffffffffffffffffffffffffffffffffff16141515613ec65760006003600083815260200190815260200160002060006101000a81548173ffffffffffffffffffffffffffffffffffffffff021916908373ffffffffffffffffffffffffffffffffffffffff160217905550600073ffffffffffffffffffffffffffffffffffffffff168273ffffffffffffffffffffffffffffffffffffffff167f8c5be1e5ebec7d5bd14f71427d1e84f3dd0314c0f7b2291e5b200ac8c7c3b925836040518082815260200191505060405180910390a35b5050565b6000806000613ed98585614fdb565b60096000858152602001908152602001600020549250613f456001600860008873ffffffffffffffffffffffffffffffffffffffff1673ffffffffffffffffffffffffffffffffffffffff1681526020019081526020016000208054905061510a90919063ffffffff16565b9150600860008673ffffffffffffffffffffffffffffffffffffffff1673ffffffffffffffffffffffffffffffffffffffff16815260200190815260200160002082815481101515613f9357fe5b9060005260206000200154905080600860008773ffffffffffffffffffffffffffffffffffffffff1673ffffffffffffffffffffffffffffffffffffffff16815260200190815260200160002084815481101515613fed57fe5b90600052602060002001819055506000600860008773ffffffffffffffffffffffffffffffffffffffff1673ffffffffffffffffffffffffffffffffffffffff1681526020019081526020016000208381548110151561404957fe5b9060005260206000200181905550600860008673ffffffffffffffffffffffffffffffffffffffff1673ffffffffffffffffffffffffffffffffffffffff1681526020019081526020016000208054809190600190036140a991906154fe565b50600060096000868152602001908152602001600020819055508260096000838152602001908152602001600020819055505050505050565b60006140ee8383615123565b600860008473ffffffffffffffffffffffffffffffffffffffff1673ffffffffffffffffffffffffffffffffffffffff168152602001908152602001600020805490509050600860008473ffffffffffffffffffffffffffffffffffffffff1673ffffffffffffffffffffffffffffffffffffffff168152602001908152602001600020829080600181540180825580915050906001820390600052602060002001600090919290919091505550806009600084815260200190815260200160002081905550505050565b60006141c36153dc565b60006080604051908101604052804267ffffffffffffffff1681526020018781526020018661ffff1681526020018581525091506001600f839080600181540180825580915050906001820390600052602060002090600402016000909192909190915060008201518160000160006101000a81548167ffffffffffffffff021916908367ffffffffffffffff160217905550602082015181600101908051906020019061427292919061552a565b5060408201518160020160006101000a81548161ffff021916908361ffff1602179055506060820151816003015550500390507f7186a5e66051e08f933b0eacb0535846cb666b1f72cec819dbcf99fdf097735981878787604051808561ffff1661ffff168152602001806020018461ffff1661ffff168152602001838152602001828103825285818151815260200191508051906020019080838360005b8381101561432c578082015181840152602081019050614311565b50505050905090810190601f1680156143595780820380516001836020036101000a031916815260200191505b509550505050505060405180910390a180925050509392505050565b61437f828261527d565b600a80549050600b600083815260200190815260200160002081905550600a8190806001815401808255809150509060018203906000526020600020016000909192909190915055505050565b6143d6828261308b565b151515614471576040517f08c379a00000000000000000000000000000000000000000000000000000000081526004018080602001828103825260328152602001807f52657175657374656420746172676574206d6967726174696f6e20494420686181526020017f7320616c7265616479206265656e2072756e000000000000000000000000000081525060400191505060405180910390fd5b5050565b6040805190810160405280600781526020017f4f776e61626c65000000000000000000000000000000000000000000000000008152506040805190810160405280600581526020017f312e392e30000000000000000000000000000000000000000000000000000000815250614520826040805190810160405280600b81526020017f696e697469616c697a65640000000000000000000000000000000000000000008152506143cc565b61452a82826143cc565b82600160006101000a81548173ffffffffffffffffffffffffffffffffffffffff021916908373ffffffffffffffffffffffffffffffffffffffff1602179055507fdd117a11c22118c9dee4b5a67ce578bc44529dce21ee0ccc439588fbb9fb4ea38282604051808060200180602001838103835285818151815260200191508051906020019080838360005b838110156145d25780820151818401526020810190506145b7565b50505050905090810190601f1680156145ff5780820380516001836020036101000a031916815260200191505b50838103825284818151815260200191508051906020019080838360005b8381101561463857808201518184015260208101905061461d565b50505050905090810190601f1680156146655780820380516001836020036101000a031916815260200191505b5094505050505060405180910390a160016000836040518082805190602001908083835b6020831015156146ae5780518252602082019150602081019050602083039250614689565b6001836020036101000a0380198251168184511680821785525050505050509050019150509081526020016040518091039020826040518082805190602001908083835b60208310151561471757805182526020820191506020810190506020830392506146f2565b6001836020036101000a038019825116818451168082178552505050505050905001915050908152602001604051809103902060006101000a81548160ff02191690831515021790555060016000836040518082805190602001908083835b60208310151561479b5780518252602082019150602081019050602083039250614776565b6001836020036101000a03801982511681845116808217855250505050505090500191505090815260200160405180910390206040805190810160405280600b81526020017f696e697469616c697a65640000000000000000000000000000000000000000008152506040518082805190602001908083835b6020831015156148395780518252602082019150602081019050602083039250614814565b6001836020036101000a038019825116818451168082178552505050505050905001915050908152602001604051809103902060006101000a81548160ff021916908315150217905550505050565b6000806148aa8573ffffffffffffffffffffffffffffffffffffffff1661532d565b15156148b95760019150614a6d565b8473ffffffffffffffffffffffffffffffffffffffff1663f0b9e5ba8786866040518463ffffffff167c0100000000000000000000000000000000000000000000000000000000028152600401808473ffffffffffffffffffffffffffffffffffffffff1673ffffffffffffffffffffffffffffffffffffffff16815260200183815260200180602001828103825283818151815260200191508051906020019080838360005b8381101561497b578082015181840152602081019050614960565b50505050905090810190601f1680156149a85780820380516001836020036101000a031916815260200191505b50945050505050602060405180830381600087803b1580156149c957600080fd5b505af11580156149dd573d6000803e3d6000fd5b505050506040513d60208110156149f357600080fd5b8101908080519060200190929190505050905063f0b9e5ba7c0100000000000000000000000000000000000000000000000000000000027bffffffffffffffffffffffffffffffffffffffffffffffffffffffff1916817bffffffffffffffffffffffffffffffffffffffffffffffffffffffff19161491505b50949350505050565b60606000806060600080861415614ac4576040805190810160405280600181526020017f30000000000000000000000000000000000000000000000000000000000000008152509450614bc4565b8593505b600084141515614aee578280600101935050600a84811515614ae657fe5b049350614ac8565b826040519080825280601f01601f191660200182016040528015614b215781602001602082028038833980820191505090505b5091506001830390505b600086141515614bc057600a86811515614b4157fe5b066030017f010000000000000000000000000000000000000000000000000000000000000002828280600190039350815181101515614b7c57fe5b9060200101907effffffffffffffffffffffffffffffffffffffffffffffffffffffffffffff1916908160001a905350600a86811515614bb857fe5b049550614b2b565b8194505b50505050919050565b606080606080606060008088955087945084518651016040519080825280601f01601f191660200182016040528015614c155781602001602082028038833980820191505090505b50935083925060009150600090505b8551811015614cd7578581815181101515614c3b57fe5b9060200101517f010000000000000000000000000000000000000000000000000000000000000090047f0100000000000000000000000000000000000000000000000000000000000000028383806001019450815181101515614c9a57fe5b9060200101907effffffffffffffffffffffffffffffffffffffffffffffffffffffffffffff1916908160001a9053508080600101915050614c24565b600090505b8451811015614d8f578481815181101515614cf357fe5b9060200101517f010000000000000000000000000000000000000000000000000000000000000090047f0100000000000000000000000000000000000000000000000000000000000000028383806001019450815181101515614d5257fe5b9060200101907effffffffffffffffffffffffffffffffffffffffffffffffffffffffffffff1916908160001a9053508080600101915050614cdc565b82965050505050505092915050565b600080614da96154b6565b60006012600089600019166000191681526020019081526020016000206000886000191660001916815260200190815260200160002060008761ffff1661ffff168152602001908152602001600020600081819054906101000a900461ffff1660010191906101000a81548161ffff021916908361ffff1602179055925060a0604051908101604052804267ffffffffffffffff16815260200189600019168152602001886000191681526020018761ffff1681526020018461ffff16815250915060016010839080600181540180825580915050906001820390600052602060002090600402016000909192909190915060008201518160000160006101000a81548167ffffffffffffffff021916908367ffffffffffffffff160217905550602082015181600101906000191690556040820151816002019060001916905560608201518160030160006101000a81548161ffff021916908361ffff16021790555060808201518160030160026101000a81548161ffff021916908361ffff16021790555050500390508473ffffffffffffffffffffffffffffffffffffffff167f4877c0c33183683110f068c1240f2e2bcf9bf5a51db34abc6dd5521bcd25efc1898989878660405180866000191660001916815260200185600019166000191681526020018461ffff1661ffff1681526020018361ffff1661ffff1681526020018281526020019550505050505060405180910390a2614fcd8582614375565b809350505050949350505050565b8173ffffffffffffffffffffffffffffffffffffffff16614ffb82612272565b73ffffffffffffffffffffffffffffffffffffffff1614151561501d57600080fd5b6150706001600460008573ffffffffffffffffffffffffffffffffffffffff1673ffffffffffffffffffffffffffffffffffffffff1681526020019081526020016000205461510a90919063ffffffff16565b600460008473ffffffffffffffffffffffffffffffffffffffff1673ffffffffffffffffffffffffffffffffffffffff1681526020019081526020016000208190555060006002600083815260200190815260200160002060006101000a81548173ffffffffffffffffffffffffffffffffffffffff021916908373ffffffffffffffffffffffffffffffffffffffff1602179055505050565b600082821115151561511857fe5b818303905092915050565b600073ffffffffffffffffffffffffffffffffffffffff166002600083815260200190815260200160002060009054906101000a900473ffffffffffffffffffffffffffffffffffffffff1673ffffffffffffffffffffffffffffffffffffffff1614151561519157600080fd5b816002600083815260200190815260200160002060006101000a81548173ffffffffffffffffffffffffffffffffffffffff021916908373ffffffffffffffffffffffffffffffffffffffff1602179055506152366001600460008573ffffffffffffffffffffffffffffffffffffffff1673ffffffffffffffffffffffffffffffffffffffff1681526020019081526020016000205461534090919063ffffffff16565b600460008473ffffffffffffffffffffffffffffffffffffffff1673ffffffffffffffffffffffffffffffffffffffff168152602001908152602001600020819055505050565b600073ffffffffffffffffffffffffffffffffffffffff168273ffffffffffffffffffffffffffffffffffffffff16141515156152b957600080fd5b6152c382826140e2565b8173ffffffffffffffffffffffffffffffffffffffff16600073ffffffffffffffffffffffffffffffffffffffff167fddf252ad1be2c89b69c2b068fc378daa952ba7f163c4a11628f55a4df523b3ef836040518082815260200191505060405180910390a35050565b600080823b905060008111915050919050565b6000818301905082811015151561535357fe5b80905092915050565b828054600181600116156101000203166002900490600052602060002090601f016020900481019282601f1061539d57805160ff19168380011785556153cb565b828001600101855582156153cb579182015b828111156153ca5782518255916020019190600101906153af565b5b5090506153d891906155aa565b5090565b608060405190810160405280600067ffffffffffffffff16815260200160608152602001600061ffff168152602001600081525090565b828054600181600116156101000203166002900490600052602060002090601f016020900481019282601f1061545457803560ff1916838001178555615482565b82800160010185558215615482579182015b82811115615481578235825591602001919060010190615466565b5b50905061548f91906155aa565b5090565b60a060405190810160405280600590602082028038833980820191505090505090565b60a060405190810160405280600067ffffffffffffffff1681526020016000801916815260200160008019168152602001600061ffff168152602001600061ffff1681525090565b8154818355818111156155255781836000526020600020918201910161552491906155aa565b5b505050565b828054600181600116156101000203166002900490600052602060002090601f016020900481019282601f1061556b57805160ff1916838001178555615599565b82800160010185558215615599579182015b8281111561559857825182559160200191906001019061557d565b5b5090506155a691906155aa565b5090565b6155cc91905b808211156155c85760008160009055506001016155b0565b5090565b905600a165627a7a7230582005df58a1a23e5178c408a18b95577b72cde6a1a47cf23605dd191e297da07c910029",
  "source": "pragma solidity ^0.4.21;\nimport \"openzeppelin-zos/contracts/token/ERC721/MintableERC721Token.sol\";\nimport \"openzeppelin-zos/contracts/lifecycle/Pausable.sol\";\n\n/**\n * @title CBBC (Crypto Baseball Cards)\n */\ncontract Cbbc is MintableERC721Token, Pausable {\n\n  /// @dev Emit this event whenever we set a new API Base URL (see setApiBaseUri below)\n  event ApiBaseUriSet(string _api_base_url);\n  /// @dev Emit this event whenever we mint a new edition (see mintEdition below)\n  event EditionMinted(uint16 _newEditionId, string _name, uint16 _numCards, uint256 _packPrice);\n  /// @dev Emit this event whenever we mint a new 5 pack of cards (see mintFivePack below)\n  event FivePackMinted(uint16 _editionId, address indexed _owner);\n  /// @dev Emit this event whenever we mint a new card (see _mintCard below)\n  event CardMinted(bytes32 _playerBbrefId, bytes32 _cardType, uint16 _editionId, uint16 _seriesNumber, uint256 _cardId, address indexed _owner);\n  /// @dev Emit this event whenever the contract fallback function is called\n  event FallBackPaid(address indexed _sender, uint256 _value);\n\n  /// @dev The struct representing the Crypto Baseball edition.\n  struct Edition {\n    // The timestamp at which this card was minted.\n    uint64 mintTime;\n    // The name of the Edition\n    string name;\n    // The number of cards in the Edition\n    uint16 numCards;\n    // The price for a pack of cards in the Edition\n    uint256 packPrice;\n  }\n\n  /// @dev The struct representing the Crypto Baseball card.\n  struct Card {\n    // The timestamp at which this card was minted.\n    uint64 mintTime;\n    // The BBREF ID of the player represented by the card\n    bytes32 playerBbrefId;\n    // The type of card, ie \"player\", \"pitcher\", \"manager\"\n    bytes32 cardType;\n    // The CBBC Edition ID that the card belongs to\n    uint16 editionId;\n    // Cards for a given player and edition have a series number, which gets\n    // incremented in sequence. If we mint 100 cards of a given player in an edition,\n    // the 21st one to be minted has serialNumber = 21 of 100.\n    uint16 seriesNumber;\n  }\n\n  /*** STORAGE ***/\n\n  // @dev The default API Base URI\n  string public constant API_BASE_URI = \"http//www.crypto-baseball-cards.com/cards/\";\n\n  // @dev The API Base URI\n  string public apiBaseUri;\n\n  /// @dev All the editions that have been minted, indexed by editionId.\n  Edition[] public editions;\n\n  /// @dev All the cards that have been minted, indexed by cardId.\n  Card[] public cards;\n\n  /// @dev Keeps track of how many cards we have minted for a given edition\n  mapping (uint16 => uint16) internal mintedCountForEditionId;\n\n  /// @dev Keeps track of how many cards we have minted for a given player, card type and edition\n  mapping (bytes32 => mapping (bytes32 => mapping (uint16 => uint16))) internal mintedCountForPlayerBbrefIdCardTypeAndEditionId;\n\n  /// @dev We initialize with the standard params.\n  /// @param _sender is the Contract owner.\n  /// @param _name is the CBBC ERC721 token name.\n  /// @param _symbol is the CBBC ERC721 token symbol.\n  function initialize(address _sender, string _name, string _symbol) isInitializer(\"Cbbc\", \"0.1.0\")  public {\n    apiBaseUri = API_BASE_URI;\n    Ownable.initialize(_sender);\n    ERC721Token.initialize(_name, _symbol);\n  }\n\n  /// @dev Allows the contract owner to set a new API Base URL.\n  /// @param _apiBaseUri the new API Base URL\n  function setApiBaseUri(\n    string _apiBaseUri\n  )\n  external onlyOwner\n  returns (string)\n  {\n    apiBaseUri = _apiBaseUri;\n    return apiBaseUri;\n  }\n\n  /// @dev Allows the contract owner to mint a new edition of cards.\n  /// @param _name the name of the edition\n  /// @param _numCards the total number of cards in the edition\n  function mintEdition(\n    string _name,\n    uint16 _numCards,\n    uint256 _packPrice\n  )\n  external onlyOwner\n  returns (uint16)\n  {\n    return _mintEdition(_name, _numCards, _packPrice);\n  }\n\n  /// @dev An internal method that creates a new card and stores it.\n  /// Emits an EditionMinted event.\n  /// @param _name the name of the edition\n  /// @param _numCards the total number of cards in the edition\n  function _mintEdition(\n    string _name,\n    uint16 _numCards,\n    uint256 _packPrice\n  )\n  internal\n  returns (uint16)\n  {\n    Edition memory newEdition = Edition({\n      mintTime: uint64(now),\n      name: _name,\n      numCards: _numCards,\n      packPrice: _packPrice\n    });\n    uint16 newEditionId = uint16(editions.push(newEdition) - 1);\n    emit EditionMinted(newEditionId, _name, _numCards, _packPrice);\n    return newEditionId;\n  }\n\n  /// @dev Allows the contract owner to mint a pack of 5 cards.\n  /// @param _playerBbrefIds are the player BBREF IDs for the 5 new card.\n  /// @param _cardTypes are the card types (\"player\", \"pitcher\", \"manager\") for the 5 new cards.\n  /// @param _editionId is the CBBC edition ID for the 5 new cards.\n  /// @param _owner is the pack's owner.\n  /// @return The 5 new card IDs.\n  function mintFivePack(\n    bytes32[5] _playerBbrefIds,\n    bytes32[5] _cardTypes,\n    uint16 _editionId,\n    address _owner\n  )\n  external onlyOwner\n  returns (uint256[5])\n  {\n    require(_owner != address(this));\n    require(checkEditionExists(_editionId));\n    Edition memory edition = editions[_editionId];\n    assert(edition.numCards >= (mintedCountForEditionId[_editionId] + 5));\n    mintedCountForEditionId[_editionId] += 5;\n    uint256[5] memory cardIds;\n    emit FivePackMinted(_editionId, _owner);\n    for(uint i = 0; i < 5; ++i)\n    {\n      cardIds[i] = _mintCard(_playerBbrefIds[i], _cardTypes[i], _editionId, _owner);\n    }\n    return cardIds;\n  }\n\n  /// @dev An internal method that creates a new card and stores it.\n  ///  Emits both a CardMinted and a Transfer event.\n  /// @param _editionId The CBBC Edition ID that the card belongs to\n  /// @param _owner The card owner\n  function _mintCard(\n    bytes32 _playerBbrefId,\n    bytes32 _cardType,\n    uint16 _editionId,\n    address _owner\n  )\n    internal\n    returns (uint256)\n  {\n    uint16 seriesNumber = ++mintedCountForPlayerBbrefIdCardTypeAndEditionId[_playerBbrefId][_cardType][_editionId];\n    Card memory newCard = Card({\n      mintTime: uint64(now),\n      playerBbrefId: _playerBbrefId,\n      cardType: _cardType,\n      editionId: _editionId,\n      seriesNumber: seriesNumber\n    });\n    uint256 newCardId = cards.push(newCard) - 1;\n    emit CardMinted(_playerBbrefId, _cardType, _editionId, seriesNumber, newCardId, _owner);\n    _mint(_owner, newCardId);\n    return newCardId;\n  }\n\n  /// @dev Returns the API URL for a given token Id.\n  /// see: https://docs.opensea.io/docs/2-adding-metadata\n  function tokenURI(uint256 _tokenId) public view returns (string) {\n    require(checkCardExists(_tokenId));\n    string memory _id = uint2str(_tokenId);\n    return strConcat(apiBaseUri, _id);\n  }\n\n  /// @dev Returns true if the edition with ID _editionId exists.\n  function checkEditionExists(uint16 _editionId) public view returns(bool){\n    if((_editionId >= 0) && (_editionId < editions.length)) {\n      return true;\n    } else {\n      return false;\n    }\n  }\n\n  /// @dev Returns the edition name, number of cards, minted count of cards for the edition, and pack price for a given _editionId.\n  /// see: https://docs.opensea.io/docs/2-adding-metadata\n  function editionInfo(uint16 _editionId) public view returns (string, uint16, uint16, uint256) {\n    require(checkEditionExists(_editionId));\n    Edition memory edition = editions[_editionId];\n    return (edition.name, edition.numCards, mintedCountForEditionId[_editionId], edition.packPrice);\n  }\n\n  /// @dev Returns true if the card with ID _cardId exists.\n  function checkCardExists(uint256 _cardId) public view returns(bool){\n    if((_cardId >= 0) && (_cardId < cards.length)) {\n      return true;\n    } else {\n      return false;\n    }\n  }\n\n  /// @dev Returns the edition id, minted card count for the edition and tokenURI for a given token Id.\n  /// see: https://docs.opensea.io/docs/2-adding-metadata\n  function cardInfo(uint256 _tokenId) public view returns (bytes32, bytes32, uint16, uint16, uint16) {\n    require(checkCardExists(_tokenId));\n    Card memory card = cards[_tokenId];\n    return (card.playerBbrefId, card.cardType, card.editionId, card.seriesNumber, mintedCountForPlayerBbrefIdCardTypeAndEditionId[card.playerBbrefId][card.cardType][card.editionId]);\n  }\n\n  /// @dev Withdraw remaining contract balance to owner.\n  function withdraw() external onlyOwner {\n    msg.sender.transfer(address(this).balance);\n  }\n\n  /// @dev Fallback function, require no data and just emit a FallBackPaid event.\n  function () public payable {\n    require(msg.data.length == 0);\n    emit FallBackPaid(msg.sender, msg.value);\n  }\n\n  // String helpers below were taken from Oraclize.\n  // https://github.com/oraclize/ethereum-api/blob/master/oraclizeAPI_0.4.sol\n\n  function strConcat(string _a, string _b) internal pure returns (string) {\n    bytes memory _ba = bytes(_a);\n    bytes memory _bb = bytes(_b);\n    string memory ab = new string(_ba.length + _bb.length);\n    bytes memory bab = bytes(ab);\n    uint k = 0;\n    for (uint i = 0; i < _ba.length; i++) bab[k++] = _ba[i];\n    for (i = 0; i < _bb.length; i++) bab[k++] = _bb[i];\n    return string(bab);\n  }\n\n  function uint2str(uint i) internal pure returns (string) {\n    if (i == 0) return \"0\";\n    uint j = i;\n    uint len;\n    while (j != 0) {\n      len++;\n      j /= 10;\n    }\n    bytes memory bstr = new bytes(len);\n    uint k = len - 1;\n    while (i != 0) {\n      bstr[k--] = byte(48 + i % 10);\n      i /= 10;\n    }\n    return string(bstr);\n  }\n\n}\n",
  "sourcePath": "/Users/ramie/cbbc_smart_contracts/cbbc-zos/contracts/Cbbc.sol",
  "compiler": {
    "name": "solc",
    "version": "0.4.24+commit.e67f0147.Emscripten.clang"
  },
  "schemaVersion": "2.0.1",
  "updatedAt": "2018-10-11T00:10:12.147Z"
}