{
  "contractName": "Cbbc",
  "abi": [
    {
      "constant": true,
      "inputs": [],
      "name": "name",
      "outputs": [
        {
          "name": "",
          "type": "string"
        }
      ],
      "payable": false,
      "stateMutability": "view",
      "type": "function"
    },
    {
      "constant": true,
      "inputs": [],
      "name": "apiBaseUrl",
      "outputs": [
        {
          "name": "",
          "type": "string"
        }
      ],
      "payable": false,
      "stateMutability": "view",
      "type": "function"
    },
    {
      "constant": true,
      "inputs": [
        {
          "name": "_tokenId",
          "type": "uint256"
        }
      ],
      "name": "getApproved",
      "outputs": [
        {
          "name": "",
          "type": "address"
        }
      ],
      "payable": false,
      "stateMutability": "view",
      "type": "function"
    },
    {
      "constant": false,
      "inputs": [
        {
          "name": "_to",
          "type": "address"
        },
        {
          "name": "_tokenId",
          "type": "uint256"
        }
      ],
      "name": "approve",
      "outputs": [],
      "payable": false,
      "stateMutability": "nonpayable",
      "type": "function"
    },
    {
      "constant": true,
      "inputs": [],
      "name": "totalSupply",
      "outputs": [
        {
          "name": "",
          "type": "uint256"
        }
      ],
      "payable": false,
      "stateMutability": "view",
      "type": "function"
    },
    {
      "constant": false,
      "inputs": [
        {
          "name": "_from",
          "type": "address"
        },
        {
          "name": "_to",
          "type": "address"
        },
        {
          "name": "_tokenId",
          "type": "uint256"
        }
      ],
      "name": "transferFrom",
      "outputs": [],
      "payable": false,
      "stateMutability": "nonpayable",
      "type": "function"
    },
    {
      "constant": true,
      "inputs": [
        {
          "name": "",
          "type": "uint256"
        }
      ],
      "name": "editions",
      "outputs": [
        {
          "name": "mintTime",
          "type": "uint64"
        },
        {
          "name": "name",
          "type": "string"
        },
        {
          "name": "numCards",
          "type": "uint32"
        },
        {
          "name": "packPrice",
          "type": "uint256"
        }
      ],
      "payable": false,
      "stateMutability": "view",
      "type": "function"
    },
    {
      "constant": true,
      "inputs": [
        {
          "name": "_owner",
          "type": "address"
        },
        {
          "name": "_index",
          "type": "uint256"
        }
      ],
      "name": "tokenOfOwnerByIndex",
      "outputs": [
        {
          "name": "",
          "type": "uint256"
        }
      ],
      "payable": false,
      "stateMutability": "view",
      "type": "function"
    },
    {
      "constant": false,
      "inputs": [],
      "name": "unpause",
      "outputs": [],
      "payable": false,
      "stateMutability": "nonpayable",
      "type": "function"
    },
    {
      "constant": false,
      "inputs": [
        {
          "name": "_to",
          "type": "address"
        },
        {
          "name": "_tokenId",
          "type": "uint256"
        }
      ],
      "name": "mint",
      "outputs": [],
      "payable": false,
      "stateMutability": "nonpayable",
      "type": "function"
    },
    {
      "constant": false,
      "inputs": [
        {
          "name": "_from",
          "type": "address"
        },
        {
          "name": "_to",
          "type": "address"
        },
        {
          "name": "_tokenId",
          "type": "uint256"
        }
      ],
      "name": "safeTransferFrom",
      "outputs": [],
      "payable": false,
      "stateMutability": "nonpayable",
      "type": "function"
    },
    {
      "constant": true,
      "inputs": [
        {
          "name": "_tokenId",
          "type": "uint256"
        }
      ],
      "name": "exists",
      "outputs": [
        {
          "name": "",
          "type": "bool"
        }
      ],
      "payable": false,
      "stateMutability": "view",
      "type": "function"
    },
    {
      "constant": true,
      "inputs": [
        {
          "name": "_index",
          "type": "uint256"
        }
      ],
      "name": "tokenByIndex",
      "outputs": [
        {
          "name": "",
          "type": "uint256"
        }
      ],
      "payable": false,
      "stateMutability": "view",
      "type": "function"
    },
    {
      "constant": true,
      "inputs": [],
      "name": "paused",
      "outputs": [
        {
          "name": "",
          "type": "bool"
        }
      ],
      "payable": false,
      "stateMutability": "view",
      "type": "function"
    },
    {
      "constant": true,
      "inputs": [
        {
          "name": "_tokenId",
          "type": "uint256"
        }
      ],
      "name": "ownerOf",
      "outputs": [
        {
          "name": "",
          "type": "address"
        }
      ],
      "payable": false,
      "stateMutability": "view",
      "type": "function"
    },
    {
      "constant": true,
      "inputs": [
        {
          "name": "_owner",
          "type": "address"
        }
      ],
      "name": "balanceOf",
      "outputs": [
        {
          "name": "",
          "type": "uint256"
        }
      ],
      "payable": false,
      "stateMutability": "view",
      "type": "function"
    },
    {
      "constant": false,
      "inputs": [],
      "name": "pause",
      "outputs": [],
      "payable": false,
      "stateMutability": "nonpayable",
      "type": "function"
    },
    {
      "constant": true,
      "inputs": [],
      "name": "owner",
      "outputs": [
        {
          "name": "",
          "type": "address"
        }
      ],
      "payable": false,
      "stateMutability": "view",
      "type": "function"
    },
    {
      "constant": true,
      "inputs": [
        {
          "name": "",
          "type": "uint256"
        }
      ],
      "name": "cards",
      "outputs": [
        {
          "name": "mintTime",
          "type": "uint64"
        },
        {
          "name": "editionId",
          "type": "uint16"
        }
      ],
      "payable": false,
      "stateMutability": "view",
      "type": "function"
    },
    {
      "constant": true,
      "inputs": [],
      "name": "symbol",
      "outputs": [
        {
          "name": "",
          "type": "string"
        }
      ],
      "payable": false,
      "stateMutability": "view",
      "type": "function"
    },
    {
      "constant": false,
      "inputs": [
        {
          "name": "_to",
          "type": "address"
        },
        {
          "name": "_approved",
          "type": "bool"
        }
      ],
      "name": "setApprovalForAll",
      "outputs": [],
      "payable": false,
      "stateMutability": "nonpayable",
      "type": "function"
    },
    {
      "constant": false,
      "inputs": [
        {
          "name": "_from",
          "type": "address"
        },
        {
          "name": "_to",
          "type": "address"
        },
        {
          "name": "_tokenId",
          "type": "uint256"
        },
        {
          "name": "_data",
          "type": "bytes"
        }
      ],
      "name": "safeTransferFrom",
      "outputs": [],
      "payable": false,
      "stateMutability": "nonpayable",
      "type": "function"
    },
    {
      "constant": true,
      "inputs": [
        {
          "name": "contractName",
          "type": "string"
        },
        {
          "name": "migrationId",
          "type": "string"
        }
      ],
      "name": "isMigrated",
      "outputs": [
        {
          "name": "",
          "type": "bool"
        }
      ],
      "payable": false,
      "stateMutability": "view",
      "type": "function"
    },
    {
      "constant": true,
      "inputs": [
        {
          "name": "_owner",
          "type": "address"
        },
        {
          "name": "_operator",
          "type": "address"
        }
      ],
      "name": "isApprovedForAll",
      "outputs": [
        {
          "name": "",
          "type": "bool"
        }
      ],
      "payable": false,
      "stateMutability": "view",
      "type": "function"
    },
    {
      "constant": false,
      "inputs": [
        {
          "name": "newOwner",
          "type": "address"
        }
      ],
      "name": "transferOwnership",
      "outputs": [],
      "payable": false,
      "stateMutability": "nonpayable",
      "type": "function"
    },
    {
      "anonymous": false,
      "inputs": [
        {
          "indexed": false,
          "name": "_api_base_url",
          "type": "string"
        }
      ],
      "name": "ApiBaseUrlSet",
      "type": "event"
    },
    {
      "anonymous": false,
      "inputs": [
        {
          "indexed": false,
          "name": "_newEditionId",
          "type": "uint16"
        },
        {
          "indexed": false,
          "name": "_name",
          "type": "string"
        },
        {
          "indexed": false,
          "name": "_numCards",
          "type": "uint32"
        },
        {
          "indexed": false,
          "name": "_packPrice",
          "type": "uint256"
        }
      ],
      "name": "EditionMinted",
      "type": "event"
    },
    {
      "anonymous": false,
      "inputs": [
        {
          "indexed": false,
          "name": "_editionId",
          "type": "uint16"
        },
        {
          "indexed": true,
          "name": "_owner",
          "type": "address"
        }
      ],
      "name": "FivePackBought",
      "type": "event"
    },
    {
      "anonymous": false,
      "inputs": [
        {
          "indexed": false,
          "name": "_editionId",
          "type": "uint16"
        },
        {
          "indexed": true,
          "name": "_owner",
          "type": "address"
        }
      ],
      "name": "FivePackMinted",
      "type": "event"
    },
    {
      "anonymous": false,
      "inputs": [
        {
          "indexed": false,
          "name": "_editionId",
          "type": "uint16"
        },
        {
          "indexed": false,
          "name": "_cardId",
          "type": "uint256"
        },
        {
          "indexed": true,
          "name": "_owner",
          "type": "address"
        }
      ],
      "name": "CardMinted",
      "type": "event"
    },
    {
      "anonymous": false,
      "inputs": [],
      "name": "Pause",
      "type": "event"
    },
    {
      "anonymous": false,
      "inputs": [],
      "name": "Unpause",
      "type": "event"
    },
    {
      "anonymous": false,
      "inputs": [
        {
          "indexed": true,
          "name": "_from",
          "type": "address"
        },
        {
          "indexed": true,
          "name": "_to",
          "type": "address"
        },
        {
          "indexed": false,
          "name": "_tokenId",
          "type": "uint256"
        }
      ],
      "name": "Transfer",
      "type": "event"
    },
    {
      "anonymous": false,
      "inputs": [
        {
          "indexed": true,
          "name": "_owner",
          "type": "address"
        },
        {
          "indexed": true,
          "name": "_approved",
          "type": "address"
        },
        {
          "indexed": false,
          "name": "_tokenId",
          "type": "uint256"
        }
      ],
      "name": "Approval",
      "type": "event"
    },
    {
      "anonymous": false,
      "inputs": [
        {
          "indexed": true,
          "name": "_owner",
          "type": "address"
        },
        {
          "indexed": true,
          "name": "_operator",
          "type": "address"
        },
        {
          "indexed": false,
          "name": "_approved",
          "type": "bool"
        }
      ],
      "name": "ApprovalForAll",
      "type": "event"
    },
    {
      "anonymous": false,
      "inputs": [
        {
          "indexed": true,
          "name": "previousOwner",
          "type": "address"
        },
        {
          "indexed": true,
          "name": "newOwner",
          "type": "address"
        }
      ],
      "name": "OwnershipTransferred",
      "type": "event"
    },
    {
      "anonymous": false,
      "inputs": [
        {
          "indexed": false,
          "name": "contractName",
          "type": "string"
        },
        {
          "indexed": false,
          "name": "migrationId",
          "type": "string"
        }
      ],
      "name": "Migrated",
      "type": "event"
    },
    {
      "constant": false,
      "inputs": [],
      "name": "initialize",
      "outputs": [],
      "payable": false,
      "stateMutability": "nonpayable",
      "type": "function"
    },
    {
      "constant": false,
      "inputs": [
        {
          "name": "_sender",
          "type": "address"
        }
      ],
      "name": "initialize",
      "outputs": [],
      "payable": false,
      "stateMutability": "nonpayable",
      "type": "function"
    },
    {
      "constant": false,
      "inputs": [
        {
          "name": "_name",
          "type": "string"
        },
        {
          "name": "_symbol",
          "type": "string"
        }
      ],
      "name": "initialize",
      "outputs": [],
      "payable": false,
      "stateMutability": "nonpayable",
      "type": "function"
    },
    {
      "constant": false,
      "inputs": [
        {
          "name": "_sender",
          "type": "address"
        },
        {
          "name": "_name",
          "type": "string"
        },
        {
          "name": "_symbol",
          "type": "string"
        }
      ],
      "name": "initialize",
      "outputs": [],
      "payable": false,
      "stateMutability": "nonpayable",
      "type": "function"
    },
    {
      "constant": false,
      "inputs": [
        {
          "name": "_apiBaseUrl",
          "type": "string"
        }
      ],
      "name": "setApiBaseUrl",
      "outputs": [
        {
          "name": "",
          "type": "string"
        }
      ],
      "payable": false,
      "stateMutability": "nonpayable",
      "type": "function"
    },
    {
      "constant": false,
      "inputs": [
        {
          "name": "_name",
          "type": "string"
        },
        {
          "name": "_numCards",
          "type": "uint32"
        },
        {
          "name": "_packPrice",
          "type": "uint256"
        }
      ],
      "name": "mintEdition",
      "outputs": [
        {
          "name": "",
          "type": "uint16"
        }
      ],
      "payable": false,
      "stateMutability": "nonpayable",
      "type": "function"
    },
    {
      "constant": false,
      "inputs": [
        {
          "name": "_editionId",
          "type": "uint16"
        }
      ],
      "name": "buyFivePack",
      "outputs": [
        {
          "name": "",
          "type": "uint256[5]"
        }
      ],
      "payable": true,
      "stateMutability": "payable",
      "type": "function"
    },
    {
      "constant": false,
      "inputs": [
        {
          "name": "_editionId",
          "type": "uint16"
        },
        {
          "name": "_owner",
          "type": "address"
        }
      ],
      "name": "mintFivePack",
      "outputs": [
        {
          "name": "",
          "type": "uint256[5]"
        }
      ],
      "payable": false,
      "stateMutability": "nonpayable",
      "type": "function"
    },
    {
      "constant": true,
      "inputs": [
        {
          "name": "_tokenId",
          "type": "uint256"
        }
      ],
      "name": "tokenURI",
      "outputs": [
        {
          "name": "",
          "type": "string"
        }
      ],
      "payable": false,
      "stateMutability": "view",
      "type": "function"
    },
    {
      "constant": true,
      "inputs": [
        {
          "name": "_editionId",
          "type": "uint16"
        }
      ],
      "name": "checkEditionExists",
      "outputs": [
        {
          "name": "",
          "type": "bool"
        }
      ],
      "payable": false,
      "stateMutability": "view",
      "type": "function"
    },
    {
      "constant": true,
      "inputs": [
        {
          "name": "_editionId",
          "type": "uint16"
        }
      ],
      "name": "editionInfo",
      "outputs": [
        {
          "name": "",
          "type": "string"
        },
        {
          "name": "",
          "type": "uint32"
        },
        {
          "name": "",
          "type": "uint32"
        },
        {
          "name": "",
          "type": "uint256"
        }
      ],
      "payable": false,
      "stateMutability": "view",
      "type": "function"
    },
    {
      "constant": true,
      "inputs": [
        {
          "name": "_cardId",
          "type": "uint256"
        }
      ],
      "name": "checkCardExists",
      "outputs": [
        {
          "name": "",
          "type": "bool"
        }
      ],
      "payable": false,
      "stateMutability": "view",
      "type": "function"
    },
    {
      "constant": true,
      "inputs": [
        {
          "name": "_tokenId",
          "type": "uint256"
        }
      ],
      "name": "cardInfo",
      "outputs": [
        {
          "name": "",
          "type": "uint16"
        },
        {
          "name": "",
          "type": "uint32"
        },
        {
          "name": "",
          "type": "string"
        }
      ],
      "payable": false,
      "stateMutability": "view",
      "type": "function"
    }
  ],
  "bytecode": "0x60806040526000600d60006101000a81548160ff02191690831515021790555034801561002b57600080fd5b5061546f8061003b6000396000f3006080604052600436106101d8576000357c0100000000000000000000000000000000000000000000000000000000900463ffffffff16806306fdde03146101dd57806307b7a2571461026d578063081812fc146102fd578063095ea7b31461036a57806318160ddd146103b757806323b872dd146103e2578063279c806e1461044f5780632f745c591461052a5780633aee0d7d1461058b5780633f4ba83a146105d057806340c10f19146105e757806342842e0e146106345780634a2a7834146106a15780634cd88b76146106ea5780634f558e79146107995780634f6ccce7146107de5780634fba02401461081f57806356b1496c146108f65780635c975abb146109565780636352211e1461098557806370a08231146109f257806374db6e0714610a495780638129fc1c14610aba5780638456cb5914610ad1578063877f282b14610ae85780638da5cb5b14610b9c5780638dc1076814610bf35780639065714714610c5757806395d89b4114610d26578063a03166b114610db6578063a22cb46514610e43578063b88d4fde14610e92578063c0bac1a814610f45578063c4d66de81461100c578063c87b56dd1461104f578063e985e9c5146110f5578063f2fde38b14611170578063f77843dd146111b3575b600080fd5b3480156101e957600080fd5b506101f261127b565b6040518080602001828103825283818151815260200191508051906020019080838360005b83811015610232578082015181840152602081019050610217565b50505050905090810190601f16801561025f5780820380516001836020036101000a031916815260200191505b509250505060405180910390f35b34801561027957600080fd5b5061028261131d565b6040518080602001828103825283818151815260200191508051906020019080838360005b838110156102c25780820151818401526020810190506102a7565b50505050905090810190601f1680156102ef5780820380516001836020036101000a031916815260200191505b509250505060405180910390f35b34801561030957600080fd5b50610328600480360381019080803590602001909291905050506113bb565b604051808273ffffffffffffffffffffffffffffffffffffffff1673ffffffffffffffffffffffffffffffffffffffff16815260200191505060405180910390f35b34801561037657600080fd5b506103b5600480360381019080803573ffffffffffffffffffffffffffffffffffffffff169060200190929190803590602001909291905050506113f8565b005b3480156103c357600080fd5b506103cc6115be565b6040518082815260200191505060405180910390f35b3480156103ee57600080fd5b5061044d600480360381019080803573ffffffffffffffffffffffffffffffffffffffff169060200190929190803573ffffffffffffffffffffffffffffffffffffffff169060200190929190803590602001909291905050506115cb565b005b34801561045b57600080fd5b5061047a600480360381019080803590602001909291905050506116e2565b604051808567ffffffffffffffff1667ffffffffffffffff168152602001806020018463ffffffff1663ffffffff168152602001838152602001828103825285818151815260200191508051906020019080838360005b838110156104ec5780820151818401526020810190506104d1565b50505050905090810190601f1680156105195780820380516001836020036101000a031916815260200191505b509550505050505060405180910390f35b34801561053657600080fd5b50610575600480360381019080803573ffffffffffffffffffffffffffffffffffffffff169060200190929190803590602001909291905050506117dd565b6040518082815260200191505060405180910390f35b34801561059757600080fd5b506105b660048036038101908080359060200190929190505050611854565b604051808215151515815260200191505060405180910390f35b3480156105dc57600080fd5b506105e5611882565b005b3480156105f357600080fd5b50610632600480360381019080803573ffffffffffffffffffffffffffffffffffffffff16906020019092919080359060200190929190505050611942565b005b34801561064057600080fd5b5061069f600480360381019080803573ffffffffffffffffffffffffffffffffffffffff169060200190929190803573ffffffffffffffffffffffffffffffffffffffff169060200190929190803590602001909291905050506119ac565b005b3480156106ad57600080fd5b506106d0600480360381019080803561ffff1690602001909291905050506119e4565b604051808215151515815260200191505060405180910390f35b3480156106f657600080fd5b50610797600480360381019080803590602001908201803590602001908080601f0160208091040260200160405190810160405280939291908181526020018383808284378201915050505050509192919290803590602001908201803590602001908080601f0160208091040260200160405190810160405280939291908181526020018383808284378201915050505050509192919290505050611a1a565b005b3480156107a557600080fd5b506107c460048036038101908080359060200190929190505050611e1b565b604051808215151515815260200191505060405180910390f35b3480156107ea57600080fd5b5061080960048036038101908080359060200190929190505050611e8d565b6040518082815260200191505060405180910390f35b34801561082b57600080fd5b5061084e600480360381019080803561ffff169060200190929190505050611ec5565b60405180806020018563ffffffff1663ffffffff1681526020018463ffffffff1663ffffffff168152602001838152602001828103825286818151815260200191508051906020019080838360005b838110156108b857808201518184015260208101905061089d565b50505050905090810190601f1680156108e55780820380516001836020036101000a031916815260200191505b509550505050505060405180910390f35b610918600480360381019080803561ffff169060200190929190505050612069565b6040518082600560200280838360005b83811015610943578082015181840152602081019050610928565b5050505090500191505060405180910390f35b34801561096257600080fd5b5061096b61223b565b604051808215151515815260200191505060405180910390f35b34801561099157600080fd5b506109b06004803603810190808035906020019092919050505061224e565b604051808273ffffffffffffffffffffffffffffffffffffffff1673ffffffffffffffffffffffffffffffffffffffff16815260200191505060405180910390f35b3480156109fe57600080fd5b50610a33600480360381019080803573ffffffffffffffffffffffffffffffffffffffff1690602001909291905050506122cc565b6040518082815260200191505060405180910390f35b348015610a5557600080fd5b50610a9c600480360381019080803590602001908201803590602001919091929391929390803563ffffffff16906020019092919080359060200190929190505050612350565b604051808261ffff1661ffff16815260200191505060405180910390f35b348015610ac657600080fd5b50610acf6123f5565b005b348015610add57600080fd5b50610ae66127c6565b005b348015610af457600080fd5b50610b21600480360381019080803590602001908201803590602001919091929391929390505050612887565b6040518080602001828103825283818151815260200191508051906020019080838360005b83811015610b61578082015181840152602081019050610b46565b50505050905090810190601f168015610b8e5780820380516001836020036101000a031916815260200191505b509250505060405180910390f35b348015610ba857600080fd5b50610bb161299a565b604051808273ffffffffffffffffffffffffffffffffffffffff1673ffffffffffffffffffffffffffffffffffffffff16815260200191505060405180910390f35b348015610bff57600080fd5b50610c1e600480360381019080803590602001909291905050506129c0565b604051808367ffffffffffffffff1667ffffffffffffffff1681526020018261ffff1661ffff1681526020019250505060405180910390f35b348015610c6357600080fd5b50610d24600480360381019080803573ffffffffffffffffffffffffffffffffffffffff169060200190929190803590602001908201803590602001908080601f0160208091040260200160405190810160405280939291908181526020018383808284378201915050505050509192919290803590602001908201803590602001908080601f0160208091040260200160405190810160405280939291908181526020018383808284378201915050505050509192919290505050612a11565b005b348015610d3257600080fd5b50610d3b612e6b565b6040518080602001828103825283818151815260200191508051906020019080838360005b83811015610d7b578082015181840152602081019050610d60565b50505050905090810190601f168015610da85780820380516001836020036101000a031916815260200191505b509250505060405180910390f35b348015610dc257600080fd5b50610e05600480360381019080803561ffff169060200190929190803573ffffffffffffffffffffffffffffffffffffffff169060200190929190505050612f0d565b6040518082600560200280838360005b83811015610e30578082015181840152602081019050610e15565b5050505090500191505060405180910390f35b348015610e4f57600080fd5b50610e90600480360381019080803573ffffffffffffffffffffffffffffffffffffffff169060200190929190803515159060200190929190505050612f83565b005b348015610e9e57600080fd5b50610f43600480360381019080803573ffffffffffffffffffffffffffffffffffffffff169060200190929190803573ffffffffffffffffffffffffffffffffffffffff16906020019092919080359060200190929190803590602001908201803590602001908080601f01602080910402602001604051908101604052809392919081815260200183838082843782019150505050505091929192905050506130bf565b005b348015610f5157600080fd5b50610ff2600480360381019080803590602001908201803590602001908080601f0160208091040260200160405190810160405280939291908181526020018383808284378201915050505050509192919290803590602001908201803590602001908080601f01602080910402602001604051908101604052809392919081815260200183838082843782019150505050505091929192905050506130fe565b604051808215151515815260200191505060405180910390f35b34801561101857600080fd5b5061104d600480360381019080803573ffffffffffffffffffffffffffffffffffffffff1690602001909291905050506131e9565b005b34801561105b57600080fd5b5061107a600480360381019080803590602001909291905050506135c4565b6040518080602001828103825283818151815260200191508051906020019080838360005b838110156110ba57808201518184015260208101905061109f565b50505050905090810190601f1680156110e75780820380516001836020036101000a031916815260200191505b509250505060405180910390f35b34801561110157600080fd5b50611156600480360381019080803573ffffffffffffffffffffffffffffffffffffffff169060200190929190803573ffffffffffffffffffffffffffffffffffffffff169060200190929190505050613692565b604051808215151515815260200191505060405180910390f35b34801561117c57600080fd5b506111b1600480360381019080803573ffffffffffffffffffffffffffffffffffffffff169060200190929190505050613726565b005b3480156111bf57600080fd5b506111de6004803603810190808035906020019092919050505061387e565b604051808461ffff1661ffff1681526020018363ffffffff1663ffffffff16815260200180602001828103825283818151815260200191508051906020019080838360005b8381101561123e578082015181840152602081019050611223565b50505050905090810190601f16801561126b5780820380516001836020036101000a031916815260200191505b5094505050505060405180910390f35b606060068054600181600116156101000203166002900480601f0160208091040260200160405190810160405280929190818152602001828054600181600116156101000203166002900480156113135780601f106112e857610100808354040283529160200191611313565b820191906000526020600020905b8154815290600101906020018083116112f657829003601f168201915b5050505050905090565b600e8054600181600116156101000203166002900480601f0160208091040260200160405190810160405280929190818152602001828054600181600116156101000203166002900480156113b35780601f10611388576101008083540402835291602001916113b3565b820191906000526020600020905b81548152906001019060200180831161139657829003601f168201915b505050505081565b60006003600083815260200190815260200160002060009054906101000a900473ffffffffffffffffffffffffffffffffffffffff169050919050565b60006114038261224e565b90508073ffffffffffffffffffffffffffffffffffffffff168373ffffffffffffffffffffffffffffffffffffffff161415151561144057600080fd5b8073ffffffffffffffffffffffffffffffffffffffff163373ffffffffffffffffffffffffffffffffffffffff161480611480575061147f8133613692565b5b151561148b57600080fd5b600073ffffffffffffffffffffffffffffffffffffffff166114ac836113bb565b73ffffffffffffffffffffffffffffffffffffffff161415806114fc5750600073ffffffffffffffffffffffffffffffffffffffff168373ffffffffffffffffffffffffffffffffffffffff1614155b156115b957826003600084815260200190815260200160002060006101000a81548173ffffffffffffffffffffffffffffffffffffffff021916908373ffffffffffffffffffffffffffffffffffffffff1602179055508273ffffffffffffffffffffffffffffffffffffffff168173ffffffffffffffffffffffffffffffffffffffff167f8c5be1e5ebec7d5bd14f71427d1e84f3dd0314c0f7b2291e5b200ac8c7c3b925846040518082815260200191505060405180910390a35b505050565b6000600a80549050905090565b806115d63382613963565b15156115e157600080fd5b600073ffffffffffffffffffffffffffffffffffffffff168473ffffffffffffffffffffffffffffffffffffffff161415151561161d57600080fd5b600073ffffffffffffffffffffffffffffffffffffffff168373ffffffffffffffffffffffffffffffffffffffff161415151561165957600080fd5b61166384836139f8565b61166d8483613b61565b6116778383613d79565b8273ffffffffffffffffffffffffffffffffffffffff168473ffffffffffffffffffffffffffffffffffffffff167fddf252ad1be2c89b69c2b068fc378daa952ba7f163c4a11628f55a4df523b3ef846040518082815260200191505060405180910390a350505050565b600f818154811015156116f157fe5b90600052602060002090600402016000915090508060000160009054906101000a900467ffffffffffffffff1690806001018054600181600116156101000203166002900480601f0160208091040260200160405190810160405280929190818152602001828054600181600116156101000203166002900480156117b75780601f1061178c576101008083540402835291602001916117b7565b820191906000526020600020905b81548152906001019060200180831161179a57829003601f168201915b5050505050908060020160009054906101000a900463ffffffff16908060030154905084565b60006117e8836122cc565b821015156117f557600080fd5b600860008473ffffffffffffffffffffffffffffffffffffffff1673ffffffffffffffffffffffffffffffffffffffff1681526020019081526020016000208281548110151561184157fe5b9060005260206000200154905092915050565b600080821015801561186a575060108054905082105b15611878576001905061187d565b600090505b919050565b600160009054906101000a900473ffffffffffffffffffffffffffffffffffffffff1673ffffffffffffffffffffffffffffffffffffffff163373ffffffffffffffffffffffffffffffffffffffff161415156118de57600080fd5b600d60009054906101000a900460ff1615156118f957600080fd5b6000600d60006101000a81548160ff0219169083151502179055507f7805862f689e2f13df9f062ff482ad3ad112aca9e0847911ed832e158c525b3360405160405180910390a1565b600160009054906101000a900473ffffffffffffffffffffffffffffffffffffffff1673ffffffffffffffffffffffffffffffffffffffff163373ffffffffffffffffffffffffffffffffffffffff1614151561199e57600080fd5b6119a88282613e50565b5050565b806119b73382613963565b15156119c257600080fd5b6119de84848460206040519081016040528060008152506130bf565b50505050565b6000808261ffff1610158015611a025750600f805490508261ffff16105b15611a105760019050611a15565b600090505b919050565b6040805190810160405280600b81526020017f455243373231546f6b656e0000000000000000000000000000000000000000008152506040805190810160405280600581526020017f312e392e30000000000000000000000000000000000000000000000000000000815250611ac5826040805190810160405280600b81526020017f696e697469616c697a6564000000000000000000000000000000000000000000815250613ea7565b611acf8282613ea7565b8360069080519060200190611ae59291906151ee565b508260079080519060200190611afc9291906151ee565b507fdd117a11c22118c9dee4b5a67ce578bc44529dce21ee0ccc439588fbb9fb4ea38282604051808060200180602001838103835285818151815260200191508051906020019080838360005b83811015611b64578082015181840152602081019050611b49565b50505050905090810190601f168015611b915780820380516001836020036101000a031916815260200191505b50838103825284818151815260200191508051906020019080838360005b83811015611bca578082015181840152602081019050611baf565b50505050905090810190601f168015611bf75780820380516001836020036101000a031916815260200191505b5094505050505060405180910390a160016000836040518082805190602001908083835b602083101515611c405780518252602082019150602081019050602083039250611c1b565b6001836020036101000a0380198251168184511680821785525050505050509050019150509081526020016040518091039020826040518082805190602001908083835b602083101515611ca95780518252602082019150602081019050602083039250611c84565b6001836020036101000a038019825116818451168082178552505050505050905001915050908152602001604051809103902060006101000a81548160ff02191690831515021790555060016000836040518082805190602001908083835b602083101515611d2d5780518252602082019150602081019050602083039250611d08565b6001836020036101000a03801982511681845116808217855250505050505090500191505090815260200160405180910390206040805190810160405280600b81526020017f696e697469616c697a65640000000000000000000000000000000000000000008152506040518082805190602001908083835b602083101515611dcb5780518252602082019150602081019050602083039250611da6565b6001836020036101000a038019825116818451168082178552505050505050905001915050908152602001604051809103902060006101000a81548160ff02191690831515021790555050505050565b6000806002600084815260200190815260200160002060009054906101000a900473ffffffffffffffffffffffffffffffffffffffff169050600073ffffffffffffffffffffffffffffffffffffffff168173ffffffffffffffffffffffffffffffffffffffff161415915050919050565b6000611e976115be565b82101515611ea457600080fd5b600a82815481101515611eb357fe5b90600052602060002001549050919050565b60606000806000611ed461526e565b611edd866119e4565b1515611ee857600080fd5b600f8661ffff16815481101515611efb57fe5b9060005260206000209060040201608060405190810160405290816000820160009054906101000a900467ffffffffffffffff1667ffffffffffffffff1667ffffffffffffffff168152602001600182018054600181600116156101000203166002900480601f016020809104026020016040519081016040528092919081815260200182805460018160011615610100020316600290048015611fe05780601f10611fb557610100808354040283529160200191611fe0565b820191906000526020600020905b815481529060010190602001808311611fc357829003601f168201915b505050505081526020016002820160009054906101000a900463ffffffff1663ffffffff1663ffffffff168152602001600382015481525050905080602001518160400151601160008961ffff1661ffff16815260200190815260200160002060009054906101000a900463ffffffff1683606001518393509450945094509450509193509193565b6120716152a7565b61207961526e565b612082836119e4565b151561208d57600080fd5b600f8361ffff168154811015156120a057fe5b9060005260206000209060040201608060405190810160405290816000820160009054906101000a900467ffffffffffffffff1667ffffffffffffffff1667ffffffffffffffff168152602001600182018054600181600116156101000203166002900480601f0160208091040260200160405190810160405280929190818152602001828054600181600116156101000203166002900480156121855780601f1061215a57610100808354040283529160200191612185565b820191906000526020600020905b81548152906001019060200180831161216857829003601f168201915b505050505081526020016002820160009054906101000a900463ffffffff1663ffffffff1663ffffffff1681526020016003820154815250509050806060015134101515156121d357600080fd5b3373ffffffffffffffffffffffffffffffffffffffff167f2abcede2692eb370bd612dc4403a3cb3ba1481a5cb132fb7c19ada5ff90ed6cc84604051808261ffff1661ffff16815260200191505060405180910390a26122338333613f50565b915050919050565b600d60009054906101000a900460ff1681565b6000806002600084815260200190815260200160002060009054906101000a900473ffffffffffffffffffffffffffffffffffffffff169050600073ffffffffffffffffffffffffffffffffffffffff168173ffffffffffffffffffffffffffffffffffffffff16141515156122c357600080fd5b80915050919050565b60008073ffffffffffffffffffffffffffffffffffffffff168273ffffffffffffffffffffffffffffffffffffffff161415151561230957600080fd5b600460008373ffffffffffffffffffffffffffffffffffffffff1673ffffffffffffffffffffffffffffffffffffffff168152602001908152602001600020549050919050565b6000600160009054906101000a900473ffffffffffffffffffffffffffffffffffffffff1673ffffffffffffffffffffffffffffffffffffffff163373ffffffffffffffffffffffffffffffffffffffff161415156123ae57600080fd5b6123eb85858080601f0160208091040260200160405190810160405280939291908181526020018383808284378201915050505050508484614257565b9050949350505050565b6040805190810160405280600a81526020017f4d696772617461626c65000000000000000000000000000000000000000000008152506040805190810160405280600581526020017f312e322e310000000000000000000000000000000000000000000000000000008152506124a0826040805190810160405280600b81526020017f696e697469616c697a6564000000000000000000000000000000000000000000815250613ea7565b6124aa8282613ea7565b7fdd117a11c22118c9dee4b5a67ce578bc44529dce21ee0ccc439588fbb9fb4ea38282604051808060200180602001838103835285818151815260200191508051906020019080838360005b838110156125115780820151818401526020810190506124f6565b50505050905090810190601f16801561253e5780820380516001836020036101000a031916815260200191505b50838103825284818151815260200191508051906020019080838360005b8381101561257757808201518184015260208101905061255c565b50505050905090810190601f1680156125a45780820380516001836020036101000a031916815260200191505b5094505050505060405180910390a160016000836040518082805190602001908083835b6020831015156125ed57805182526020820191506020810190506020830392506125c8565b6001836020036101000a0380198251168184511680821785525050505050509050019150509081526020016040518091039020826040518082805190602001908083835b6020831015156126565780518252602082019150602081019050602083039250612631565b6001836020036101000a038019825116818451168082178552505050505050905001915050908152602001604051809103902060006101000a81548160ff02191690831515021790555060016000836040518082805190602001908083835b6020831015156126da57805182526020820191506020810190506020830392506126b5565b6001836020036101000a03801982511681845116808217855250505050505090500191505090815260200160405180910390206040805190810160405280600b81526020017f696e697469616c697a65640000000000000000000000000000000000000000008152506040518082805190602001908083835b6020831015156127785780518252602082019150602081019050602083039250612753565b6001836020036101000a038019825116818451168082178552505050505050905001915050908152602001604051809103902060006101000a81548160ff0219169083151502179055505050565b600160009054906101000a900473ffffffffffffffffffffffffffffffffffffffff1673ffffffffffffffffffffffffffffffffffffffff163373ffffffffffffffffffffffffffffffffffffffff1614151561282257600080fd5b600d60009054906101000a900460ff1615151561283e57600080fd5b6001600d60006101000a81548160ff0219169083151502179055507f6985a02210a168e66602d3235cb6db0e70f92b3ba4d376a33c0f3d9434bff62560405160405180910390a1565b6060600160009054906101000a900473ffffffffffffffffffffffffffffffffffffffff1673ffffffffffffffffffffffffffffffffffffffff163373ffffffffffffffffffffffffffffffffffffffff161415156128e557600080fd5b8282600e91906128f69291906152ca565b50600e8054600181600116156101000203166002900480601f01602080910402602001604051908101604052809291908181526020018280546001816001161561010002031660029004801561298d5780601f106129625761010080835404028352916020019161298d565b820191906000526020600020905b81548152906001019060200180831161297057829003601f168201915b5050505050905092915050565b600160009054906101000a900473ffffffffffffffffffffffffffffffffffffffff1681565b6010818154811015156129cf57fe5b906000526020600020016000915090508060000160009054906101000a900467ffffffffffffffff16908060000160089054906101000a900461ffff16905082565b6040805190810160405280600481526020017f43626263000000000000000000000000000000000000000000000000000000008152506040805190810160405280600581526020017f302e312e30000000000000000000000000000000000000000000000000000000815250612abc826040805190810160405280600b81526020017f696e697469616c697a6564000000000000000000000000000000000000000000815250613ea7565b612ac68282613ea7565b606060405190810160405280602a81526020017f687474702f2f7777772e63727970746f2d6261736562616c6c2d63617264732e81526020017f636f6d2f63617264732f00000000000000000000000000000000000000000000815250600e9080519060200190612b389291906151ee565b50612b428561441d565b612b4c8484611a1a565b7fdd117a11c22118c9dee4b5a67ce578bc44529dce21ee0ccc439588fbb9fb4ea38282604051808060200180602001838103835285818151815260200191508051906020019080838360005b83811015612bb3578082015181840152602081019050612b98565b50505050905090810190601f168015612be05780820380516001836020036101000a031916815260200191505b50838103825284818151815260200191508051906020019080838360005b83811015612c19578082015181840152602081019050612bfe565b50505050905090810190601f168015612c465780820380516001836020036101000a031916815260200191505b5094505050505060405180910390a160016000836040518082805190602001908083835b602083101515612c8f5780518252602082019150602081019050602083039250612c6a565b6001836020036101000a0380198251168184511680821785525050505050509050019150509081526020016040518091039020826040518082805190602001908083835b602083101515612cf85780518252602082019150602081019050602083039250612cd3565b6001836020036101000a038019825116818451168082178552505050505050905001915050908152602001604051809103902060006101000a81548160ff02191690831515021790555060016000836040518082805190602001908083835b602083101515612d7c5780518252602082019150602081019050602083039250612d57565b6001836020036101000a03801982511681845116808217855250505050505090500191505090815260200160405180910390206040805190810160405280600b81526020017f696e697469616c697a65640000000000000000000000000000000000000000008152506040518082805190602001908083835b602083101515612e1a5780518252602082019150602081019050602083039250612df5565b6001836020036101000a038019825116818451168082178552505050505050905001915050908152602001604051809103902060006101000a81548160ff0219169083151502179055505050505050565b606060078054600181600116156101000203166002900480601f016020809104026020016040519081016040528092919081815260200182805460018160011615610100020316600290048015612f035780601f10612ed857610100808354040283529160200191612f03565b820191906000526020600020905b815481529060010190602001808311612ee657829003601f168201915b5050505050905090565b612f156152a7565b600160009054906101000a900473ffffffffffffffffffffffffffffffffffffffff1673ffffffffffffffffffffffffffffffffffffffff163373ffffffffffffffffffffffffffffffffffffffff16141515612f7157600080fd5b612f7b8383613f50565b905092915050565b3373ffffffffffffffffffffffffffffffffffffffff168273ffffffffffffffffffffffffffffffffffffffff1614151515612fbe57600080fd5b80600560003373ffffffffffffffffffffffffffffffffffffffff1673ffffffffffffffffffffffffffffffffffffffff16815260200190815260200160002060008473ffffffffffffffffffffffffffffffffffffffff1673ffffffffffffffffffffffffffffffffffffffff16815260200190815260200160002060006101000a81548160ff0219169083151502179055508173ffffffffffffffffffffffffffffffffffffffff163373ffffffffffffffffffffffffffffffffffffffff167f17307eab39ab6107e8899845ad3d59bd9653f200f220920489ca2b5937696c3183604051808215151515815260200191505060405180910390a35050565b816130ca3382613963565b15156130d557600080fd5b6130e08585856115cb565b6130ec85858585614830565b15156130f757600080fd5b5050505050565b600080836040518082805190602001908083835b6020831015156131375780518252602082019150602081019050602083039250613112565b6001836020036101000a0380198251168184511680821785525050505050509050019150509081526020016040518091039020826040518082805190602001908083835b6020831015156131a0578051825260208201915060208101905060208303925061317b565b6001836020036101000a038019825116818451168082178552505050505050905001915050908152602001604051809103902060009054906101000a900460ff16905092915050565b6040805190810160405280600881526020017f5061757361626c650000000000000000000000000000000000000000000000008152506040805190810160405280600581526020017f312e392e30000000000000000000000000000000000000000000000000000000815250613294826040805190810160405280600b81526020017f696e697469616c697a6564000000000000000000000000000000000000000000815250613ea7565b61329e8282613ea7565b6132a78361441d565b7fdd117a11c22118c9dee4b5a67ce578bc44529dce21ee0ccc439588fbb9fb4ea38282604051808060200180602001838103835285818151815260200191508051906020019080838360005b8381101561330e5780820151818401526020810190506132f3565b50505050905090810190601f16801561333b5780820380516001836020036101000a031916815260200191505b50838103825284818151815260200191508051906020019080838360005b83811015613374578082015181840152602081019050613359565b50505050905090810190601f1680156133a15780820380516001836020036101000a031916815260200191505b5094505050505060405180910390a160016000836040518082805190602001908083835b6020831015156133ea57805182526020820191506020810190506020830392506133c5565b6001836020036101000a0380198251168184511680821785525050505050509050019150509081526020016040518091039020826040518082805190602001908083835b602083101515613453578051825260208201915060208101905060208303925061342e565b6001836020036101000a038019825116818451168082178552505050505050905001915050908152602001604051809103902060006101000a81548160ff02191690831515021790555060016000836040518082805190602001908083835b6020831015156134d757805182526020820191506020810190506020830392506134b2565b6001836020036101000a03801982511681845116808217855250505050505090500191505090815260200160405180910390206040805190810160405280600b81526020017f696e697469616c697a65640000000000000000000000000000000000000000008152506040518082805190602001908083835b6020831015156135755780518252602082019150602081019050602083039250613550565b6001836020036101000a038019825116818451168082178552505050505050905001915050908152602001604051809103902060006101000a81548160ff021916908315150217905550505050565b6060806135d083611854565b15156135db57600080fd5b6135e483614a1e565b905061368a600e8054600181600116156101000203166002900480601f01602080910402602001604051908101604052809291908181526020018280546001816001161561010002031660029004801561367f5780601f106136545761010080835404028352916020019161367f565b820191906000526020600020905b81548152906001019060200180831161366257829003601f168201915b505050505082614b75565b915050919050565b6000600560008473ffffffffffffffffffffffffffffffffffffffff1673ffffffffffffffffffffffffffffffffffffffff16815260200190815260200160002060008373ffffffffffffffffffffffffffffffffffffffff1673ffffffffffffffffffffffffffffffffffffffff16815260200190815260200160002060009054906101000a900460ff16905092915050565b600160009054906101000a900473ffffffffffffffffffffffffffffffffffffffff1673ffffffffffffffffffffffffffffffffffffffff163373ffffffffffffffffffffffffffffffffffffffff1614151561378257600080fd5b600073ffffffffffffffffffffffffffffffffffffffff168173ffffffffffffffffffffffffffffffffffffffff16141515156137be57600080fd5b8073ffffffffffffffffffffffffffffffffffffffff16600160009054906101000a900473ffffffffffffffffffffffffffffffffffffffff1673ffffffffffffffffffffffffffffffffffffffff167f8be0079c531659141344cd1fd0a4f28419497f9722a3daafe3b4186f6b6457e060405160405180910390a380600160006101000a81548173ffffffffffffffffffffffffffffffffffffffff021916908373ffffffffffffffffffffffffffffffffffffffff16021790555050565b600080606061388b61534a565b61389485611854565b151561389f57600080fd5b6010858154811015156138ae57fe5b906000526020600020016040805190810160405290816000820160009054906101000a900467ffffffffffffffff1667ffffffffffffffff1667ffffffffffffffff1681526020016000820160089054906101000a900461ffff1661ffff1661ffff16815250509050806020015160116000836020015161ffff1661ffff16815260200190815260200160002060009054906101000a900463ffffffff16613955876135c4565b935093509350509193909250565b60008061396f8361224e565b90508073ffffffffffffffffffffffffffffffffffffffff168473ffffffffffffffffffffffffffffffffffffffff1614806139de57508373ffffffffffffffffffffffffffffffffffffffff166139c6846113bb565b73ffffffffffffffffffffffffffffffffffffffff16145b806139ef57506139ee8185613692565b5b91505092915050565b8173ffffffffffffffffffffffffffffffffffffffff16613a188261224e565b73ffffffffffffffffffffffffffffffffffffffff16141515613a3a57600080fd5b600073ffffffffffffffffffffffffffffffffffffffff166003600083815260200190815260200160002060009054906101000a900473ffffffffffffffffffffffffffffffffffffffff1673ffffffffffffffffffffffffffffffffffffffff16141515613b5d5760006003600083815260200190815260200160002060006101000a81548173ffffffffffffffffffffffffffffffffffffffff021916908373ffffffffffffffffffffffffffffffffffffffff160217905550600073ffffffffffffffffffffffffffffffffffffffff168273ffffffffffffffffffffffffffffffffffffffff167f8c5be1e5ebec7d5bd14f71427d1e84f3dd0314c0f7b2291e5b200ac8c7c3b925836040518082815260200191505060405180910390a35b5050565b6000806000613b708585614d46565b60096000858152602001908152602001600020549250613bdc6001600860008873ffffffffffffffffffffffffffffffffffffffff1673ffffffffffffffffffffffffffffffffffffffff16815260200190815260200160002080549050614e7590919063ffffffff16565b9150600860008673ffffffffffffffffffffffffffffffffffffffff1673ffffffffffffffffffffffffffffffffffffffff16815260200190815260200160002082815481101515613c2a57fe5b9060005260206000200154905080600860008773ffffffffffffffffffffffffffffffffffffffff1673ffffffffffffffffffffffffffffffffffffffff16815260200190815260200160002084815481101515613c8457fe5b90600052602060002001819055506000600860008773ffffffffffffffffffffffffffffffffffffffff1673ffffffffffffffffffffffffffffffffffffffff16815260200190815260200160002083815481101515613ce057fe5b9060005260206000200181905550600860008673ffffffffffffffffffffffffffffffffffffffff1673ffffffffffffffffffffffffffffffffffffffff168152602001908152602001600020805480919060019003613d409190615372565b50600060096000868152602001908152602001600020819055508260096000838152602001908152602001600020819055505050505050565b6000613d858383614e8e565b600860008473ffffffffffffffffffffffffffffffffffffffff1673ffffffffffffffffffffffffffffffffffffffff168152602001908152602001600020805490509050600860008473ffffffffffffffffffffffffffffffffffffffff1673ffffffffffffffffffffffffffffffffffffffff168152602001908152602001600020829080600181540180825580915050906001820390600052602060002001600090919290919091505550806009600084815260200190815260200160002081905550505050565b613e5a8282614fe8565b600a80549050600b600083815260200190815260200160002081905550600a8190806001815401808255809150509060018203906000526020600020016000909192909190915055505050565b613eb182826130fe565b151515613f4c576040517f08c379a00000000000000000000000000000000000000000000000000000000081526004018080602001828103825260328152602001807f52657175657374656420746172676574206d6967726174696f6e20494420686181526020017f7320616c7265616479206265656e2072756e000000000000000000000000000081525060400191505060405180910390fd5b5050565b613f586152a7565b613f6061526e565b613f686152a7565b613f71856119e4565b1515613f7c57600080fd5b600f8561ffff16815481101515613f8f57fe5b9060005260206000209060040201608060405190810160405290816000820160009054906101000a900467ffffffffffffffff1667ffffffffffffffff1667ffffffffffffffff168152602001600182018054600181600116156101000203166002900480601f0160208091040260200160405190810160405280929190818152602001828054600181600116156101000203166002900480156140745780601f1061404957610100808354040283529160200191614074565b820191906000526020600020905b81548152906001019060200180831161405757829003601f168201915b505050505081526020016002820160009054906101000a900463ffffffff1663ffffffff1663ffffffff16815260200160038201548152505091506005601160008761ffff1661ffff16815260200190815260200160002060009054906101000a900463ffffffff160163ffffffff16826040015163ffffffff16101515156140fc57600080fd5b6005601160008761ffff1661ffff16815260200190815260200160002060008282829054906101000a900463ffffffff160192506101000a81548163ffffffff021916908363ffffffff1602179055508373ffffffffffffffffffffffffffffffffffffffff167fed6fac1d8fd17dc518d26d84a2df2db1b63719c50ab63f06416fbfffb0443be286604051808261ffff1661ffff16815260200191505060405180910390a26141ac8585615098565b8160006005811015156141bb57fe5b6020020181815250506141ce8585615098565b8160016005811015156141dd57fe5b6020020181815250506141f08585615098565b8160026005811015156141ff57fe5b6020020181815250506142128585615098565b81600360058110151561422157fe5b6020020181815250506142348585615098565b81600460058110151561424357fe5b602002018181525050809250505092915050565b600061426161526e565b60006080604051908101604052804267ffffffffffffffff1681526020018781526020018663ffffffff1681526020018581525091506001600f839080600181540180825580915050906001820390600052602060002090600402016000909192909190915060008201518160000160006101000a81548167ffffffffffffffff021916908367ffffffffffffffff160217905550602082015181600101908051906020019061431292919061539e565b5060408201518160020160006101000a81548163ffffffff021916908363ffffffff1602179055506060820151816003015550500390507f0f99dd2e965f0b39180d0408c78598b51d6b5bf008b6dbc919ee1f653a0c038b81878787604051808561ffff1661ffff168152602001806020018463ffffffff1663ffffffff168152602001838152602001828103825285818151815260200191508051906020019080838360005b838110156143d45780820151818401526020810190506143b9565b50505050905090810190601f1680156144015780820380516001836020036101000a031916815260200191505b509550505050505060405180910390a180925050509392505050565b6040805190810160405280600781526020017f4f776e61626c65000000000000000000000000000000000000000000000000008152506040805190810160405280600581526020017f312e392e300000000000000000000000000000000000000000000000000000008152506144c8826040805190810160405280600b81526020017f696e697469616c697a6564000000000000000000000000000000000000000000815250613ea7565b6144d28282613ea7565b82600160006101000a81548173ffffffffffffffffffffffffffffffffffffffff021916908373ffffffffffffffffffffffffffffffffffffffff1602179055507fdd117a11c22118c9dee4b5a67ce578bc44529dce21ee0ccc439588fbb9fb4ea38282604051808060200180602001838103835285818151815260200191508051906020019080838360005b8381101561457a57808201518184015260208101905061455f565b50505050905090810190601f1680156145a75780820380516001836020036101000a031916815260200191505b50838103825284818151815260200191508051906020019080838360005b838110156145e05780820151818401526020810190506145c5565b50505050905090810190601f16801561460d5780820380516001836020036101000a031916815260200191505b5094505050505060405180910390a160016000836040518082805190602001908083835b6020831015156146565780518252602082019150602081019050602083039250614631565b6001836020036101000a0380198251168184511680821785525050505050509050019150509081526020016040518091039020826040518082805190602001908083835b6020831015156146bf578051825260208201915060208101905060208303925061469a565b6001836020036101000a038019825116818451168082178552505050505050905001915050908152602001604051809103902060006101000a81548160ff02191690831515021790555060016000836040518082805190602001908083835b602083101515614743578051825260208201915060208101905060208303925061471e565b6001836020036101000a03801982511681845116808217855250505050505090500191505090815260200160405180910390206040805190810160405280600b81526020017f696e697469616c697a65640000000000000000000000000000000000000000008152506040518082805190602001908083835b6020831015156147e157805182526020820191506020810190506020830392506147bc565b6001836020036101000a038019825116818451168082178552505050505050905001915050908152602001604051809103902060006101000a81548160ff021916908315150217905550505050565b6000806148528573ffffffffffffffffffffffffffffffffffffffff166151bf565b15156148615760019150614a15565b8473ffffffffffffffffffffffffffffffffffffffff1663f0b9e5ba8786866040518463ffffffff167c0100000000000000000000000000000000000000000000000000000000028152600401808473ffffffffffffffffffffffffffffffffffffffff1673ffffffffffffffffffffffffffffffffffffffff16815260200183815260200180602001828103825283818151815260200191508051906020019080838360005b83811015614923578082015181840152602081019050614908565b50505050905090810190601f1680156149505780820380516001836020036101000a031916815260200191505b50945050505050602060405180830381600087803b15801561497157600080fd5b505af1158015614985573d6000803e3d6000fd5b505050506040513d602081101561499b57600080fd5b8101908080519060200190929190505050905063f0b9e5ba7c0100000000000000000000000000000000000000000000000000000000027bffffffffffffffffffffffffffffffffffffffffffffffffffffffff1916817bffffffffffffffffffffffffffffffffffffffffffffffffffffffff19161491505b50949350505050565b60606000806060600080861415614a6c576040805190810160405280600181526020017f30000000000000000000000000000000000000000000000000000000000000008152509450614b6c565b8593505b600084141515614a96578280600101935050600a84811515614a8e57fe5b049350614a70565b826040519080825280601f01601f191660200182016040528015614ac95781602001602082028038833980820191505090505b5091506001830390505b600086141515614b6857600a86811515614ae957fe5b066030017f010000000000000000000000000000000000000000000000000000000000000002828280600190039350815181101515614b2457fe5b9060200101907effffffffffffffffffffffffffffffffffffffffffffffffffffffffffffff1916908160001a905350600a86811515614b6057fe5b049550614ad3565b8194505b50505050919050565b606080606080606060008088955087945084518651016040519080825280601f01601f191660200182016040528015614bbd5781602001602082028038833980820191505090505b50935083925060009150600090505b8551811015614c7f578581815181101515614be357fe5b9060200101517f010000000000000000000000000000000000000000000000000000000000000090047f0100000000000000000000000000000000000000000000000000000000000000028383806001019450815181101515614c4257fe5b9060200101907effffffffffffffffffffffffffffffffffffffffffffffffffffffffffffff1916908160001a9053508080600101915050614bcc565b600090505b8451811015614d37578481815181101515614c9b57fe5b9060200101517f010000000000000000000000000000000000000000000000000000000000000090047f0100000000000000000000000000000000000000000000000000000000000000028383806001019450815181101515614cfa57fe5b9060200101907effffffffffffffffffffffffffffffffffffffffffffffffffffffffffffff1916908160001a9053508080600101915050614c84565b82965050505050505092915050565b8173ffffffffffffffffffffffffffffffffffffffff16614d668261224e565b73ffffffffffffffffffffffffffffffffffffffff16141515614d8857600080fd5b614ddb6001600460008573ffffffffffffffffffffffffffffffffffffffff1673ffffffffffffffffffffffffffffffffffffffff16815260200190815260200160002054614e7590919063ffffffff16565b600460008473ffffffffffffffffffffffffffffffffffffffff1673ffffffffffffffffffffffffffffffffffffffff1681526020019081526020016000208190555060006002600083815260200190815260200160002060006101000a81548173ffffffffffffffffffffffffffffffffffffffff021916908373ffffffffffffffffffffffffffffffffffffffff1602179055505050565b6000828211151515614e8357fe5b818303905092915050565b600073ffffffffffffffffffffffffffffffffffffffff166002600083815260200190815260200160002060009054906101000a900473ffffffffffffffffffffffffffffffffffffffff1673ffffffffffffffffffffffffffffffffffffffff16141515614efc57600080fd5b816002600083815260200190815260200160002060006101000a81548173ffffffffffffffffffffffffffffffffffffffff021916908373ffffffffffffffffffffffffffffffffffffffff160217905550614fa16001600460008573ffffffffffffffffffffffffffffffffffffffff1673ffffffffffffffffffffffffffffffffffffffff168152602001908152602001600020546151d290919063ffffffff16565b600460008473ffffffffffffffffffffffffffffffffffffffff1673ffffffffffffffffffffffffffffffffffffffff168152602001908152602001600020819055505050565b600073ffffffffffffffffffffffffffffffffffffffff168273ffffffffffffffffffffffffffffffffffffffff161415151561502457600080fd5b61502e8282613d79565b8173ffffffffffffffffffffffffffffffffffffffff16600073ffffffffffffffffffffffffffffffffffffffff167fddf252ad1be2c89b69c2b068fc378daa952ba7f163c4a11628f55a4df523b3ef836040518082815260200191505060405180910390a35050565b60006150a261534a565b600060408051908101604052804267ffffffffffffffff1681526020018661ffff168152509150600160108390806001815401808255809150509060018203906000526020600020016000909192909190915060008201518160000160006101000a81548167ffffffffffffffff021916908367ffffffffffffffff16021790555060208201518160000160086101000a81548161ffff021916908361ffff16021790555050500390508373ffffffffffffffffffffffffffffffffffffffff167f01f56da6e10b9c620cc9acbe7ce65e4aaf046837947c092451776f76cf3a7edc8683604051808361ffff1661ffff1681526020018281526020019250505060405180910390a26151b48482613e50565b809250505092915050565b600080823b905060008111915050919050565b600081830190508281101515156151e557fe5b80905092915050565b828054600181600116156101000203166002900490600052602060002090601f016020900481019282601f1061522f57805160ff191683800117855561525d565b8280016001018555821561525d579182015b8281111561525c578251825591602001919060010190615241565b5b50905061526a919061541e565b5090565b608060405190810160405280600067ffffffffffffffff16815260200160608152602001600063ffffffff168152602001600081525090565b60a060405190810160405280600590602082028038833980820191505090505090565b828054600181600116156101000203166002900490600052602060002090601f016020900481019282601f1061530b57803560ff1916838001178555615339565b82800160010185558215615339579182015b8281111561533857823582559160200191906001019061531d565b5b509050615346919061541e565b5090565b6040805190810160405280600067ffffffffffffffff168152602001600061ffff1681525090565b81548183558181111561539957818360005260206000209182019101615398919061541e565b5b505050565b828054600181600116156101000203166002900490600052602060002090601f016020900481019282601f106153df57805160ff191683800117855561540d565b8280016001018555821561540d579182015b8281111561540c5782518255916020019190600101906153f1565b5b50905061541a919061541e565b5090565b61544091905b8082111561543c576000816000905550600101615424565b5090565b905600a165627a7a723058207f1fd4a6d4436d7c44496004538bec107627471710bfeed5c9e87b8fcec23a720029",
  "source": "pragma solidity ^0.4.21;\nimport \"openzeppelin-zos/contracts/token/ERC721/MintableERC721Token.sol\";\nimport \"openzeppelin-zos/contracts/lifecycle/Pausable.sol\";\n\n/**\n * @title CBBC (Crypto Baseball Cards)\n */\ncontract Cbbc is MintableERC721Token, Pausable {\n\n  /// @dev Emit this event whenever we set a new API Base URL (see setApiBaseUrl below)\n  event ApiBaseUrlSet(string _api_base_url);\n  /// @dev Emit this event whenever we mint a new edition (see mintEdition below)\n  event EditionMinted(uint16 _newEditionId, string _name, uint32 _numCards, uint256 _packPrice);\n  /// @dev Emit this event whenever someone buys  a new 5 pack of cards (see buyFivePack below)\n  event FivePackBought(uint16 _editionId, address indexed _owner);\n  /// @dev Emit this event whenever we mint a new 5 pack of cards (see mintFivePack below)\n  event FivePackMinted(uint16 _editionId, address indexed _owner);\n  /// @dev Emit this event whenever we mint a new card (see _mintCard below)\n  event CardMinted(uint16 _editionId, uint256 _cardId, address indexed _owner);\n\n  /// @dev The struct representing the Crypto Baseball edition.\n  struct Edition {\n    // The timestamp at which this card was minted.\n    uint64 mintTime;\n    // The name of the Edition\n    string name;\n    // The number of cards in the Edition\n    uint32 numCards;\n    // The price for a pack of cards in the Edition\n    uint256 packPrice;\n  }\n\n  /// @dev The struct representing the Crypto Baseball card.\n  struct Card {\n    // The timestamp at which this card was minted.\n    uint64 mintTime;\n    // The CBBC Edition ID that the card belongs to\n    uint16 editionId;\n  }\n\n  /*** STORAGE ***/\n\n  // @dev The default API Base URI\n  string constant API_BASE_URI = \"http//www.crypto-baseball-cards.com/cards/\";\n\n  // @dev The API Base URI\n  string public apiBaseUrl;\n\n  /// @dev All the editions that have been minted, indexed by editionId.\n  Edition[] public editions;\n\n  /// @dev All the cards that have been minted, indexed by cardId.\n  Card[] public cards;\n\n  /// @dev Keeps track of how many cards we have minted for a given edition\n  mapping (uint16 => uint32) internal mintedCountForEditionId;\n\n  /// @dev We initialize with the standard params.\n  /// @param _sender is the Contract owner.\n  /// @param _name is the CBBC ERC721 token name.\n  /// @param _symbol is the CBBC ERC721 token symbol.\n  function initialize(address _sender, string _name, string _symbol) isInitializer(\"Cbbc\", \"0.1.0\")  public {\n    apiBaseUrl = API_BASE_URI;\n    Ownable.initialize(_sender);\n    ERC721Token.initialize(_name, _symbol);\n  }\n\n  /// @dev Allows the contract owner to set a new API Base URL.\n  /// @param _apiBaseUrl the new API Base URL\n  function setApiBaseUrl(\n    string _apiBaseUrl\n  )\n  external onlyOwner\n  returns (string)\n  {\n    apiBaseUrl = _apiBaseUrl;\n    return apiBaseUrl;\n  }\n\n  /// @dev Allows the contract owner to mint a new edition of cards.\n  /// @param _name the name of the edition\n  /// @param _numCards the total number of cards in the edition\n  function mintEdition(\n    string _name,\n    uint32 _numCards,\n    uint256 _packPrice\n  )\n  external onlyOwner\n  returns (uint16)\n  {\n    return _mintEdition(_name, _numCards, _packPrice);\n  }\n\n  /// @dev An internal method that creates a new card and stores it.\n  /// Emits an EditionMinted event.\n  /// @param _name the name of the edition\n  /// @param _numCards the total number of cards in the edition\n  function _mintEdition(\n    string _name,\n    uint32 _numCards,\n    uint256 _packPrice\n  )\n  internal\n  returns (uint16)\n  {\n    Edition memory newEdition = Edition({\n      mintTime: uint64(now),\n      name: _name,\n      numCards: _numCards,\n      packPrice: _packPrice\n    });\n    uint16 newEditionId = uint16(editions.push(newEdition) - 1);\n    emit EditionMinted(newEditionId, _name, _numCards, _packPrice);\n    return newEditionId;\n  }\n\n  /// @dev Allows the public to buy and mint a pack of 5 cards.\n  /// @param _editionId is the CBBC edition ID for the 5 new cards.\n  /// @return The 5 new card IDs.\n  function buyFivePack(\n    uint16 _editionId\n  )\n  public payable\n  returns (uint256[5])\n  {\n    require(checkEditionExists(_editionId));\n    Edition memory edition = editions[_editionId];\n    require(msg.value >= edition.packPrice);\n    emit FivePackBought(_editionId, msg.sender);\n    return _mintFivePack(_editionId, msg.sender);\n  }\n\n  /// @dev Allows the contract owner to mint a pack of 5 cards.\n  /// @param _editionId is the CBBC edition ID for the 5 new cards.\n  /// @param _owner is the pack's owner.\n  /// @return The 5 new card IDs.\n  function mintFivePack(\n    uint16 _editionId,\n    address _owner\n  )\n  external onlyOwner\n  returns (uint256[5])\n  {\n    return _mintFivePack(_editionId, _owner);\n  }\n\n  /// @dev An internal method that mints a pack of 5 cards.\n  /// @param _editionId is the CBBC edition ID for the 5 new cards.\n  /// @param _owner is the pack's owner.\n  /// @return The 5 new card IDs.\n  function _mintFivePack(\n    uint16 _editionId,\n    address _owner\n  )\n  internal\n  returns (uint256[5])\n  {\n    require(checkEditionExists(_editionId));\n    Edition memory edition = editions[_editionId];\n    require(edition.numCards >= (mintedCountForEditionId[_editionId] + 5));\n    mintedCountForEditionId[_editionId] += 5;\n    uint256[5] memory cardIds;\n    emit FivePackMinted(_editionId, _owner);\n    cardIds[0] = _mintCard(_editionId, _owner);\n    cardIds[1] = _mintCard(_editionId, _owner);\n    cardIds[2] = _mintCard(_editionId, _owner);\n    cardIds[3] = _mintCard(_editionId, _owner);\n    cardIds[4] = _mintCard(_editionId, _owner);\n    return cardIds;\n  }\n\n  /// @dev An internal method that creates a new card and stores it.\n  ///  Emits both a CardMinted and a Transfer event.\n  /// @param _editionId The CBBC Edition ID that the card belongs to\n  /// @param _owner The card owner\n  function _mintCard(\n    uint16 _editionId,\n    address _owner\n  )\n    internal\n    returns (uint256)\n  {\n    Card memory newCard = Card({\n      mintTime: uint64(now),\n      editionId: _editionId\n    });\n    uint256 newCardId = cards.push(newCard) - 1;\n    emit CardMinted(_editionId, newCardId, _owner);\n    _mint(_owner, newCardId);\n    return newCardId;\n  }\n\n  /// @dev Returns the API URL for a given token Id.\n  /// see: https://docs.opensea.io/docs/2-adding-metadata\n  function tokenURI(uint256 _tokenId) public view returns (string) {\n    require(checkCardExists(_tokenId));\n    string memory _id = uint2str(_tokenId);\n    return strConcat(apiBaseUrl, _id);\n  }\n\n  /// @dev Returns true if the edition with ID _editionId exists.\n  function checkEditionExists(uint16 _editionId) public constant returns(bool){\n    if((_editionId >= 0) && (_editionId < editions.length)) {\n      return true;\n    } else {\n      return false;\n    }\n  }\n\n  /// @dev Returns the edition name, number of cards, minted count of cards for the edition, and pack price for a given _editionId.\n  /// see: https://docs.opensea.io/docs/2-adding-metadata\n  function editionInfo(uint16 _editionId) public view returns (string, uint32, uint32, uint256) {\n    require(checkEditionExists(_editionId));\n    Edition memory edition = editions[_editionId];\n    return (edition.name, edition.numCards, mintedCountForEditionId[_editionId], edition.packPrice);\n  }\n\n  /// @dev Returns true if the card with ID _cardId exists.\n  function checkCardExists(uint256 _cardId) public constant returns(bool){\n    if((_cardId >= 0) && (_cardId < cards.length)) {\n      return true;\n    } else {\n      return false;\n    }\n  }\n\n  /// @dev Returns the edition id, minted card count for the edition and tokenURI for a given token Id.\n  /// see: https://docs.opensea.io/docs/2-adding-metadata\n  function cardInfo(uint256 _tokenId) public view returns (uint16, uint32, string) {\n    require(checkCardExists(_tokenId));\n    Card memory card = cards[_tokenId];\n    return (card.editionId, mintedCountForEditionId[card.editionId], tokenURI(_tokenId));\n  }\n\n  // String helpers below were taken from Oraclize.\n  // https://github.com/oraclize/ethereum-api/blob/master/oraclizeAPI_0.4.sol\n\n  function strConcat(string _a, string _b) internal pure returns (string) {\n    bytes memory _ba = bytes(_a);\n    bytes memory _bb = bytes(_b);\n    string memory ab = new string(_ba.length + _bb.length);\n    bytes memory bab = bytes(ab);\n    uint k = 0;\n    for (uint i = 0; i < _ba.length; i++) bab[k++] = _ba[i];\n    for (i = 0; i < _bb.length; i++) bab[k++] = _bb[i];\n    return string(bab);\n  }\n\n  function uint2str(uint i) internal pure returns (string) {\n    if (i == 0) return \"0\";\n    uint j = i;\n    uint len;\n    while (j != 0) {\n      len++;\n      j /= 10;\n    }\n    bytes memory bstr = new bytes(len);\n    uint k = len - 1;\n    while (i != 0) {\n      bstr[k--] = byte(48 + i % 10);\n      i /= 10;\n    }\n    return string(bstr);\n  }\n\n}\n",
  "sourcePath": "/Users/ramie/cbbc_smart_contracts/cbbc-zos/contracts/Cbbc.sol",
  "compiler": {
    "name": "solc",
    "version": "0.4.24+commit.e67f0147.Emscripten.clang"
  },
  "schemaVersion": "2.0.1",
  "updatedAt": "2018-10-08T18:19:37.205Z"
}